{
	"data": {
		"bytecode": {
			"linkReferences": {},
			"object": "60806040525f600b555f600c55348015610017575f80fd5b5060405161624e38038061624e8339818101604052810190610039919061021f565b335f73ffffffffffffffffffffffffffffffffffffffff168173ffffffffffffffffffffffffffffffffffffffff16036100aa575f6040517f1e4fbdf70000000000000000000000000000000000000000000000000000000081526004016100a19190610259565b60405180910390fd5b6100b98161010060201b60201c565b5080600a5f6101000a81548173ffffffffffffffffffffffffffffffffffffffff021916908373ffffffffffffffffffffffffffffffffffffffff16021790555050610272565b5f805f9054906101000a900473ffffffffffffffffffffffffffffffffffffffff169050815f806101000a81548173ffffffffffffffffffffffffffffffffffffffff021916908373ffffffffffffffffffffffffffffffffffffffff1602179055508173ffffffffffffffffffffffffffffffffffffffff168173ffffffffffffffffffffffffffffffffffffffff167f8be0079c531659141344cd1fd0a4f28419497f9722a3daafe3b4186f6b6457e060405160405180910390a35050565b5f80fd5b5f73ffffffffffffffffffffffffffffffffffffffff82169050919050565b5f6101ee826101c5565b9050919050565b6101fe816101e4565b8114610208575f80fd5b50565b5f81519050610219816101f5565b92915050565b5f60208284031215610234576102336101c1565b5b5f6102418482850161020b565b91505092915050565b610253816101e4565b82525050565b5f60208201905061026c5f83018461024a565b92915050565b615fcf8061027f5f395ff3fe608060405260043610610224575f3560e01c80638da5cb5b11610122578063c4543b67116100aa578063fb24af7f1161006e578063fb24af7f146108ae578063fc757b88146108ea578063fdc8070e14610926578063fe726f8014610963578063ff2f44651461098d57610224565b8063c4543b67146107d0578063cd927409146107f8578063d7a9a25c14610834578063f2fde38b1461085e578063f3fef3a31461088657610224565b8063a8b74152116100f1578063a8b74152146106ca578063aac0bf9614610706578063ab56ee6614610742578063b3d16f8d1461077e578063b9f09bb8146107a657610224565b80638da5cb5b1461060c578063929eea2114610636578063a2fb342d14610672578063a7772b971461068e57610224565b80634b3fd148116101b057806374fd0ce01161017457806374fd0ce0146104f25780637924d93f1461052e5780637b9ec9971461056a5780638078f22c146105a65780638cf1806b146105e257610224565b80634b3fd148146104125780634fa9f5a41461043a578063541d8338146104765780636352b568146104a0578063715018a6146104dc57610224565b80631818dd0b116101f75780631818dd0b1461031b5780631c9e52241461034357806327e8e1841461036d5780633c9d5093146103a9578063447007fd146103d357610224565b806306254c6a1461022857806308ae7fc21461026457806311f4f5d3146102a35780631419f093146102df575b5f80fd5b348015610233575f80fd5b5061024e60048036038101906102499190614a42565b6109b5565b60405161025b9190614a85565b60405180910390f35b34801561026f575f80fd5b5061028a60048036038101906102859190614ac8565b610aaf565b60405161029a9493929190614b72565b60405180910390f35b3480156102ae575f80fd5b506102c960048036038101906102c49190614bbc565b610b8f565b6040516102d69190614a85565b60405180910390f35b3480156102ea575f80fd5b5061030560048036038101906103009190614a42565b610bc3565b6040516103129190614a85565b60405180910390f35b348015610326575f80fd5b50610341600480360381019061033c9190614bbc565b610d23565b005b34801561034e575f80fd5b5061035761115b565b6040516103649190614d7b565b60405180910390f35b348015610378575f80fd5b50610393600480360381019061038e9190614d9b565b6112af565b6040516103a09190614a85565b60405180910390f35b3480156103b4575f80fd5b506103bd6112cf565b6040516103ca9190614e81565b60405180910390f35b3480156103de575f80fd5b506103f960048036038101906103f49190614ac8565b61135a565b6040516104099493929190614b72565b60405180910390f35b34801561041d575f80fd5b5061043860048036038101906104339190614ea1565b61143a565b005b348015610445575f80fd5b50610460600480360381019061045b919061500b565b611b2f565b60405161046d91906150a5565b60405180910390f35b348015610481575f80fd5b5061048a611d7e565b6040516104979190614a85565b60405180910390f35b3480156104ab575f80fd5b506104c660048036038101906104c19190614a42565b611d84565b6040516104d39190614a85565b60405180910390f35b3480156104e7575f80fd5b506104f0611dde565b005b3480156104fd575f80fd5b5061051860048036038101906105139190614ea1565b611df1565b60405161052591906150be565b60405180910390f35b348015610539575f80fd5b50610554600480360381019061054f9190614ac8565b611e2e565b60405161056191906150be565b60405180910390f35b348015610575575f80fd5b50610590600480360381019061058b9190614a42565b611e69565b60405161059d9190614a85565b60405180910390f35b3480156105b1575f80fd5b506105cc60048036038101906105c79190614a42565b612393565b6040516105d991906150be565b60405180910390f35b3480156105ed575f80fd5b506105f66123c3565b6040516106039190614e81565b60405180910390f35b348015610617575f80fd5b5061062061244e565b60405161062d91906150be565b60405180910390f35b348015610641575f80fd5b5061065c60048036038101906106579190614ac8565b612475565b60405161066991906150be565b60405180910390f35b61068c60048036038101906106879190614bbc565b6124b0565b005b348015610699575f80fd5b506106b460048036038101906106af9190614a42565b612afa565b6040516106c19190614a85565b60405180910390f35b3480156106d5575f80fd5b506106f060048036038101906106eb9190614d9b565b612d30565b6040516106fd9190614a85565b60405180910390f35b348015610711575f80fd5b5061072c60048036038101906107279190614a42565b612d50565b6040516107399190614a85565b60405180910390f35b34801561074d575f80fd5b5061076860048036038101906107639190614a42565b612eda565b6040516107759190614a85565b60405180910390f35b348015610789575f80fd5b506107a4600480360381019061079f9190614d9b565b612fd4565b005b3480156107b1575f80fd5b506107ba61305b565b6040516107c79190614a85565b60405180910390f35b3480156107db575f80fd5b506107f660048036038101906107f191906150d7565b613061565b005b348015610803575f80fd5b5061081e60048036038101906108199190614ea1565b61329e565b60405161082b91906150be565b60405180910390f35b34801561083f575f80fd5b506108486132db565b6040516108559190614d7b565b60405180910390f35b348015610869575f80fd5b50610884600480360381019061087f9190614a42565b61342f565b005b348015610891575f80fd5b506108ac60048036038101906108a79190614bbc565b6134b3565b005b3480156108b9575f80fd5b506108d460048036038101906108cf9190614ea1565b613afd565b6040516108e19190614a85565b60405180910390f35b3480156108f5575f80fd5b50610910600480360381019061090b9190614a42565b613b3f565b60405161091d91906151b7565b60405180910390f35b348015610931575f80fd5b5061094c60048036038101906109479190614a42565b613d13565b60405161095a9291906151d7565b60405180910390f35b34801561096e575f80fd5b50610977613e6f565b6040516109849190615259565b60405180910390f35b348015610998575f80fd5b506109b360048036038101906109ae91906150d7565b613e94565b005b5f805f90505f6001805490501115610aa6575f5b600180549050811015610aa45760035f8573ffffffffffffffffffffffffffffffffffffffff1673ffffffffffffffffffffffffffffffffffffffff1681526020019081526020015f205f60018381548110610a2857610a27615272565b5b905f5260205f20015f9054906101000a900473ffffffffffffffffffffffffffffffffffffffff1673ffffffffffffffffffffffffffffffffffffffff1673ffffffffffffffffffffffffffffffffffffffff1681526020019081526020015f205482610a9591906152cc565b915080806001019150506109c9565b505b80915050919050565b60088181548110610abe575f80fd5b905f5260205f2090600402015f91509050805f015f9054906101000a900473ffffffffffffffffffffffffffffffffffffffff1690806001015490806002015490806003018054610b0e9061532c565b80601f0160208091040260200160405190810160405280929190818152602001828054610b3a9061532c565b8015610b855780601f10610b5c57610100808354040283529160200191610b85565b820191905f5260205f20905b815481529060010190602001808311610b6857829003601f168201915b5050505050905084565b5f670de0b6b3a7640000610ba284613b3f565b6040015183610bb1919061535c565b610bbb91906153ca565b905092915050565b5f805f90505f5b600c54811015610d19575f60065f8381526020019081526020015f205f8673ffffffffffffffffffffffffffffffffffffffff1673ffffffffffffffffffffffffffffffffffffffff1681526020019081526020015f205f9054906101000a900473ffffffffffffffffffffffffffffffffffffffff1690505f73ffffffffffffffffffffffffffffffffffffffff168173ffffffffffffffffffffffffffffffffffffffff1614610d0b575f610cf960045f8473ffffffffffffffffffffffffffffffffffffffff1673ffffffffffffffffffffffffffffffffffffffff1681526020019081526020015f205f8873ffffffffffffffffffffffffffffffffffffffff1673ffffffffffffffffffffffffffffffffffffffff1681526020019081526020015f205483613afd565b90508084610d0791906152cc565b9350505b508080600101915050610bca565b5080915050919050565b5f8111610d2e575f80fd5b5f610ddb6002805480602002602001604051908101604052809291908181526020018280548015610db157602002820191905f5260205f20905b815f9054906101000a900473ffffffffffffffffffffffffffffffffffffffff1673ffffffffffffffffffffffffffffffffffffffff1681526020019060010190808311610d68575b50505050503373ffffffffffffffffffffffffffffffffffffffff166140d190919063ffffffff16565b90507ffd17bd4279d0fe7ef2675b6b6e8966ee4b2dbdc635a963c22487d11f2252fd263382604051610e0e929190615412565b60405180910390a15f811215610e22575f80fd5b5f60045f8573ffffffffffffffffffffffffffffffffffffffff1673ffffffffffffffffffffffffffffffffffffffff1681526020019081526020015f205f3373ffffffffffffffffffffffffffffffffffffffff1673ffffffffffffffffffffffffffffffffffffffff1681526020019081526020015f205490507f39c49093e2def1aebe4cebf2fbebfd37c089d9231d17ecd15319230e499d73583382604051610ecf929190615439565b60405180910390a15f8111610ee2575f80fd5b5f8490508073ffffffffffffffffffffffffffffffffffffffff166323b872dd3330610f0e8987610b8f565b88610f1991906152cc565b6040518463ffffffff1660e01b8152600401610f3793929190615460565b6020604051808303815f875af1158015610f53573d5f803e3d5ffd5b505050506040513d601f19601f82011682018060405250810190610f7791906154bf565b508360045f8773ffffffffffffffffffffffffffffffffffffffff1673ffffffffffffffffffffffffffffffffffffffff1681526020019081526020015f205f3373ffffffffffffffffffffffffffffffffffffffff1673ffffffffffffffffffffffffffffffffffffffff1681526020019081526020015f205f828254610fff91906154ea565b925050819055505f61101033610bc3565b03611100576002600160028054905061102991906154ea565b8154811061103a57611039615272565b5b905f5260205f20015f9054906101000a900473ffffffffffffffffffffffffffffffffffffffff166002848154811061107657611075615272565b5b905f5260205f20015f6101000a81548173ffffffffffffffffffffffffffffffffffffffff021916908373ffffffffffffffffffffffffffffffffffffffff16021790555060028054806110cd576110cc61551d565b5b600190038181905f5260205f20015f6101000a81549073ffffffffffffffffffffffffffffffffffffffff021916905590555b7ff17f5805b2095d17ffe834aff3fc2eeff114bfbc250e98f248783f8d34d4004233848461112e8987610b8f565b8861113991906152cc565b600260405161114c95949392919061562a565b60405180910390a15050505050565b60606008805480602002602001604051908101604052809291908181526020015f905b828210156112a6578382905f5260205f2090600402016040518060800160405290815f82015f9054906101000a900473ffffffffffffffffffffffffffffffffffffffff1673ffffffffffffffffffffffffffffffffffffffff1673ffffffffffffffffffffffffffffffffffffffff16815260200160018201548152602001600282015481526020016003820180546112179061532c565b80601f01602080910402602001604051908101604052809291908181526020018280546112439061532c565b801561128e5780601f106112655761010080835404028352916020019161128e565b820191905f5260205f20905b81548152906001019060200180831161127157829003601f168201915b5050505050815250508152602001906001019061117e565b50505050905090565b6003602052815f5260405f20602052805f5260405f205f91509150505481565b6060600180548060200260200160405190810160405280929190818152602001828054801561135057602002820191905f5260205f20905b815f9054906101000a900473ffffffffffffffffffffffffffffffffffffffff1673ffffffffffffffffffffffffffffffffffffffff1681526020019060010190808311611307575b5050505050905090565b60098181548110611369575f80fd5b905f5260205f2090600402015f91509050805f015f9054906101000a900473ffffffffffffffffffffffffffffffffffffffff16908060010154908060020154908060030180546113b99061532c565b80601f01602080910402602001604051908101604052809291908181526020018280546113e59061532c565b80156114305780601f1061140757610100808354040283529160200191611430565b820191905f5260205f20905b81548152906001019060200180831161141357829003601f168201915b5050505050905084565b611590816009805480602002602001604051908101604052809291908181526020015f905b82821015611587578382905f5260205f2090600402016040518060800160405290815f82015f9054906101000a900473ffffffffffffffffffffffffffffffffffffffff1673ffffffffffffffffffffffffffffffffffffffff1673ffffffffffffffffffffffffffffffffffffffff16815260200160018201548152602001600282015481526020016003820180546114f89061532c565b80601f01602080910402602001604051908101604052809291908181526020018280546115249061532c565b801561156f5780601f106115465761010080835404028352916020019161156f565b820191905f5260205f20905b81548152906001019060200180831161155257829003601f168201915b5050505050815250508152602001906001019061145f565b5050505061416e565b611598575f80fd5b5f82116115a3575f80fd5b5f6115ad33611e69565b90505f6115ba8484613afd565b90507f9855d8af0b8c5c7af990f62dff1fc3aeaded940bb30b8de4b0015eab8bcc7dde3382846040516115ef93929190615682565b60405180910390a181811115611603575f80fd5b5f8390507f1533b7359743566892d312c1ebe1047dfae70511d2db64634f80e3e8e2147354338273ffffffffffffffffffffffffffffffffffffffff166370a08231306040518263ffffffff1660e01b815260040161166291906150be565b602060405180830381865afa15801561167d573d5f803e3d5ffd5b505050506040513d601f19601f820116820180604052508101906116a191906156cb565b876040516116b193929190615682565b60405180910390a1848173ffffffffffffffffffffffffffffffffffffffff166370a08231306040518263ffffffff1660e01b81526004016116f391906150be565b602060405180830381865afa15801561170e573d5f803e3d5ffd5b505050506040513d601f19601f8201168201806040525081019061173291906156cb565b1015611773576040517f08c379a000000000000000000000000000000000000000000000000000000000815260040161176a90615740565b60405180910390fd5b8073ffffffffffffffffffffffffffffffffffffffff1663a9059cbb33876040518363ffffffff1660e01b81526004016117ae929190615439565b6020604051808303815f875af11580156117ca573d5f803e3d5ffd5b505050506040513d601f19601f820116820180604052508101906117ee91906154bf565b505f8061189d600280548060200260200160405190810160405280929190818152602001828054801561187357602002820191905f5260205f20905b815f9054906101000a900473ffffffffffffffffffffffffffffffffffffffff1673ffffffffffffffffffffffffffffffffffffffff168152602001906001019080831161182a575b50505050503373ffffffffffffffffffffffffffffffffffffffff166141f690919063ffffffff16565b9150915081156118ed576118e88688836040518060400160405280600981526020017f626f72726f7765727300000000000000000000000000000000000000000000008152506142a3565b611a6a565b600233908060018154018082558091505060019003905f5260205f20015f9091909190916101000a81548173ffffffffffffffffffffffffffffffffffffffff021916908373ffffffffffffffffffffffffffffffffffffffff1602179055508660045f8873ffffffffffffffffffffffffffffffffffffffff1673ffffffffffffffffffffffffffffffffffffffff1681526020019081526020015f205f3373ffffffffffffffffffffffffffffffffffffffff1673ffffffffffffffffffffffffffffffffffffffff1681526020019081526020015f20819055508560065f600c5f8154809291906119e09061575e565b9190505581526020019081526020015f205f3373ffffffffffffffffffffffffffffffffffffffff1673ffffffffffffffffffffffffffffffffffffffff1681526020019081526020015f205f6101000a81548173ffffffffffffffffffffffffffffffffffffffff021916908373ffffffffffffffffffffffffffffffffffffffff1602179055505b7f699548a5535b752f15032eb2be1672b2e5e62ddc5d461d4edb5a9321d7cbd2523385878585600260045f8e73ffffffffffffffffffffffffffffffffffffffff1673ffffffffffffffffffffffffffffffffffffffff1681526020019081526020015f205f3373ffffffffffffffffffffffffffffffffffffffff1673ffffffffffffffffffffffffffffffffffffffff1681526020019081526020015f2054604051611b1e97969594939291906157a5565b60405180910390a150505050505050565b5f80831115611d7257604051602001611b479061586d565b6040516020818303038152906040528051906020012082604051602001611b6e91906158b1565b6040516020818303038152906040528051906020012003611c56575f5b600b54811015611c50575f60055f8381526020019081526020015f205f8873ffffffffffffffffffffffffffffffffffffffff1673ffffffffffffffffffffffffffffffffffffffff1681526020019081526020015f205f9054906101000a900473ffffffffffffffffffffffffffffffffffffffff1690508573ffffffffffffffffffffffffffffffffffffffff168173ffffffffffffffffffffffffffffffffffffffff1603611c4257600192505050611d76565b508080600101915050611b8b565b50611d71565b604051602001611c6590615911565b6040516020818303038152906040528051906020012082604051602001611c8c91906158b1565b6040516020818303038152906040528051906020012003611d70575f5b600c54811015611d6e575f60065f8381526020019081526020015f205f8873ffffffffffffffffffffffffffffffffffffffff1673ffffffffffffffffffffffffffffffffffffffff1681526020019081526020015f205f9054906101000a900473ffffffffffffffffffffffffffffffffffffffff1690508573ffffffffffffffffffffffffffffffffffffffff168173ffffffffffffffffffffffffffffffffffffffff1603611d6057600192505050611d76565b508080600101915050611ca9565b505b5b5b5f90505b949350505050565b600c5481565b5f80611d8f83610bc3565b90505f80821115611daa57611da384612d50565b9050611db6565b611db384612afa565b90505b81811015611dc8575f92505050611dd9565b8181611dd491906154ea565b925050505b919050565b611de66147c2565b611def5f614849565b565b6006602052815f5260405f20602052805f5260405f205f915091509054906101000a900473ffffffffffffffffffffffffffffffffffffffff1681565b60028181548110611e3d575f80fd5b905f5260205f20015f915054906101000a900473ffffffffffffffffffffffffffffffffffffffff1681565b5f805f90505f805b600180549050811015612109575f60018281548110611e9357611e92615272565b5b905f5260205f20015f9054906101000a900473ffffffffffffffffffffffffffffffffffffffff1690508573ffffffffffffffffffffffffffffffffffffffff168173ffffffffffffffffffffffffffffffffffffffff16036120fb575f5b6008805490508110156120f9575f60088281548110611f1457611f13615272565b5b905f5260205f2090600402016040518060800160405290815f82015f9054906101000a900473ffffffffffffffffffffffffffffffffffffffff1673ffffffffffffffffffffffffffffffffffffffff1673ffffffffffffffffffffffffffffffffffffffff1681526020016001820154815260200160028201548152602001600382018054611fa39061532c565b80601f0160208091040260200160405190810160405280929190818152602001828054611fcf9061532c565b801561201a5780601f10611ff15761010080835404028352916020019161201a565b820191905f5260205f20905b815481529060010190602001808311611ffd57829003601f168201915b50505050508152505090505f60035f835f015173ffffffffffffffffffffffffffffffffffffffff1673ffffffffffffffffffffffffffffffffffffffff1681526020019081526020015f205f8a73ffffffffffffffffffffffffffffffffffffffff1673ffffffffffffffffffffffffffffffffffffffff1681526020019081526020015f205490505f6120b282845f0151613afd565b90505f670de0b6b3a76400008460200151836120ce919061535c565b6120d891906153ca565b905080896120e691906152cc565b9850505050508080600101915050611ef2565b505b508080600101915050611e71565b505f5b60028054905081101561237d575f6002828154811061212e5761212d615272565b5b905f5260205f20015f9054906101000a900473ffffffffffffffffffffffffffffffffffffffff1690508573ffffffffffffffffffffffffffffffffffffffff168173ffffffffffffffffffffffffffffffffffffffff160361236f575f5b60098054905081101561236d575f600982815481106121af576121ae615272565b5b905f5260205f2090600402016040518060800160405290815f82015f9054906101000a900473ffffffffffffffffffffffffffffffffffffffff1673ffffffffffffffffffffffffffffffffffffffff1673ffffffffffffffffffffffffffffffffffffffff168152602001600182015481526020016002820154815260200160038201805461223e9061532c565b80601f016020809104026020016040519081016040528092919081815260200182805461226a9061532c565b80156122b55780601f1061228c576101008083540402835291602001916122b5565b820191905f5260205f20905b81548152906001019060200180831161229857829003601f168201915b50505050508152505090505f60045f835f015173ffffffffffffffffffffffffffffffffffffffff1673ffffffffffffffffffffffffffffffffffffffff1681526020019081526020015f205f8a73ffffffffffffffffffffffffffffffffffffffff1673ffffffffffffffffffffffffffffffffffffffff1681526020019081526020015f205490505f61234d82845f0151613afd565b9050808761235b91906152cc565b9650505050808060010191505061218d565b505b50808060010191505061210c565b50808261238a91906154ea565b92505050919050565b6007602052805f5260405f205f915054906101000a900473ffffffffffffffffffffffffffffffffffffffff1681565b6060600280548060200260200160405190810160405280929190818152602001828054801561244457602002820191905f5260205f20905b815f9054906101000a900473ffffffffffffffffffffffffffffffffffffffff1673ffffffffffffffffffffffffffffffffffffffff16815260200190600101908083116123fb575b5050505050905090565b5f805f9054906101000a900473ffffffffffffffffffffffffffffffffffffffff16905090565b60018181548110612484575f80fd5b905f5260205f20015f915054906101000a900473ffffffffffffffffffffffffffffffffffffffff1681565b612606826008805480602002602001604051908101604052809291908181526020015f905b828210156125fd578382905f5260205f2090600402016040518060800160405290815f82015f9054906101000a900473ffffffffffffffffffffffffffffffffffffffff1673ffffffffffffffffffffffffffffffffffffffff1673ffffffffffffffffffffffffffffffffffffffff168152602001600182015481526020016002820154815260200160038201805461256e9061532c565b80601f016020809104026020016040519081016040528092919081815260200182805461259a9061532c565b80156125e55780601f106125bc576101008083540402835291602001916125e5565b820191905f5260205f20905b8154815290600101906020018083116125c857829003601f168201915b505050505081525050815260200190600101906124d5565b5050505061416e565b61260e575f80fd5b5f8111612619575f80fd5b5f829050818173ffffffffffffffffffffffffffffffffffffffff166370a08231336040518263ffffffff1660e01b815260040161265791906150be565b602060405180830381865afa158015612672573d5f803e3d5ffd5b505050506040513d601f19601f8201168201806040525081019061269691906156cb565b10156126a0575f80fd5b8073ffffffffffffffffffffffffffffffffffffffff166323b872dd3330856040518463ffffffff1660e01b81526004016126dd93929190615460565b6020604051808303815f875af11580156126f9573d5f803e3d5ffd5b505050506040513d601f19601f8201168201806040525081019061271d91906154bf565b505f806127cc60018054806020026020016040519081016040528092919081815260200182805480156127a257602002820191905f5260205f20905b815f9054906101000a900473ffffffffffffffffffffffffffffffffffffffff1673ffffffffffffffffffffffffffffffffffffffff1681526020019060010190808311612759575b50505050503373ffffffffffffffffffffffffffffffffffffffff166141f690919063ffffffff16565b91509150811561281c576128178585836040518060400160405280600781526020017f6c656e64657273000000000000000000000000000000000000000000000000008152506142a3565b612999565b600133908060018154018082558091505060019003905f5260205f20015f9091909190916101000a81548173ffffffffffffffffffffffffffffffffffffffff021916908373ffffffffffffffffffffffffffffffffffffffff1602179055508360035f8773ffffffffffffffffffffffffffffffffffffffff1673ffffffffffffffffffffffffffffffffffffffff1681526020019081526020015f205f3373ffffffffffffffffffffffffffffffffffffffff1673ffffffffffffffffffffffffffffffffffffffff1681526020019081526020015f20819055508460055f600b5f81548092919061290f9061575e565b9190505581526020019081526020015f205f3373ffffffffffffffffffffffffffffffffffffffff1673ffffffffffffffffffffffffffffffffffffffff1681526020019081526020015f205f6101000a81548173ffffffffffffffffffffffffffffffffffffffff021916908373ffffffffffffffffffffffffffffffffffffffff1602179055505b600a5f9054906101000a900473ffffffffffffffffffffffffffffffffffffffff1673ffffffffffffffffffffffffffffffffffffffff1663a9059cbb336129e18789613afd565b6040518363ffffffff1660e01b81526004016129fe929190615439565b6020604051808303815f875af1158015612a1a573d5f803e3d5ffd5b505050506040513d601f19601f82011682018060405250810190612a3e91906154bf565b507fbb33ffe04605a99e7885b3013bcc050161d1906b3611f09fed70a0c61e1f03de33600160035f8973ffffffffffffffffffffffffffffffffffffffff1673ffffffffffffffffffffffffffffffffffffffff1681526020019081526020015f205f3373ffffffffffffffffffffffffffffffffffffffff1673ffffffffffffffffffffffffffffffffffffffff1681526020019081526020015f2054604051612aeb93929190615925565b60405180910390a15050505050565b5f805f90505f5b600b54811015612d26575f73ffffffffffffffffffffffffffffffffffffffff1660055f8381526020019081526020015f205f8673ffffffffffffffffffffffffffffffffffffffff1673ffffffffffffffffffffffffffffffffffffffff1681526020019081526020015f205f9054906101000a900473ffffffffffffffffffffffffffffffffffffffff1673ffffffffffffffffffffffffffffffffffffffff1614612d19575f60035f60055f8581526020019081526020015f205f8873ffffffffffffffffffffffffffffffffffffffff1673ffffffffffffffffffffffffffffffffffffffff1681526020019081526020015f205f9054906101000a900473ffffffffffffffffffffffffffffffffffffffff1673ffffffffffffffffffffffffffffffffffffffff1673ffffffffffffffffffffffffffffffffffffffff1681526020019081526020015f205f8673ffffffffffffffffffffffffffffffffffffffff1673ffffffffffffffffffffffffffffffffffffffff1681526020019081526020015f205490505f612d068260055f8681526020019081526020015f205f8973ffffffffffffffffffffffffffffffffffffffff1673ffffffffffffffffffffffffffffffffffffffff1681526020019081526020015f205f9054906101000a900473ffffffffffffffffffffffffffffffffffffffff16613afd565b90508084612d1491906152cc565b935050505b8080600101915050612b01565b5080915050919050565b6004602052815f5260405f20602052805f5260405f205f91509150505481565b5f805f90505f5b600b54811015612ed0575f60055f8381526020019081526020015f205f8673ffffffffffffffffffffffffffffffffffffffff1673ffffffffffffffffffffffffffffffffffffffff1681526020019081526020015f205f9054906101000a900473ffffffffffffffffffffffffffffffffffffffff1690505f73ffffffffffffffffffffffffffffffffffffffff168173ffffffffffffffffffffffffffffffffffffffff1614612ec2575f612e8660035f8473ffffffffffffffffffffffffffffffffffffffff1673ffffffffffffffffffffffffffffffffffffffff1681526020019081526020015f205f8873ffffffffffffffffffffffffffffffffffffffff1673ffffffffffffffffffffffffffffffffffffffff1681526020019081526020015f205483613afd565b9050670de0b6b3a7640000612e9a83613b3f565b6020015182612ea9919061535c565b612eb391906153ca565b84612ebe91906152cc565b9350505b508080600101915050612d57565b5080915050919050565b5f805f90505f6002805490501115612fcb575f5b600280549050811015612fc95760045f8573ffffffffffffffffffffffffffffffffffffffff1673ffffffffffffffffffffffffffffffffffffffff1681526020019081526020015f205f60028381548110612f4d57612f4c615272565b5b905f5260205f20015f9054906101000a900473ffffffffffffffffffffffffffffffffffffffff1673ffffffffffffffffffffffffffffffffffffffff1673ffffffffffffffffffffffffffffffffffffffff1681526020019081526020015f205482612fba91906152cc565b91508080600101915050612eee565b505b80915050919050565b612fdc6147c2565b8060075f8473ffffffffffffffffffffffffffffffffffffffff1673ffffffffffffffffffffffffffffffffffffffff1681526020019081526020015f205f6101000a81548173ffffffffffffffffffffffffffffffffffffffff021916908373ffffffffffffffffffffffffffffffffffffffff1602179055505050565b600b5481565b6130696147c2565b5f60405180608001604052808573ffffffffffffffffffffffffffffffffffffffff1681526020018481526020018381526020018681525090506131f9816008805480602002602001604051908101604052809291908181526020015f905b828210156131f0578382905f5260205f2090600402016040518060800160405290815f82015f9054906101000a900473ffffffffffffffffffffffffffffffffffffffff1673ffffffffffffffffffffffffffffffffffffffff1673ffffffffffffffffffffffffffffffffffffffff16815260200160018201548152602001600282015481526020016003820180546131619061532c565b80601f016020809104026020016040519081016040528092919081815260200182805461318d9061532c565b80156131d85780601f106131af576101008083540402835291602001916131d8565b820191905f5260205f20905b8154815290600101906020018083116131bb57829003601f168201915b505050505081525050815260200190600101906130c8565b5050505061490a565b61329757600881908060018154018082558091505060019003905f5260205f2090600402015f909190919091505f820151815f015f6101000a81548173ffffffffffffffffffffffffffffffffffffffff021916908373ffffffffffffffffffffffffffffffffffffffff160217905550602082015181600101556040820151816002015560608201518160030190816132939190615af5565b5050505b5050505050565b6005602052815f5260405f20602052805f5260405f205f915091509054906101000a900473ffffffffffffffffffffffffffffffffffffffff1681565b60606009805480602002602001604051908101604052809291908181526020015f905b82821015613426578382905f5260205f2090600402016040518060800160405290815f82015f9054906101000a900473ffffffffffffffffffffffffffffffffffffffff1673ffffffffffffffffffffffffffffffffffffffff1673ffffffffffffffffffffffffffffffffffffffff16815260200160018201548152602001600282015481526020016003820180546133979061532c565b80601f01602080910402602001604051908101604052809291908181526020018280546133c39061532c565b801561340e5780601f106133e55761010080835404028352916020019161340e565b820191905f5260205f20905b8154815290600101906020018083116133f157829003601f168201915b505050505081525050815260200190600101906132fe565b50505050905090565b6134376147c2565b5f73ffffffffffffffffffffffffffffffffffffffff168173ffffffffffffffffffffffffffffffffffffffff16036134a7575f6040517f1e4fbdf700000000000000000000000000000000000000000000000000000000815260040161349e91906150be565b60405180910390fd5b6134b081614849565b50565b5f81116134be575f80fd5b5f61356b600180548060200260200160405190810160405280929190818152602001828054801561354157602002820191905f5260205f20905b815f9054906101000a900473ffffffffffffffffffffffffffffffffffffffff1673ffffffffffffffffffffffffffffffffffffffff16815260200190600101908083116134f8575b50505050503373ffffffffffffffffffffffffffffffffffffffff166140d190919063ffffffff16565b1215613575575f80fd5b5f8290505f6135848385613afd565b90505f61359033611d84565b90505f61359c866109b5565b90505f6135a887612eda565b905080826135b691906154ea565b8611156135c1575f80fd5b7fa3f1253c66c67d41b745dd1caff0e52d3fb3aefdf8dd746b6af0c96d1f29e3bc3385856040516135f493929190615682565b60405180910390a182841115613608575f80fd5b5f6136138789613afd565b90505f600a5f9054906101000a900473ffffffffffffffffffffffffffffffffffffffff1673ffffffffffffffffffffffffffffffffffffffff166370a08231336040518263ffffffff1660e01b815260040161367091906150be565b602060405180830381865afa15801561368b573d5f803e3d5ffd5b505050506040513d601f19601f820116820180604052508101906136af91906156cb565b905080821161375c57600a5f9054906101000a900473ffffffffffffffffffffffffffffffffffffffff1673ffffffffffffffffffffffffffffffffffffffff166323b872dd3330856040518463ffffffff1660e01b815260040161371693929190615460565b6020604051808303815f875af1158015613732573d5f803e3d5ffd5b505050506040513d601f19601f8201168201806040525081019061375691906154bf565b506137fc565b600a5f9054906101000a900473ffffffffffffffffffffffffffffffffffffffff1673ffffffffffffffffffffffffffffffffffffffff166323b872dd3330846040518463ffffffff1660e01b81526004016137ba93929190615460565b6020604051808303815f875af11580156137d6573d5f803e3d5ffd5b505050506040513d601f19601f820116820180604052508101906137fa91906154bf565b505b8673ffffffffffffffffffffffffffffffffffffffff1663a9059cbb338a6040518363ffffffff1660e01b8152600401613837929190615439565b6020604051808303815f875af1158015613853573d5f803e3d5ffd5b505050506040513d601f19601f8201168201806040525081019061387791906154bf565b508760035f8b73ffffffffffffffffffffffffffffffffffffffff1673ffffffffffffffffffffffffffffffffffffffff1681526020019081526020015f205f3373ffffffffffffffffffffffffffffffffffffffff1673ffffffffffffffffffffffffffffffffffffffff1681526020019081526020015f205f8282546138ff91906154ea565b925050819055507fb7ee00edafdb5db3a1b52a5789a6b562eb48268842d113dbfe860b6f86e5f5953389888861393433612afa565b8760405161394796959493929190615bc4565b60405180910390a15f61395933612afa565b11613af257600180808054905061397091906154ea565b8154811061398157613980615272565b5b905f5260205f20015f9054906101000a900473ffffffffffffffffffffffffffffffffffffffff166001613a576001805480602002602001604051908101604052809291908181526020018280548015613a2d57602002820191905f5260205f20905b815f9054906101000a900473ffffffffffffffffffffffffffffffffffffffff1673ffffffffffffffffffffffffffffffffffffffff16815260200190600101908083116139e4575b50505050503373ffffffffffffffffffffffffffffffffffffffff166140d190919063ffffffff16565b81548110613a6857613a67615272565b5b905f5260205f20015f6101000a81548173ffffffffffffffffffffffffffffffffffffffff021916908373ffffffffffffffffffffffffffffffffffffffff1602179055506001805480613abf57613abe61551d565b5b600190038181905f5260205f20015f6101000a81549073ffffffffffffffffffffffffffffffffffffffff021916905590555b505050505050505050565b5f805f613b0984613d13565b915091505f81600a613b1b9190615d52565b8387613b27919061535c565b613b3191906153ca565b905080935050505092915050565b613b4761499c565b613b4f61499c565b5f5b600980549050811015613d09578373ffffffffffffffffffffffffffffffffffffffff1660098281548110613b8957613b88615272565b5b905f5260205f2090600402015f015f9054906101000a900473ffffffffffffffffffffffffffffffffffffffff1673ffffffffffffffffffffffffffffffffffffffff1603613cfc5760098181548110613be657613be5615272565b5b905f5260205f2090600402016040518060800160405290815f82015f9054906101000a900473ffffffffffffffffffffffffffffffffffffffff1673ffffffffffffffffffffffffffffffffffffffff1673ffffffffffffffffffffffffffffffffffffffff1681526020016001820154815260200160028201548152602001600382018054613c759061532c565b80601f0160208091040260200160405190810160405280929190818152602001828054613ca19061532c565b8015613cec5780601f10613cc357610100808354040283529160200191613cec565b820191905f5260205f20905b815481529060010190602001808311613ccf57829003601f168201915b5050505050815250509150613d09565b8080600101915050613b51565b5080915050919050565b5f805f60075f8573ffffffffffffffffffffffffffffffffffffffff1673ffffffffffffffffffffffffffffffffffffffff1681526020019081526020015f205f9054906101000a900473ffffffffffffffffffffffffffffffffffffffff1690505f8190505f8173ffffffffffffffffffffffffffffffffffffffff1663feaf968c6040518163ffffffff1660e01b815260040160a060405180830381865afa158015613dc3573d5f803e3d5ffd5b505050506040513d601f19601f82011682018060405250810190613de79190615e05565b5050509150505f8273ffffffffffffffffffffffffffffffffffffffff1663313ce5676040518163ffffffff1660e01b8152600401602060405180830381865afa158015613e37573d5f803e3d5ffd5b505050506040513d601f19601f82011682018060405250810190613e5b9190615eb2565b60ff16905081819550955050505050915091565b600a5f9054906101000a900473ffffffffffffffffffffffffffffffffffffffff1681565b613e9c6147c2565b5f60405180608001604052808573ffffffffffffffffffffffffffffffffffffffff16815260200184815260200183815260200186815250905061402c816009805480602002602001604051908101604052809291908181526020015f905b82821015614023578382905f5260205f2090600402016040518060800160405290815f82015f9054906101000a900473ffffffffffffffffffffffffffffffffffffffff1673ffffffffffffffffffffffffffffffffffffffff1673ffffffffffffffffffffffffffffffffffffffff1681526020016001820154815260200160028201548152602001600382018054613f949061532c565b80601f0160208091040260200160405190810160405280929190818152602001828054613fc09061532c565b801561400b5780601f10613fe25761010080835404028352916020019161400b565b820191905f5260205f20905b815481529060010190602001808311613fee57829003601f168201915b50505050508152505081526020019060010190613efb565b5050505061490a565b6140ca57600981908060018154018082558091505060019003905f5260205f2090600402015f909190919091505f820151815f015f6101000a81548173ffffffffffffffffffffffffffffffffffffffff021916908373ffffffffffffffffffffffffffffffffffffffff160217905550602082015181600101556040820151816002015560608201518160030190816140c69190615af5565b5050505b5050505050565b5f805f90505b8251811015614143578281815181106140f3576140f2615272565b5b602002602001015173ffffffffffffffffffffffffffffffffffffffff168473ffffffffffffffffffffffffffffffffffffffff16036141365780915050614168565b80806001019150506140d7565b507fffffffffffffffffffffffffffffffffffffffffffffffffffffffffffffffff90505b92915050565b5f80825111156141ec575f5b82518110156141ea578373ffffffffffffffffffffffffffffffffffffffff168382815181106141ad576141ac615272565b5b60200260200101515f015173ffffffffffffffffffffffffffffffffffffffff16036141dd5760019150506141f0565b808060010191505061417a565b505b5f90505b92915050565b5f805f83511115614275575f5b83518110156142735783818151811061421f5761421e615272565b5b602002602001015173ffffffffffffffffffffffffffffffffffffffff168573ffffffffffffffffffffffffffffffffffffffff160361426657600181925092505061429c565b8080600101915050614203565b505b5f7fffffffffffffffffffffffffffffffffffffffffffffffffffffffffffffffff915091505b9250929050565b6040516020016142b290615f27565b60405160208183030381529060405280519060200120816040516020016142d991906158b1565b6040516020818303038152906040528051906020012003614531575f6001838154811061430957614308615272565b5b905f5260205f20015f9054906101000a900473ffffffffffffffffffffffffffffffffffffffff1690506143768186600b546040518060400160405280600a81526020017f746f6b656e734c656e7400000000000000000000000000000000000000000000815250611b2f565b1561440e578360035f8773ffffffffffffffffffffffffffffffffffffffff1673ffffffffffffffffffffffffffffffffffffffff1681526020019081526020015f205f8373ffffffffffffffffffffffffffffffffffffffff1673ffffffffffffffffffffffffffffffffffffffff1681526020019081526020015f205f82825461440291906152cc565b9250508190555061452b565b8460055f600b5f8154809291906144249061575e565b9190505581526020019081526020015f205f8373ffffffffffffffffffffffffffffffffffffffff1673ffffffffffffffffffffffffffffffffffffffff1681526020019081526020015f205f6101000a81548173ffffffffffffffffffffffffffffffffffffffff021916908373ffffffffffffffffffffffffffffffffffffffff1602179055508360035f8773ffffffffffffffffffffffffffffffffffffffff1673ffffffffffffffffffffffffffffffffffffffff1681526020019081526020015f205f8373ffffffffffffffffffffffffffffffffffffffff1673ffffffffffffffffffffffffffffffffffffffff1681526020019081526020015f20819055505b506147bc565b60405160200161454090615f85565b604051602081830303815290604052805190602001208160405160200161456791906158b1565b60405160208183030381529060405280519060200120036147bb575f6002838154811061459757614596615272565b5b905f5260205f20015f9054906101000a900473ffffffffffffffffffffffffffffffffffffffff1690506146048186600c546040518060400160405280600e81526020017f746f6b656e73426f72726f776564000000000000000000000000000000000000815250611b2f565b1561469c578360045f8773ffffffffffffffffffffffffffffffffffffffff1673ffffffffffffffffffffffffffffffffffffffff1681526020019081526020015f205f8373ffffffffffffffffffffffffffffffffffffffff1673ffffffffffffffffffffffffffffffffffffffff1681526020019081526020015f205f82825461469091906152cc565b925050819055506147b9565b8460065f600c5f8154809291906146b29061575e565b9190505581526020019081526020015f205f8373ffffffffffffffffffffffffffffffffffffffff1673ffffffffffffffffffffffffffffffffffffffff1681526020019081526020015f205f6101000a81548173ffffffffffffffffffffffffffffffffffffffff021916908373ffffffffffffffffffffffffffffffffffffffff1602179055508360045f8773ffffffffffffffffffffffffffffffffffffffff1673ffffffffffffffffffffffffffffffffffffffff1681526020019081526020015f205f8373ffffffffffffffffffffffffffffffffffffffff1673ffffffffffffffffffffffffffffffffffffffff1681526020019081526020015f20819055505b505b5b50505050565b6147ca614995565b73ffffffffffffffffffffffffffffffffffffffff166147e861244e565b73ffffffffffffffffffffffffffffffffffffffff16146148475761480b614995565b6040517f118cdaa700000000000000000000000000000000000000000000000000000000815260040161483e91906150be565b60405180910390fd5b565b5f805f9054906101000a900473ffffffffffffffffffffffffffffffffffffffff169050815f806101000a81548173ffffffffffffffffffffffffffffffffffffffff021916908373ffffffffffffffffffffffffffffffffffffffff1602179055508173ffffffffffffffffffffffffffffffffffffffff168173ffffffffffffffffffffffffffffffffffffffff167f8be0079c531659141344cd1fd0a4f28419497f9722a3daafe3b4186f6b6457e060405160405180910390a35050565b5f808251111561498b575f5b825181101561498957835f015173ffffffffffffffffffffffffffffffffffffffff1683828151811061494c5761494b615272565b5b60200260200101515f015173ffffffffffffffffffffffffffffffffffffffff160361497c57600191505061498f565b8080600101915050614916565b505b5f90505b92915050565b5f33905090565b60405180608001604052805f73ffffffffffffffffffffffffffffffffffffffff1681526020015f81526020015f8152602001606081525090565b5f604051905090565b5f80fd5b5f80fd5b5f73ffffffffffffffffffffffffffffffffffffffff82169050919050565b5f614a11826149e8565b9050919050565b614a2181614a07565b8114614a2b575f80fd5b50565b5f81359050614a3c81614a18565b92915050565b5f60208284031215614a5757614a566149e0565b5b5f614a6484828501614a2e565b91505092915050565b5f819050919050565b614a7f81614a6d565b82525050565b5f602082019050614a985f830184614a76565b92915050565b614aa781614a6d565b8114614ab1575f80fd5b50565b5f81359050614ac281614a9e565b92915050565b5f60208284031215614add57614adc6149e0565b5b5f614aea84828501614ab4565b91505092915050565b614afc81614a07565b82525050565b5f81519050919050565b5f82825260208201905092915050565b8281835e5f83830152505050565b5f601f19601f8301169050919050565b5f614b4482614b02565b614b4e8185614b0c565b9350614b5e818560208601614b1c565b614b6781614b2a565b840191505092915050565b5f608082019050614b855f830187614af3565b614b926020830186614a76565b614b9f6040830185614a76565b8181036060830152614bb18184614b3a565b905095945050505050565b5f8060408385031215614bd257614bd16149e0565b5b5f614bdf85828601614a2e565b9250506020614bf085828601614ab4565b9150509250929050565b5f81519050919050565b5f82825260208201905092915050565b5f819050602082019050919050565b614c2c81614a07565b82525050565b614c3b81614a6d565b82525050565b5f82825260208201905092915050565b5f614c5b82614b02565b614c658185614c41565b9350614c75818560208601614b1c565b614c7e81614b2a565b840191505092915050565b5f608083015f830151614c9e5f860182614c23565b506020830151614cb16020860182614c32565b506040830151614cc46040860182614c32565b5060608301518482036060860152614cdc8282614c51565b9150508091505092915050565b5f614cf48383614c89565b905092915050565b5f602082019050919050565b5f614d1282614bfa565b614d1c8185614c04565b935083602082028501614d2e85614c14565b805f5b85811015614d695784840389528151614d4a8582614ce9565b9450614d5583614cfc565b925060208a01995050600181019050614d31565b50829750879550505050505092915050565b5f6020820190508181035f830152614d938184614d08565b905092915050565b5f8060408385031215614db157614db06149e0565b5b5f614dbe85828601614a2e565b9250506020614dcf85828601614a2e565b9150509250929050565b5f81519050919050565b5f82825260208201905092915050565b5f819050602082019050919050565b5f614e0d8383614c23565b60208301905092915050565b5f602082019050919050565b5f614e2f82614dd9565b614e398185614de3565b9350614e4483614df3565b805f5b83811015614e74578151614e5b8882614e02565b9750614e6683614e19565b925050600181019050614e47565b5085935050505092915050565b5f6020820190508181035f830152614e998184614e25565b905092915050565b5f8060408385031215614eb757614eb66149e0565b5b5f614ec485828601614ab4565b9250506020614ed585828601614a2e565b9150509250929050565b5f80fd5b5f80fd5b7f4e487b71000000000000000000000000000000000000000000000000000000005f52604160045260245ffd5b614f1d82614b2a565b810181811067ffffffffffffffff82111715614f3c57614f3b614ee7565b5b80604052505050565b5f614f4e6149d7565b9050614f5a8282614f14565b919050565b5f67ffffffffffffffff821115614f7957614f78614ee7565b5b614f8282614b2a565b9050602081019050919050565b828183375f83830152505050565b5f614faf614faa84614f5f565b614f45565b905082815260208101848484011115614fcb57614fca614ee3565b5b614fd6848285614f8f565b509392505050565b5f82601f830112614ff257614ff1614edf565b5b8135615002848260208601614f9d565b91505092915050565b5f805f8060808587031215615023576150226149e0565b5b5f61503087828801614a2e565b945050602061504187828801614a2e565b935050604061505287828801614ab4565b925050606085013567ffffffffffffffff811115615073576150726149e4565b5b61507f87828801614fde565b91505092959194509250565b5f8115159050919050565b61509f8161508b565b82525050565b5f6020820190506150b85f830184615096565b92915050565b5f6020820190506150d15f830184614af3565b92915050565b5f805f80608085870312156150ef576150ee6149e0565b5b5f85013567ffffffffffffffff81111561510c5761510b6149e4565b5b61511887828801614fde565b945050602061512987828801614a2e565b935050604061513a87828801614ab4565b925050606061514b87828801614ab4565b91505092959194509250565b5f608083015f83015161516c5f860182614c23565b50602083015161517f6020860182614c32565b5060408301516151926040860182614c32565b50606083015184820360608601526151aa8282614c51565b9150508091505092915050565b5f6020820190508181035f8301526151cf8184615157565b905092915050565b5f6040820190506151ea5f830185614a76565b6151f76020830184614a76565b9392505050565b5f819050919050565b5f61522161521c615217846149e8565b6151fe565b6149e8565b9050919050565b5f61523282615207565b9050919050565b5f61524382615228565b9050919050565b61525381615239565b82525050565b5f60208201905061526c5f83018461524a565b92915050565b7f4e487b71000000000000000000000000000000000000000000000000000000005f52603260045260245ffd5b7f4e487b71000000000000000000000000000000000000000000000000000000005f52601160045260245ffd5b5f6152d682614a6d565b91506152e183614a6d565b92508282019050808211156152f9576152f861529f565b5b92915050565b7f4e487b71000000000000000000000000000000000000000000000000000000005f52602260045260245ffd5b5f600282049050600182168061534357607f821691505b602082108103615356576153556152ff565b5b50919050565b5f61536682614a6d565b915061537183614a6d565b925082820261537f81614a6d565b915082820484148315176153965761539561529f565b5b5092915050565b7f4e487b71000000000000000000000000000000000000000000000000000000005f52601260045260245ffd5b5f6153d482614a6d565b91506153df83614a6d565b9250826153ef576153ee61539d565b5b828204905092915050565b5f819050919050565b61540c816153fa565b82525050565b5f6040820190506154255f830185614af3565b6154326020830184615403565b9392505050565b5f60408201905061544c5f830185614af3565b6154596020830184614a76565b9392505050565b5f6060820190506154735f830186614af3565b6154806020830185614af3565b61548d6040830184614a76565b949350505050565b61549e8161508b565b81146154a8575f80fd5b50565b5f815190506154b981615495565b92915050565b5f602082840312156154d4576154d36149e0565b5b5f6154e1848285016154ab565b91505092915050565b5f6154f482614a6d565b91506154ff83614a6d565b92508282039050818111156155175761551661529f565b5b92915050565b7f4e487b71000000000000000000000000000000000000000000000000000000005f52603160045260245ffd5b5f81549050919050565b5f819050815f5260205f209050919050565b5f815f1c9050919050565b5f73ffffffffffffffffffffffffffffffffffffffff82169050919050565b5f6155a261559d83615566565b615571565b9050919050565b5f6155b48254615590565b9050919050565b5f600182019050919050565b5f6155d18261554a565b6155db8185614de3565b93506155e683615554565b805f5b8381101561561d576155fa826155a9565b6156048882614e02565b975061560f836155bb565b9250506001810190506155e9565b5085935050505092915050565b5f60a08201905061563d5f830188614af3565b61564a6020830187615403565b6156576040830186614a76565b6156646060830185614a76565b818103608083015261567681846155c7565b90509695505050505050565b5f6060820190506156955f830186614af3565b6156a26020830185614a76565b6156af6040830184614a76565b949350505050565b5f815190506156c581614a9e565b92915050565b5f602082840312156156e0576156df6149e0565b5b5f6156ed848285016156b7565b91505092915050565b7f496e73756666696369656e7420546f6b656e00000000000000000000000000005f82015250565b5f61572a601283614b0c565b9150615735826156f6565b602082019050919050565b5f6020820190508181035f8301526157578161571e565b9050919050565b5f61576882614a6d565b91507fffffffffffffffffffffffffffffffffffffffffffffffffffffffffffffffff820361579a5761579961529f565b5b600182019050919050565b5f60e0820190506157b85f83018a614af3565b6157c56020830189614a76565b6157d26040830188614a76565b6157df6060830187615096565b6157ec6080830186615403565b81810360a08301526157fe81856155c7565b905061580d60c0830184614a76565b98975050505050505050565b5f81905092915050565b7f746f6b656e734c656e74000000000000000000000000000000000000000000005f82015250565b5f615857600a83615819565b915061586282615823565b600a82019050919050565b5f6158778261584b565b9150819050919050565b5f61588b82614b02565b6158958185615819565b93506158a5818560208601614b1c565b80840191505092915050565b5f6158bc8284615881565b915081905092915050565b7f746f6b656e73426f72726f7765640000000000000000000000000000000000005f82015250565b5f6158fb600e83615819565b9150615906826158c7565b600e82019050919050565b5f61591b826158ef565b9150819050919050565b5f6060820190506159385f830186614af3565b818103602083015261594a81856155c7565b90506159596040830184614a76565b949350505050565b5f819050815f5260205f209050919050565b5f6020601f8301049050919050565b5f82821b905092915050565b5f600883026159bd7fffffffffffffffffffffffffffffffffffffffffffffffffffffffffffffffff82615982565b6159c78683615982565b95508019841693508086168417925050509392505050565b5f6159f96159f46159ef84614a6d565b6151fe565b614a6d565b9050919050565b5f819050919050565b615a12836159df565b615a26615a1e82615a00565b84845461598e565b825550505050565b5f90565b615a3a615a2e565b615a45818484615a09565b505050565b5b81811015615a6857615a5d5f82615a32565b600181019050615a4b565b5050565b601f821115615aad57615a7e81615961565b615a8784615973565b81016020851015615a96578190505b615aaa615aa285615973565b830182615a4a565b50505b505050565b5f82821c905092915050565b5f615acd5f1984600802615ab2565b1980831691505092915050565b5f615ae58383615abe565b9150826002028217905092915050565b615afe82614b02565b67ffffffffffffffff811115615b1757615b16614ee7565b5b615b21825461532c565b615b2c828285615a6c565b5f60209050601f831160018114615b5d575f8415615b4b578287015190505b615b558582615ada565b865550615bbc565b601f198416615b6b86615961565b5f5b82811015615b9257848901518255600182019150602085019450602081019050615b6d565b86831015615baf5784890151615bab601f891682615abe565b8355505b6001600288020188555050505b505050505050565b5f60c082019050615bd75f830189614af3565b615be46020830188614a76565b615bf16040830187614a76565b615bfe6060830186614a76565b615c0b6080830185614a76565b615c1860a0830184614a76565b979650505050505050565b5f8160011c9050919050565b5f808291508390505b6001851115615c7857808604811115615c5457615c5361529f565b5b6001851615615c635780820291505b8081029050615c7185615c23565b9450615c38565b94509492505050565b5f82615c905760019050615d4b565b81615c9d575f9050615d4b565b8160018114615cb35760028114615cbd57615cec565b6001915050615d4b565b60ff841115615ccf57615cce61529f565b5b8360020a915084821115615ce657615ce561529f565b5b50615d4b565b5060208310610133831016604e8410600b8410161715615d215782820a905083811115615d1c57615d1b61529f565b5b615d4b565b615d2e8484846001615c2f565b92509050818404811115615d4557615d4461529f565b5b81810290505b9392505050565b5f615d5c82614a6d565b9150615d6783614a6d565b9250615d947fffffffffffffffffffffffffffffffffffffffffffffffffffffffffffffffff8484615c81565b905092915050565b5f69ffffffffffffffffffff82169050919050565b615dba81615d9c565b8114615dc4575f80fd5b50565b5f81519050615dd581615db1565b92915050565b615de4816153fa565b8114615dee575f80fd5b50565b5f81519050615dff81615ddb565b92915050565b5f805f805f60a08688031215615e1e57615e1d6149e0565b5b5f615e2b88828901615dc7565b9550506020615e3c88828901615df1565b9450506040615e4d888289016156b7565b9350506060615e5e888289016156b7565b9250506080615e6f88828901615dc7565b9150509295509295909350565b5f60ff82169050919050565b615e9181615e7c565b8114615e9b575f80fd5b50565b5f81519050615eac81615e88565b92915050565b5f60208284031215615ec757615ec66149e0565b5b5f615ed484828501615e9e565b91505092915050565b7f6c656e64657273000000000000000000000000000000000000000000000000005f82015250565b5f615f11600783615819565b9150615f1c82615edd565b600782019050919050565b5f615f3182615f05565b9150819050919050565b7f626f72726f7765727300000000000000000000000000000000000000000000005f82015250565b5f615f6f600983615819565b9150615f7a82615f3b565b600982019050919050565b5f615f8f82615f63565b915081905091905056fea264697066735822122014989521c87c0f56413cc837ee63957ba362ea5689b36872dec3bd007247520c64736f6c634300081a0033",
			"opcodes": "PUSH1 0x80 PUSH1 0x40 MSTORE PUSH0 PUSH1 0xB SSTORE PUSH0 PUSH1 0xC SSTORE CALLVALUE DUP1 ISZERO PUSH2 0x17 JUMPI PUSH0 DUP1 REVERT JUMPDEST POP PUSH1 0x40 MLOAD PUSH2 0x624E CODESIZE SUB DUP1 PUSH2 0x624E DUP4 CODECOPY DUP2 DUP2 ADD PUSH1 0x40 MSTORE DUP2 ADD SWAP1 PUSH2 0x39 SWAP2 SWAP1 PUSH2 0x21F JUMP JUMPDEST CALLER PUSH0 PUSH20 0xFFFFFFFFFFFFFFFFFFFFFFFFFFFFFFFFFFFFFFFF AND DUP2 PUSH20 0xFFFFFFFFFFFFFFFFFFFFFFFFFFFFFFFFFFFFFFFF AND SUB PUSH2 0xAA JUMPI PUSH0 PUSH1 0x40 MLOAD PUSH32 0x1E4FBDF700000000000000000000000000000000000000000000000000000000 DUP2 MSTORE PUSH1 0x4 ADD PUSH2 0xA1 SWAP2 SWAP1 PUSH2 0x259 JUMP JUMPDEST PUSH1 0x40 MLOAD DUP1 SWAP2 SUB SWAP1 REVERT JUMPDEST PUSH2 0xB9 DUP2 PUSH2 0x100 PUSH1 0x20 SHL PUSH1 0x20 SHR JUMP JUMPDEST POP DUP1 PUSH1 0xA PUSH0 PUSH2 0x100 EXP DUP2 SLOAD DUP2 PUSH20 0xFFFFFFFFFFFFFFFFFFFFFFFFFFFFFFFFFFFFFFFF MUL NOT AND SWAP1 DUP4 PUSH20 0xFFFFFFFFFFFFFFFFFFFFFFFFFFFFFFFFFFFFFFFF AND MUL OR SWAP1 SSTORE POP POP PUSH2 0x272 JUMP JUMPDEST PUSH0 DUP1 PUSH0 SWAP1 SLOAD SWAP1 PUSH2 0x100 EXP SWAP1 DIV PUSH20 0xFFFFFFFFFFFFFFFFFFFFFFFFFFFFFFFFFFFFFFFF AND SWAP1 POP DUP2 PUSH0 DUP1 PUSH2 0x100 EXP DUP2 SLOAD DUP2 PUSH20 0xFFFFFFFFFFFFFFFFFFFFFFFFFFFFFFFFFFFFFFFF MUL NOT AND SWAP1 DUP4 PUSH20 0xFFFFFFFFFFFFFFFFFFFFFFFFFFFFFFFFFFFFFFFF AND MUL OR SWAP1 SSTORE POP DUP2 PUSH20 0xFFFFFFFFFFFFFFFFFFFFFFFFFFFFFFFFFFFFFFFF AND DUP2 PUSH20 0xFFFFFFFFFFFFFFFFFFFFFFFFFFFFFFFFFFFFFFFF AND PUSH32 0x8BE0079C531659141344CD1FD0A4F28419497F9722A3DAAFE3B4186F6B6457E0 PUSH1 0x40 MLOAD PUSH1 0x40 MLOAD DUP1 SWAP2 SUB SWAP1 LOG3 POP POP JUMP JUMPDEST PUSH0 DUP1 REVERT JUMPDEST PUSH0 PUSH20 0xFFFFFFFFFFFFFFFFFFFFFFFFFFFFFFFFFFFFFFFF DUP3 AND SWAP1 POP SWAP2 SWAP1 POP JUMP JUMPDEST PUSH0 PUSH2 0x1EE DUP3 PUSH2 0x1C5 JUMP JUMPDEST SWAP1 POP SWAP2 SWAP1 POP JUMP JUMPDEST PUSH2 0x1FE DUP2 PUSH2 0x1E4 JUMP JUMPDEST DUP2 EQ PUSH2 0x208 JUMPI PUSH0 DUP1 REVERT JUMPDEST POP JUMP JUMPDEST PUSH0 DUP2 MLOAD SWAP1 POP PUSH2 0x219 DUP2 PUSH2 0x1F5 JUMP JUMPDEST SWAP3 SWAP2 POP POP JUMP JUMPDEST PUSH0 PUSH1 0x20 DUP3 DUP5 SUB SLT ISZERO PUSH2 0x234 JUMPI PUSH2 0x233 PUSH2 0x1C1 JUMP JUMPDEST JUMPDEST PUSH0 PUSH2 0x241 DUP5 DUP3 DUP6 ADD PUSH2 0x20B JUMP JUMPDEST SWAP2 POP POP SWAP3 SWAP2 POP POP JUMP JUMPDEST PUSH2 0x253 DUP2 PUSH2 0x1E4 JUMP JUMPDEST DUP3 MSTORE POP POP JUMP JUMPDEST PUSH0 PUSH1 0x20 DUP3 ADD SWAP1 POP PUSH2 0x26C PUSH0 DUP4 ADD DUP5 PUSH2 0x24A JUMP JUMPDEST SWAP3 SWAP2 POP POP JUMP JUMPDEST PUSH2 0x5FCF DUP1 PUSH2 0x27F PUSH0 CODECOPY PUSH0 RETURN INVALID PUSH1 0x80 PUSH1 0x40 MSTORE PUSH1 0x4 CALLDATASIZE LT PUSH2 0x224 JUMPI PUSH0 CALLDATALOAD PUSH1 0xE0 SHR DUP1 PUSH4 0x8DA5CB5B GT PUSH2 0x122 JUMPI DUP1 PUSH4 0xC4543B67 GT PUSH2 0xAA JUMPI DUP1 PUSH4 0xFB24AF7F GT PUSH2 0x6E JUMPI DUP1 PUSH4 0xFB24AF7F EQ PUSH2 0x8AE JUMPI DUP1 PUSH4 0xFC757B88 EQ PUSH2 0x8EA JUMPI DUP1 PUSH4 0xFDC8070E EQ PUSH2 0x926 JUMPI DUP1 PUSH4 0xFE726F80 EQ PUSH2 0x963 JUMPI DUP1 PUSH4 0xFF2F4465 EQ PUSH2 0x98D JUMPI PUSH2 0x224 JUMP JUMPDEST DUP1 PUSH4 0xC4543B67 EQ PUSH2 0x7D0 JUMPI DUP1 PUSH4 0xCD927409 EQ PUSH2 0x7F8 JUMPI DUP1 PUSH4 0xD7A9A25C EQ PUSH2 0x834 JUMPI DUP1 PUSH4 0xF2FDE38B EQ PUSH2 0x85E JUMPI DUP1 PUSH4 0xF3FEF3A3 EQ PUSH2 0x886 JUMPI PUSH2 0x224 JUMP JUMPDEST DUP1 PUSH4 0xA8B74152 GT PUSH2 0xF1 JUMPI DUP1 PUSH4 0xA8B74152 EQ PUSH2 0x6CA JUMPI DUP1 PUSH4 0xAAC0BF96 EQ PUSH2 0x706 JUMPI DUP1 PUSH4 0xAB56EE66 EQ PUSH2 0x742 JUMPI DUP1 PUSH4 0xB3D16F8D EQ PUSH2 0x77E JUMPI DUP1 PUSH4 0xB9F09BB8 EQ PUSH2 0x7A6 JUMPI PUSH2 0x224 JUMP JUMPDEST DUP1 PUSH4 0x8DA5CB5B EQ PUSH2 0x60C JUMPI DUP1 PUSH4 0x929EEA21 EQ PUSH2 0x636 JUMPI DUP1 PUSH4 0xA2FB342D EQ PUSH2 0x672 JUMPI DUP1 PUSH4 0xA7772B97 EQ PUSH2 0x68E JUMPI PUSH2 0x224 JUMP JUMPDEST DUP1 PUSH4 0x4B3FD148 GT PUSH2 0x1B0 JUMPI DUP1 PUSH4 0x74FD0CE0 GT PUSH2 0x174 JUMPI DUP1 PUSH4 0x74FD0CE0 EQ PUSH2 0x4F2 JUMPI DUP1 PUSH4 0x7924D93F EQ PUSH2 0x52E JUMPI DUP1 PUSH4 0x7B9EC997 EQ PUSH2 0x56A JUMPI DUP1 PUSH4 0x8078F22C EQ PUSH2 0x5A6 JUMPI DUP1 PUSH4 0x8CF1806B EQ PUSH2 0x5E2 JUMPI PUSH2 0x224 JUMP JUMPDEST DUP1 PUSH4 0x4B3FD148 EQ PUSH2 0x412 JUMPI DUP1 PUSH4 0x4FA9F5A4 EQ PUSH2 0x43A JUMPI DUP1 PUSH4 0x541D8338 EQ PUSH2 0x476 JUMPI DUP1 PUSH4 0x6352B568 EQ PUSH2 0x4A0 JUMPI DUP1 PUSH4 0x715018A6 EQ PUSH2 0x4DC JUMPI PUSH2 0x224 JUMP JUMPDEST DUP1 PUSH4 0x1818DD0B GT PUSH2 0x1F7 JUMPI DUP1 PUSH4 0x1818DD0B EQ PUSH2 0x31B JUMPI DUP1 PUSH4 0x1C9E5224 EQ PUSH2 0x343 JUMPI DUP1 PUSH4 0x27E8E184 EQ PUSH2 0x36D JUMPI DUP1 PUSH4 0x3C9D5093 EQ PUSH2 0x3A9 JUMPI DUP1 PUSH4 0x447007FD EQ PUSH2 0x3D3 JUMPI PUSH2 0x224 JUMP JUMPDEST DUP1 PUSH4 0x6254C6A EQ PUSH2 0x228 JUMPI DUP1 PUSH4 0x8AE7FC2 EQ PUSH2 0x264 JUMPI DUP1 PUSH4 0x11F4F5D3 EQ PUSH2 0x2A3 JUMPI DUP1 PUSH4 0x1419F093 EQ PUSH2 0x2DF JUMPI JUMPDEST PUSH0 DUP1 REVERT JUMPDEST CALLVALUE DUP1 ISZERO PUSH2 0x233 JUMPI PUSH0 DUP1 REVERT JUMPDEST POP PUSH2 0x24E PUSH1 0x4 DUP1 CALLDATASIZE SUB DUP2 ADD SWAP1 PUSH2 0x249 SWAP2 SWAP1 PUSH2 0x4A42 JUMP JUMPDEST PUSH2 0x9B5 JUMP JUMPDEST PUSH1 0x40 MLOAD PUSH2 0x25B SWAP2 SWAP1 PUSH2 0x4A85 JUMP JUMPDEST PUSH1 0x40 MLOAD DUP1 SWAP2 SUB SWAP1 RETURN JUMPDEST CALLVALUE DUP1 ISZERO PUSH2 0x26F JUMPI PUSH0 DUP1 REVERT JUMPDEST POP PUSH2 0x28A PUSH1 0x4 DUP1 CALLDATASIZE SUB DUP2 ADD SWAP1 PUSH2 0x285 SWAP2 SWAP1 PUSH2 0x4AC8 JUMP JUMPDEST PUSH2 0xAAF JUMP JUMPDEST PUSH1 0x40 MLOAD PUSH2 0x29A SWAP5 SWAP4 SWAP3 SWAP2 SWAP1 PUSH2 0x4B72 JUMP JUMPDEST PUSH1 0x40 MLOAD DUP1 SWAP2 SUB SWAP1 RETURN JUMPDEST CALLVALUE DUP1 ISZERO PUSH2 0x2AE JUMPI PUSH0 DUP1 REVERT JUMPDEST POP PUSH2 0x2C9 PUSH1 0x4 DUP1 CALLDATASIZE SUB DUP2 ADD SWAP1 PUSH2 0x2C4 SWAP2 SWAP1 PUSH2 0x4BBC JUMP JUMPDEST PUSH2 0xB8F JUMP JUMPDEST PUSH1 0x40 MLOAD PUSH2 0x2D6 SWAP2 SWAP1 PUSH2 0x4A85 JUMP JUMPDEST PUSH1 0x40 MLOAD DUP1 SWAP2 SUB SWAP1 RETURN JUMPDEST CALLVALUE DUP1 ISZERO PUSH2 0x2EA JUMPI PUSH0 DUP1 REVERT JUMPDEST POP PUSH2 0x305 PUSH1 0x4 DUP1 CALLDATASIZE SUB DUP2 ADD SWAP1 PUSH2 0x300 SWAP2 SWAP1 PUSH2 0x4A42 JUMP JUMPDEST PUSH2 0xBC3 JUMP JUMPDEST PUSH1 0x40 MLOAD PUSH2 0x312 SWAP2 SWAP1 PUSH2 0x4A85 JUMP JUMPDEST PUSH1 0x40 MLOAD DUP1 SWAP2 SUB SWAP1 RETURN JUMPDEST CALLVALUE DUP1 ISZERO PUSH2 0x326 JUMPI PUSH0 DUP1 REVERT JUMPDEST POP PUSH2 0x341 PUSH1 0x4 DUP1 CALLDATASIZE SUB DUP2 ADD SWAP1 PUSH2 0x33C SWAP2 SWAP1 PUSH2 0x4BBC JUMP JUMPDEST PUSH2 0xD23 JUMP JUMPDEST STOP JUMPDEST CALLVALUE DUP1 ISZERO PUSH2 0x34E JUMPI PUSH0 DUP1 REVERT JUMPDEST POP PUSH2 0x357 PUSH2 0x115B JUMP JUMPDEST PUSH1 0x40 MLOAD PUSH2 0x364 SWAP2 SWAP1 PUSH2 0x4D7B JUMP JUMPDEST PUSH1 0x40 MLOAD DUP1 SWAP2 SUB SWAP1 RETURN JUMPDEST CALLVALUE DUP1 ISZERO PUSH2 0x378 JUMPI PUSH0 DUP1 REVERT JUMPDEST POP PUSH2 0x393 PUSH1 0x4 DUP1 CALLDATASIZE SUB DUP2 ADD SWAP1 PUSH2 0x38E SWAP2 SWAP1 PUSH2 0x4D9B JUMP JUMPDEST PUSH2 0x12AF JUMP JUMPDEST PUSH1 0x40 MLOAD PUSH2 0x3A0 SWAP2 SWAP1 PUSH2 0x4A85 JUMP JUMPDEST PUSH1 0x40 MLOAD DUP1 SWAP2 SUB SWAP1 RETURN JUMPDEST CALLVALUE DUP1 ISZERO PUSH2 0x3B4 JUMPI PUSH0 DUP1 REVERT JUMPDEST POP PUSH2 0x3BD PUSH2 0x12CF JUMP JUMPDEST PUSH1 0x40 MLOAD PUSH2 0x3CA SWAP2 SWAP1 PUSH2 0x4E81 JUMP JUMPDEST PUSH1 0x40 MLOAD DUP1 SWAP2 SUB SWAP1 RETURN JUMPDEST CALLVALUE DUP1 ISZERO PUSH2 0x3DE JUMPI PUSH0 DUP1 REVERT JUMPDEST POP PUSH2 0x3F9 PUSH1 0x4 DUP1 CALLDATASIZE SUB DUP2 ADD SWAP1 PUSH2 0x3F4 SWAP2 SWAP1 PUSH2 0x4AC8 JUMP JUMPDEST PUSH2 0x135A JUMP JUMPDEST PUSH1 0x40 MLOAD PUSH2 0x409 SWAP5 SWAP4 SWAP3 SWAP2 SWAP1 PUSH2 0x4B72 JUMP JUMPDEST PUSH1 0x40 MLOAD DUP1 SWAP2 SUB SWAP1 RETURN JUMPDEST CALLVALUE DUP1 ISZERO PUSH2 0x41D JUMPI PUSH0 DUP1 REVERT JUMPDEST POP PUSH2 0x438 PUSH1 0x4 DUP1 CALLDATASIZE SUB DUP2 ADD SWAP1 PUSH2 0x433 SWAP2 SWAP1 PUSH2 0x4EA1 JUMP JUMPDEST PUSH2 0x143A JUMP JUMPDEST STOP JUMPDEST CALLVALUE DUP1 ISZERO PUSH2 0x445 JUMPI PUSH0 DUP1 REVERT JUMPDEST POP PUSH2 0x460 PUSH1 0x4 DUP1 CALLDATASIZE SUB DUP2 ADD SWAP1 PUSH2 0x45B SWAP2 SWAP1 PUSH2 0x500B JUMP JUMPDEST PUSH2 0x1B2F JUMP JUMPDEST PUSH1 0x40 MLOAD PUSH2 0x46D SWAP2 SWAP1 PUSH2 0x50A5 JUMP JUMPDEST PUSH1 0x40 MLOAD DUP1 SWAP2 SUB SWAP1 RETURN JUMPDEST CALLVALUE DUP1 ISZERO PUSH2 0x481 JUMPI PUSH0 DUP1 REVERT JUMPDEST POP PUSH2 0x48A PUSH2 0x1D7E JUMP JUMPDEST PUSH1 0x40 MLOAD PUSH2 0x497 SWAP2 SWAP1 PUSH2 0x4A85 JUMP JUMPDEST PUSH1 0x40 MLOAD DUP1 SWAP2 SUB SWAP1 RETURN JUMPDEST CALLVALUE DUP1 ISZERO PUSH2 0x4AB JUMPI PUSH0 DUP1 REVERT JUMPDEST POP PUSH2 0x4C6 PUSH1 0x4 DUP1 CALLDATASIZE SUB DUP2 ADD SWAP1 PUSH2 0x4C1 SWAP2 SWAP1 PUSH2 0x4A42 JUMP JUMPDEST PUSH2 0x1D84 JUMP JUMPDEST PUSH1 0x40 MLOAD PUSH2 0x4D3 SWAP2 SWAP1 PUSH2 0x4A85 JUMP JUMPDEST PUSH1 0x40 MLOAD DUP1 SWAP2 SUB SWAP1 RETURN JUMPDEST CALLVALUE DUP1 ISZERO PUSH2 0x4E7 JUMPI PUSH0 DUP1 REVERT JUMPDEST POP PUSH2 0x4F0 PUSH2 0x1DDE JUMP JUMPDEST STOP JUMPDEST CALLVALUE DUP1 ISZERO PUSH2 0x4FD JUMPI PUSH0 DUP1 REVERT JUMPDEST POP PUSH2 0x518 PUSH1 0x4 DUP1 CALLDATASIZE SUB DUP2 ADD SWAP1 PUSH2 0x513 SWAP2 SWAP1 PUSH2 0x4EA1 JUMP JUMPDEST PUSH2 0x1DF1 JUMP JUMPDEST PUSH1 0x40 MLOAD PUSH2 0x525 SWAP2 SWAP1 PUSH2 0x50BE JUMP JUMPDEST PUSH1 0x40 MLOAD DUP1 SWAP2 SUB SWAP1 RETURN JUMPDEST CALLVALUE DUP1 ISZERO PUSH2 0x539 JUMPI PUSH0 DUP1 REVERT JUMPDEST POP PUSH2 0x554 PUSH1 0x4 DUP1 CALLDATASIZE SUB DUP2 ADD SWAP1 PUSH2 0x54F SWAP2 SWAP1 PUSH2 0x4AC8 JUMP JUMPDEST PUSH2 0x1E2E JUMP JUMPDEST PUSH1 0x40 MLOAD PUSH2 0x561 SWAP2 SWAP1 PUSH2 0x50BE JUMP JUMPDEST PUSH1 0x40 MLOAD DUP1 SWAP2 SUB SWAP1 RETURN JUMPDEST CALLVALUE DUP1 ISZERO PUSH2 0x575 JUMPI PUSH0 DUP1 REVERT JUMPDEST POP PUSH2 0x590 PUSH1 0x4 DUP1 CALLDATASIZE SUB DUP2 ADD SWAP1 PUSH2 0x58B SWAP2 SWAP1 PUSH2 0x4A42 JUMP JUMPDEST PUSH2 0x1E69 JUMP JUMPDEST PUSH1 0x40 MLOAD PUSH2 0x59D SWAP2 SWAP1 PUSH2 0x4A85 JUMP JUMPDEST PUSH1 0x40 MLOAD DUP1 SWAP2 SUB SWAP1 RETURN JUMPDEST CALLVALUE DUP1 ISZERO PUSH2 0x5B1 JUMPI PUSH0 DUP1 REVERT JUMPDEST POP PUSH2 0x5CC PUSH1 0x4 DUP1 CALLDATASIZE SUB DUP2 ADD SWAP1 PUSH2 0x5C7 SWAP2 SWAP1 PUSH2 0x4A42 JUMP JUMPDEST PUSH2 0x2393 JUMP JUMPDEST PUSH1 0x40 MLOAD PUSH2 0x5D9 SWAP2 SWAP1 PUSH2 0x50BE JUMP JUMPDEST PUSH1 0x40 MLOAD DUP1 SWAP2 SUB SWAP1 RETURN JUMPDEST CALLVALUE DUP1 ISZERO PUSH2 0x5ED JUMPI PUSH0 DUP1 REVERT JUMPDEST POP PUSH2 0x5F6 PUSH2 0x23C3 JUMP JUMPDEST PUSH1 0x40 MLOAD PUSH2 0x603 SWAP2 SWAP1 PUSH2 0x4E81 JUMP JUMPDEST PUSH1 0x40 MLOAD DUP1 SWAP2 SUB SWAP1 RETURN JUMPDEST CALLVALUE DUP1 ISZERO PUSH2 0x617 JUMPI PUSH0 DUP1 REVERT JUMPDEST POP PUSH2 0x620 PUSH2 0x244E JUMP JUMPDEST PUSH1 0x40 MLOAD PUSH2 0x62D SWAP2 SWAP1 PUSH2 0x50BE JUMP JUMPDEST PUSH1 0x40 MLOAD DUP1 SWAP2 SUB SWAP1 RETURN JUMPDEST CALLVALUE DUP1 ISZERO PUSH2 0x641 JUMPI PUSH0 DUP1 REVERT JUMPDEST POP PUSH2 0x65C PUSH1 0x4 DUP1 CALLDATASIZE SUB DUP2 ADD SWAP1 PUSH2 0x657 SWAP2 SWAP1 PUSH2 0x4AC8 JUMP JUMPDEST PUSH2 0x2475 JUMP JUMPDEST PUSH1 0x40 MLOAD PUSH2 0x669 SWAP2 SWAP1 PUSH2 0x50BE JUMP JUMPDEST PUSH1 0x40 MLOAD DUP1 SWAP2 SUB SWAP1 RETURN JUMPDEST PUSH2 0x68C PUSH1 0x4 DUP1 CALLDATASIZE SUB DUP2 ADD SWAP1 PUSH2 0x687 SWAP2 SWAP1 PUSH2 0x4BBC JUMP JUMPDEST PUSH2 0x24B0 JUMP JUMPDEST STOP JUMPDEST CALLVALUE DUP1 ISZERO PUSH2 0x699 JUMPI PUSH0 DUP1 REVERT JUMPDEST POP PUSH2 0x6B4 PUSH1 0x4 DUP1 CALLDATASIZE SUB DUP2 ADD SWAP1 PUSH2 0x6AF SWAP2 SWAP1 PUSH2 0x4A42 JUMP JUMPDEST PUSH2 0x2AFA JUMP JUMPDEST PUSH1 0x40 MLOAD PUSH2 0x6C1 SWAP2 SWAP1 PUSH2 0x4A85 JUMP JUMPDEST PUSH1 0x40 MLOAD DUP1 SWAP2 SUB SWAP1 RETURN JUMPDEST CALLVALUE DUP1 ISZERO PUSH2 0x6D5 JUMPI PUSH0 DUP1 REVERT JUMPDEST POP PUSH2 0x6F0 PUSH1 0x4 DUP1 CALLDATASIZE SUB DUP2 ADD SWAP1 PUSH2 0x6EB SWAP2 SWAP1 PUSH2 0x4D9B JUMP JUMPDEST PUSH2 0x2D30 JUMP JUMPDEST PUSH1 0x40 MLOAD PUSH2 0x6FD SWAP2 SWAP1 PUSH2 0x4A85 JUMP JUMPDEST PUSH1 0x40 MLOAD DUP1 SWAP2 SUB SWAP1 RETURN JUMPDEST CALLVALUE DUP1 ISZERO PUSH2 0x711 JUMPI PUSH0 DUP1 REVERT JUMPDEST POP PUSH2 0x72C PUSH1 0x4 DUP1 CALLDATASIZE SUB DUP2 ADD SWAP1 PUSH2 0x727 SWAP2 SWAP1 PUSH2 0x4A42 JUMP JUMPDEST PUSH2 0x2D50 JUMP JUMPDEST PUSH1 0x40 MLOAD PUSH2 0x739 SWAP2 SWAP1 PUSH2 0x4A85 JUMP JUMPDEST PUSH1 0x40 MLOAD DUP1 SWAP2 SUB SWAP1 RETURN JUMPDEST CALLVALUE DUP1 ISZERO PUSH2 0x74D JUMPI PUSH0 DUP1 REVERT JUMPDEST POP PUSH2 0x768 PUSH1 0x4 DUP1 CALLDATASIZE SUB DUP2 ADD SWAP1 PUSH2 0x763 SWAP2 SWAP1 PUSH2 0x4A42 JUMP JUMPDEST PUSH2 0x2EDA JUMP JUMPDEST PUSH1 0x40 MLOAD PUSH2 0x775 SWAP2 SWAP1 PUSH2 0x4A85 JUMP JUMPDEST PUSH1 0x40 MLOAD DUP1 SWAP2 SUB SWAP1 RETURN JUMPDEST CALLVALUE DUP1 ISZERO PUSH2 0x789 JUMPI PUSH0 DUP1 REVERT JUMPDEST POP PUSH2 0x7A4 PUSH1 0x4 DUP1 CALLDATASIZE SUB DUP2 ADD SWAP1 PUSH2 0x79F SWAP2 SWAP1 PUSH2 0x4D9B JUMP JUMPDEST PUSH2 0x2FD4 JUMP JUMPDEST STOP JUMPDEST CALLVALUE DUP1 ISZERO PUSH2 0x7B1 JUMPI PUSH0 DUP1 REVERT JUMPDEST POP PUSH2 0x7BA PUSH2 0x305B JUMP JUMPDEST PUSH1 0x40 MLOAD PUSH2 0x7C7 SWAP2 SWAP1 PUSH2 0x4A85 JUMP JUMPDEST PUSH1 0x40 MLOAD DUP1 SWAP2 SUB SWAP1 RETURN JUMPDEST CALLVALUE DUP1 ISZERO PUSH2 0x7DB JUMPI PUSH0 DUP1 REVERT JUMPDEST POP PUSH2 0x7F6 PUSH1 0x4 DUP1 CALLDATASIZE SUB DUP2 ADD SWAP1 PUSH2 0x7F1 SWAP2 SWAP1 PUSH2 0x50D7 JUMP JUMPDEST PUSH2 0x3061 JUMP JUMPDEST STOP JUMPDEST CALLVALUE DUP1 ISZERO PUSH2 0x803 JUMPI PUSH0 DUP1 REVERT JUMPDEST POP PUSH2 0x81E PUSH1 0x4 DUP1 CALLDATASIZE SUB DUP2 ADD SWAP1 PUSH2 0x819 SWAP2 SWAP1 PUSH2 0x4EA1 JUMP JUMPDEST PUSH2 0x329E JUMP JUMPDEST PUSH1 0x40 MLOAD PUSH2 0x82B SWAP2 SWAP1 PUSH2 0x50BE JUMP JUMPDEST PUSH1 0x40 MLOAD DUP1 SWAP2 SUB SWAP1 RETURN JUMPDEST CALLVALUE DUP1 ISZERO PUSH2 0x83F JUMPI PUSH0 DUP1 REVERT JUMPDEST POP PUSH2 0x848 PUSH2 0x32DB JUMP JUMPDEST PUSH1 0x40 MLOAD PUSH2 0x855 SWAP2 SWAP1 PUSH2 0x4D7B JUMP JUMPDEST PUSH1 0x40 MLOAD DUP1 SWAP2 SUB SWAP1 RETURN JUMPDEST CALLVALUE DUP1 ISZERO PUSH2 0x869 JUMPI PUSH0 DUP1 REVERT JUMPDEST POP PUSH2 0x884 PUSH1 0x4 DUP1 CALLDATASIZE SUB DUP2 ADD SWAP1 PUSH2 0x87F SWAP2 SWAP1 PUSH2 0x4A42 JUMP JUMPDEST PUSH2 0x342F JUMP JUMPDEST STOP JUMPDEST CALLVALUE DUP1 ISZERO PUSH2 0x891 JUMPI PUSH0 DUP1 REVERT JUMPDEST POP PUSH2 0x8AC PUSH1 0x4 DUP1 CALLDATASIZE SUB DUP2 ADD SWAP1 PUSH2 0x8A7 SWAP2 SWAP1 PUSH2 0x4BBC JUMP JUMPDEST PUSH2 0x34B3 JUMP JUMPDEST STOP JUMPDEST CALLVALUE DUP1 ISZERO PUSH2 0x8B9 JUMPI PUSH0 DUP1 REVERT JUMPDEST POP PUSH2 0x8D4 PUSH1 0x4 DUP1 CALLDATASIZE SUB DUP2 ADD SWAP1 PUSH2 0x8CF SWAP2 SWAP1 PUSH2 0x4EA1 JUMP JUMPDEST PUSH2 0x3AFD JUMP JUMPDEST PUSH1 0x40 MLOAD PUSH2 0x8E1 SWAP2 SWAP1 PUSH2 0x4A85 JUMP JUMPDEST PUSH1 0x40 MLOAD DUP1 SWAP2 SUB SWAP1 RETURN JUMPDEST CALLVALUE DUP1 ISZERO PUSH2 0x8F5 JUMPI PUSH0 DUP1 REVERT JUMPDEST POP PUSH2 0x910 PUSH1 0x4 DUP1 CALLDATASIZE SUB DUP2 ADD SWAP1 PUSH2 0x90B SWAP2 SWAP1 PUSH2 0x4A42 JUMP JUMPDEST PUSH2 0x3B3F JUMP JUMPDEST PUSH1 0x40 MLOAD PUSH2 0x91D SWAP2 SWAP1 PUSH2 0x51B7 JUMP JUMPDEST PUSH1 0x40 MLOAD DUP1 SWAP2 SUB SWAP1 RETURN JUMPDEST CALLVALUE DUP1 ISZERO PUSH2 0x931 JUMPI PUSH0 DUP1 REVERT JUMPDEST POP PUSH2 0x94C PUSH1 0x4 DUP1 CALLDATASIZE SUB DUP2 ADD SWAP1 PUSH2 0x947 SWAP2 SWAP1 PUSH2 0x4A42 JUMP JUMPDEST PUSH2 0x3D13 JUMP JUMPDEST PUSH1 0x40 MLOAD PUSH2 0x95A SWAP3 SWAP2 SWAP1 PUSH2 0x51D7 JUMP JUMPDEST PUSH1 0x40 MLOAD DUP1 SWAP2 SUB SWAP1 RETURN JUMPDEST CALLVALUE DUP1 ISZERO PUSH2 0x96E JUMPI PUSH0 DUP1 REVERT JUMPDEST POP PUSH2 0x977 PUSH2 0x3E6F JUMP JUMPDEST PUSH1 0x40 MLOAD PUSH2 0x984 SWAP2 SWAP1 PUSH2 0x5259 JUMP JUMPDEST PUSH1 0x40 MLOAD DUP1 SWAP2 SUB SWAP1 RETURN JUMPDEST CALLVALUE DUP1 ISZERO PUSH2 0x998 JUMPI PUSH0 DUP1 REVERT JUMPDEST POP PUSH2 0x9B3 PUSH1 0x4 DUP1 CALLDATASIZE SUB DUP2 ADD SWAP1 PUSH2 0x9AE SWAP2 SWAP1 PUSH2 0x50D7 JUMP JUMPDEST PUSH2 0x3E94 JUMP JUMPDEST STOP JUMPDEST PUSH0 DUP1 PUSH0 SWAP1 POP PUSH0 PUSH1 0x1 DUP1 SLOAD SWAP1 POP GT ISZERO PUSH2 0xAA6 JUMPI PUSH0 JUMPDEST PUSH1 0x1 DUP1 SLOAD SWAP1 POP DUP2 LT ISZERO PUSH2 0xAA4 JUMPI PUSH1 0x3 PUSH0 DUP6 PUSH20 0xFFFFFFFFFFFFFFFFFFFFFFFFFFFFFFFFFFFFFFFF AND PUSH20 0xFFFFFFFFFFFFFFFFFFFFFFFFFFFFFFFFFFFFFFFF AND DUP2 MSTORE PUSH1 0x20 ADD SWAP1 DUP2 MSTORE PUSH1 0x20 ADD PUSH0 KECCAK256 PUSH0 PUSH1 0x1 DUP4 DUP2 SLOAD DUP2 LT PUSH2 0xA28 JUMPI PUSH2 0xA27 PUSH2 0x5272 JUMP JUMPDEST JUMPDEST SWAP1 PUSH0 MSTORE PUSH1 0x20 PUSH0 KECCAK256 ADD PUSH0 SWAP1 SLOAD SWAP1 PUSH2 0x100 EXP SWAP1 DIV PUSH20 0xFFFFFFFFFFFFFFFFFFFFFFFFFFFFFFFFFFFFFFFF AND PUSH20 0xFFFFFFFFFFFFFFFFFFFFFFFFFFFFFFFFFFFFFFFF AND PUSH20 0xFFFFFFFFFFFFFFFFFFFFFFFFFFFFFFFFFFFFFFFF AND DUP2 MSTORE PUSH1 0x20 ADD SWAP1 DUP2 MSTORE PUSH1 0x20 ADD PUSH0 KECCAK256 SLOAD DUP3 PUSH2 0xA95 SWAP2 SWAP1 PUSH2 0x52CC JUMP JUMPDEST SWAP2 POP DUP1 DUP1 PUSH1 0x1 ADD SWAP2 POP POP PUSH2 0x9C9 JUMP JUMPDEST POP JUMPDEST DUP1 SWAP2 POP POP SWAP2 SWAP1 POP JUMP JUMPDEST PUSH1 0x8 DUP2 DUP2 SLOAD DUP2 LT PUSH2 0xABE JUMPI PUSH0 DUP1 REVERT JUMPDEST SWAP1 PUSH0 MSTORE PUSH1 0x20 PUSH0 KECCAK256 SWAP1 PUSH1 0x4 MUL ADD PUSH0 SWAP2 POP SWAP1 POP DUP1 PUSH0 ADD PUSH0 SWAP1 SLOAD SWAP1 PUSH2 0x100 EXP SWAP1 DIV PUSH20 0xFFFFFFFFFFFFFFFFFFFFFFFFFFFFFFFFFFFFFFFF AND SWAP1 DUP1 PUSH1 0x1 ADD SLOAD SWAP1 DUP1 PUSH1 0x2 ADD SLOAD SWAP1 DUP1 PUSH1 0x3 ADD DUP1 SLOAD PUSH2 0xB0E SWAP1 PUSH2 0x532C JUMP JUMPDEST DUP1 PUSH1 0x1F ADD PUSH1 0x20 DUP1 SWAP2 DIV MUL PUSH1 0x20 ADD PUSH1 0x40 MLOAD SWAP1 DUP2 ADD PUSH1 0x40 MSTORE DUP1 SWAP3 SWAP2 SWAP1 DUP2 DUP2 MSTORE PUSH1 0x20 ADD DUP3 DUP1 SLOAD PUSH2 0xB3A SWAP1 PUSH2 0x532C JUMP JUMPDEST DUP1 ISZERO PUSH2 0xB85 JUMPI DUP1 PUSH1 0x1F LT PUSH2 0xB5C JUMPI PUSH2 0x100 DUP1 DUP4 SLOAD DIV MUL DUP4 MSTORE SWAP2 PUSH1 0x20 ADD SWAP2 PUSH2 0xB85 JUMP JUMPDEST DUP3 ADD SWAP2 SWAP1 PUSH0 MSTORE PUSH1 0x20 PUSH0 KECCAK256 SWAP1 JUMPDEST DUP2 SLOAD DUP2 MSTORE SWAP1 PUSH1 0x1 ADD SWAP1 PUSH1 0x20 ADD DUP1 DUP4 GT PUSH2 0xB68 JUMPI DUP3 SWAP1 SUB PUSH1 0x1F AND DUP3 ADD SWAP2 JUMPDEST POP POP POP POP POP SWAP1 POP DUP5 JUMP JUMPDEST PUSH0 PUSH8 0xDE0B6B3A7640000 PUSH2 0xBA2 DUP5 PUSH2 0x3B3F JUMP JUMPDEST PUSH1 0x40 ADD MLOAD DUP4 PUSH2 0xBB1 SWAP2 SWAP1 PUSH2 0x535C JUMP JUMPDEST PUSH2 0xBBB SWAP2 SWAP1 PUSH2 0x53CA JUMP JUMPDEST SWAP1 POP SWAP3 SWAP2 POP POP JUMP JUMPDEST PUSH0 DUP1 PUSH0 SWAP1 POP PUSH0 JUMPDEST PUSH1 0xC SLOAD DUP2 LT ISZERO PUSH2 0xD19 JUMPI PUSH0 PUSH1 0x6 PUSH0 DUP4 DUP2 MSTORE PUSH1 0x20 ADD SWAP1 DUP2 MSTORE PUSH1 0x20 ADD PUSH0 KECCAK256 PUSH0 DUP7 PUSH20 0xFFFFFFFFFFFFFFFFFFFFFFFFFFFFFFFFFFFFFFFF AND PUSH20 0xFFFFFFFFFFFFFFFFFFFFFFFFFFFFFFFFFFFFFFFF AND DUP2 MSTORE PUSH1 0x20 ADD SWAP1 DUP2 MSTORE PUSH1 0x20 ADD PUSH0 KECCAK256 PUSH0 SWAP1 SLOAD SWAP1 PUSH2 0x100 EXP SWAP1 DIV PUSH20 0xFFFFFFFFFFFFFFFFFFFFFFFFFFFFFFFFFFFFFFFF AND SWAP1 POP PUSH0 PUSH20 0xFFFFFFFFFFFFFFFFFFFFFFFFFFFFFFFFFFFFFFFF AND DUP2 PUSH20 0xFFFFFFFFFFFFFFFFFFFFFFFFFFFFFFFFFFFFFFFF AND EQ PUSH2 0xD0B JUMPI PUSH0 PUSH2 0xCF9 PUSH1 0x4 PUSH0 DUP5 PUSH20 0xFFFFFFFFFFFFFFFFFFFFFFFFFFFFFFFFFFFFFFFF AND PUSH20 0xFFFFFFFFFFFFFFFFFFFFFFFFFFFFFFFFFFFFFFFF AND DUP2 MSTORE PUSH1 0x20 ADD SWAP1 DUP2 MSTORE PUSH1 0x20 ADD PUSH0 KECCAK256 PUSH0 DUP9 PUSH20 0xFFFFFFFFFFFFFFFFFFFFFFFFFFFFFFFFFFFFFFFF AND PUSH20 0xFFFFFFFFFFFFFFFFFFFFFFFFFFFFFFFFFFFFFFFF AND DUP2 MSTORE PUSH1 0x20 ADD SWAP1 DUP2 MSTORE PUSH1 0x20 ADD PUSH0 KECCAK256 SLOAD DUP4 PUSH2 0x3AFD JUMP JUMPDEST SWAP1 POP DUP1 DUP5 PUSH2 0xD07 SWAP2 SWAP1 PUSH2 0x52CC JUMP JUMPDEST SWAP4 POP POP JUMPDEST POP DUP1 DUP1 PUSH1 0x1 ADD SWAP2 POP POP PUSH2 0xBCA JUMP JUMPDEST POP DUP1 SWAP2 POP POP SWAP2 SWAP1 POP JUMP JUMPDEST PUSH0 DUP2 GT PUSH2 0xD2E JUMPI PUSH0 DUP1 REVERT JUMPDEST PUSH0 PUSH2 0xDDB PUSH1 0x2 DUP1 SLOAD DUP1 PUSH1 0x20 MUL PUSH1 0x20 ADD PUSH1 0x40 MLOAD SWAP1 DUP2 ADD PUSH1 0x40 MSTORE DUP1 SWAP3 SWAP2 SWAP1 DUP2 DUP2 MSTORE PUSH1 0x20 ADD DUP3 DUP1 SLOAD DUP1 ISZERO PUSH2 0xDB1 JUMPI PUSH1 0x20 MUL DUP3 ADD SWAP2 SWAP1 PUSH0 MSTORE PUSH1 0x20 PUSH0 KECCAK256 SWAP1 JUMPDEST DUP2 PUSH0 SWAP1 SLOAD SWAP1 PUSH2 0x100 EXP SWAP1 DIV PUSH20 0xFFFFFFFFFFFFFFFFFFFFFFFFFFFFFFFFFFFFFFFF AND PUSH20 0xFFFFFFFFFFFFFFFFFFFFFFFFFFFFFFFFFFFFFFFF AND DUP2 MSTORE PUSH1 0x20 ADD SWAP1 PUSH1 0x1 ADD SWAP1 DUP1 DUP4 GT PUSH2 0xD68 JUMPI JUMPDEST POP POP POP POP POP CALLER PUSH20 0xFFFFFFFFFFFFFFFFFFFFFFFFFFFFFFFFFFFFFFFF AND PUSH2 0x40D1 SWAP1 SWAP2 SWAP1 PUSH4 0xFFFFFFFF AND JUMP JUMPDEST SWAP1 POP PUSH32 0xFD17BD4279D0FE7EF2675B6B6E8966EE4B2DBDC635A963C22487D11F2252FD26 CALLER DUP3 PUSH1 0x40 MLOAD PUSH2 0xE0E SWAP3 SWAP2 SWAP1 PUSH2 0x5412 JUMP JUMPDEST PUSH1 0x40 MLOAD DUP1 SWAP2 SUB SWAP1 LOG1 PUSH0 DUP2 SLT ISZERO PUSH2 0xE22 JUMPI PUSH0 DUP1 REVERT JUMPDEST PUSH0 PUSH1 0x4 PUSH0 DUP6 PUSH20 0xFFFFFFFFFFFFFFFFFFFFFFFFFFFFFFFFFFFFFFFF AND PUSH20 0xFFFFFFFFFFFFFFFFFFFFFFFFFFFFFFFFFFFFFFFF AND DUP2 MSTORE PUSH1 0x20 ADD SWAP1 DUP2 MSTORE PUSH1 0x20 ADD PUSH0 KECCAK256 PUSH0 CALLER PUSH20 0xFFFFFFFFFFFFFFFFFFFFFFFFFFFFFFFFFFFFFFFF AND PUSH20 0xFFFFFFFFFFFFFFFFFFFFFFFFFFFFFFFFFFFFFFFF AND DUP2 MSTORE PUSH1 0x20 ADD SWAP1 DUP2 MSTORE PUSH1 0x20 ADD PUSH0 KECCAK256 SLOAD SWAP1 POP PUSH32 0x39C49093E2DEF1AEBE4CEBF2FBEBFD37C089D9231D17ECD15319230E499D7358 CALLER DUP3 PUSH1 0x40 MLOAD PUSH2 0xECF SWAP3 SWAP2 SWAP1 PUSH2 0x5439 JUMP JUMPDEST PUSH1 0x40 MLOAD DUP1 SWAP2 SUB SWAP1 LOG1 PUSH0 DUP2 GT PUSH2 0xEE2 JUMPI PUSH0 DUP1 REVERT JUMPDEST PUSH0 DUP5 SWAP1 POP DUP1 PUSH20 0xFFFFFFFFFFFFFFFFFFFFFFFFFFFFFFFFFFFFFFFF AND PUSH4 0x23B872DD CALLER ADDRESS PUSH2 0xF0E DUP10 DUP8 PUSH2 0xB8F JUMP JUMPDEST DUP9 PUSH2 0xF19 SWAP2 SWAP1 PUSH2 0x52CC JUMP JUMPDEST PUSH1 0x40 MLOAD DUP5 PUSH4 0xFFFFFFFF AND PUSH1 0xE0 SHL DUP2 MSTORE PUSH1 0x4 ADD PUSH2 0xF37 SWAP4 SWAP3 SWAP2 SWAP1 PUSH2 0x5460 JUMP JUMPDEST PUSH1 0x20 PUSH1 0x40 MLOAD DUP1 DUP4 SUB DUP2 PUSH0 DUP8 GAS CALL ISZERO DUP1 ISZERO PUSH2 0xF53 JUMPI RETURNDATASIZE PUSH0 DUP1 RETURNDATACOPY RETURNDATASIZE PUSH0 REVERT JUMPDEST POP POP POP POP PUSH1 0x40 MLOAD RETURNDATASIZE PUSH1 0x1F NOT PUSH1 0x1F DUP3 ADD AND DUP3 ADD DUP1 PUSH1 0x40 MSTORE POP DUP2 ADD SWAP1 PUSH2 0xF77 SWAP2 SWAP1 PUSH2 0x54BF JUMP JUMPDEST POP DUP4 PUSH1 0x4 PUSH0 DUP8 PUSH20 0xFFFFFFFFFFFFFFFFFFFFFFFFFFFFFFFFFFFFFFFF AND PUSH20 0xFFFFFFFFFFFFFFFFFFFFFFFFFFFFFFFFFFFFFFFF AND DUP2 MSTORE PUSH1 0x20 ADD SWAP1 DUP2 MSTORE PUSH1 0x20 ADD PUSH0 KECCAK256 PUSH0 CALLER PUSH20 0xFFFFFFFFFFFFFFFFFFFFFFFFFFFFFFFFFFFFFFFF AND PUSH20 0xFFFFFFFFFFFFFFFFFFFFFFFFFFFFFFFFFFFFFFFF AND DUP2 MSTORE PUSH1 0x20 ADD SWAP1 DUP2 MSTORE PUSH1 0x20 ADD PUSH0 KECCAK256 PUSH0 DUP3 DUP3 SLOAD PUSH2 0xFFF SWAP2 SWAP1 PUSH2 0x54EA JUMP JUMPDEST SWAP3 POP POP DUP2 SWAP1 SSTORE POP PUSH0 PUSH2 0x1010 CALLER PUSH2 0xBC3 JUMP JUMPDEST SUB PUSH2 0x1100 JUMPI PUSH1 0x2 PUSH1 0x1 PUSH1 0x2 DUP1 SLOAD SWAP1 POP PUSH2 0x1029 SWAP2 SWAP1 PUSH2 0x54EA JUMP JUMPDEST DUP2 SLOAD DUP2 LT PUSH2 0x103A JUMPI PUSH2 0x1039 PUSH2 0x5272 JUMP JUMPDEST JUMPDEST SWAP1 PUSH0 MSTORE PUSH1 0x20 PUSH0 KECCAK256 ADD PUSH0 SWAP1 SLOAD SWAP1 PUSH2 0x100 EXP SWAP1 DIV PUSH20 0xFFFFFFFFFFFFFFFFFFFFFFFFFFFFFFFFFFFFFFFF AND PUSH1 0x2 DUP5 DUP2 SLOAD DUP2 LT PUSH2 0x1076 JUMPI PUSH2 0x1075 PUSH2 0x5272 JUMP JUMPDEST JUMPDEST SWAP1 PUSH0 MSTORE PUSH1 0x20 PUSH0 KECCAK256 ADD PUSH0 PUSH2 0x100 EXP DUP2 SLOAD DUP2 PUSH20 0xFFFFFFFFFFFFFFFFFFFFFFFFFFFFFFFFFFFFFFFF MUL NOT AND SWAP1 DUP4 PUSH20 0xFFFFFFFFFFFFFFFFFFFFFFFFFFFFFFFFFFFFFFFF AND MUL OR SWAP1 SSTORE POP PUSH1 0x2 DUP1 SLOAD DUP1 PUSH2 0x10CD JUMPI PUSH2 0x10CC PUSH2 0x551D JUMP JUMPDEST JUMPDEST PUSH1 0x1 SWAP1 SUB DUP2 DUP2 SWAP1 PUSH0 MSTORE PUSH1 0x20 PUSH0 KECCAK256 ADD PUSH0 PUSH2 0x100 EXP DUP2 SLOAD SWAP1 PUSH20 0xFFFFFFFFFFFFFFFFFFFFFFFFFFFFFFFFFFFFFFFF MUL NOT AND SWAP1 SSTORE SWAP1 SSTORE JUMPDEST PUSH32 0xF17F5805B2095D17FFE834AFF3FC2EEFF114BFBC250E98F248783F8D34D40042 CALLER DUP5 DUP5 PUSH2 0x112E DUP10 DUP8 PUSH2 0xB8F JUMP JUMPDEST DUP9 PUSH2 0x1139 SWAP2 SWAP1 PUSH2 0x52CC JUMP JUMPDEST PUSH1 0x2 PUSH1 0x40 MLOAD PUSH2 0x114C SWAP6 SWAP5 SWAP4 SWAP3 SWAP2 SWAP1 PUSH2 0x562A JUMP JUMPDEST PUSH1 0x40 MLOAD DUP1 SWAP2 SUB SWAP1 LOG1 POP POP POP POP POP JUMP JUMPDEST PUSH1 0x60 PUSH1 0x8 DUP1 SLOAD DUP1 PUSH1 0x20 MUL PUSH1 0x20 ADD PUSH1 0x40 MLOAD SWAP1 DUP2 ADD PUSH1 0x40 MSTORE DUP1 SWAP3 SWAP2 SWAP1 DUP2 DUP2 MSTORE PUSH1 0x20 ADD PUSH0 SWAP1 JUMPDEST DUP3 DUP3 LT ISZERO PUSH2 0x12A6 JUMPI DUP4 DUP3 SWAP1 PUSH0 MSTORE PUSH1 0x20 PUSH0 KECCAK256 SWAP1 PUSH1 0x4 MUL ADD PUSH1 0x40 MLOAD DUP1 PUSH1 0x80 ADD PUSH1 0x40 MSTORE SWAP1 DUP2 PUSH0 DUP3 ADD PUSH0 SWAP1 SLOAD SWAP1 PUSH2 0x100 EXP SWAP1 DIV PUSH20 0xFFFFFFFFFFFFFFFFFFFFFFFFFFFFFFFFFFFFFFFF AND PUSH20 0xFFFFFFFFFFFFFFFFFFFFFFFFFFFFFFFFFFFFFFFF AND PUSH20 0xFFFFFFFFFFFFFFFFFFFFFFFFFFFFFFFFFFFFFFFF AND DUP2 MSTORE PUSH1 0x20 ADD PUSH1 0x1 DUP3 ADD SLOAD DUP2 MSTORE PUSH1 0x20 ADD PUSH1 0x2 DUP3 ADD SLOAD DUP2 MSTORE PUSH1 0x20 ADD PUSH1 0x3 DUP3 ADD DUP1 SLOAD PUSH2 0x1217 SWAP1 PUSH2 0x532C JUMP JUMPDEST DUP1 PUSH1 0x1F ADD PUSH1 0x20 DUP1 SWAP2 DIV MUL PUSH1 0x20 ADD PUSH1 0x40 MLOAD SWAP1 DUP2 ADD PUSH1 0x40 MSTORE DUP1 SWAP3 SWAP2 SWAP1 DUP2 DUP2 MSTORE PUSH1 0x20 ADD DUP3 DUP1 SLOAD PUSH2 0x1243 SWAP1 PUSH2 0x532C JUMP JUMPDEST DUP1 ISZERO PUSH2 0x128E JUMPI DUP1 PUSH1 0x1F LT PUSH2 0x1265 JUMPI PUSH2 0x100 DUP1 DUP4 SLOAD DIV MUL DUP4 MSTORE SWAP2 PUSH1 0x20 ADD SWAP2 PUSH2 0x128E JUMP JUMPDEST DUP3 ADD SWAP2 SWAP1 PUSH0 MSTORE PUSH1 0x20 PUSH0 KECCAK256 SWAP1 JUMPDEST DUP2 SLOAD DUP2 MSTORE SWAP1 PUSH1 0x1 ADD SWAP1 PUSH1 0x20 ADD DUP1 DUP4 GT PUSH2 0x1271 JUMPI DUP3 SWAP1 SUB PUSH1 0x1F AND DUP3 ADD SWAP2 JUMPDEST POP POP POP POP POP DUP2 MSTORE POP POP DUP2 MSTORE PUSH1 0x20 ADD SWAP1 PUSH1 0x1 ADD SWAP1 PUSH2 0x117E JUMP JUMPDEST POP POP POP POP SWAP1 POP SWAP1 JUMP JUMPDEST PUSH1 0x3 PUSH1 0x20 MSTORE DUP2 PUSH0 MSTORE PUSH1 0x40 PUSH0 KECCAK256 PUSH1 0x20 MSTORE DUP1 PUSH0 MSTORE PUSH1 0x40 PUSH0 KECCAK256 PUSH0 SWAP2 POP SWAP2 POP POP SLOAD DUP2 JUMP JUMPDEST PUSH1 0x60 PUSH1 0x1 DUP1 SLOAD DUP1 PUSH1 0x20 MUL PUSH1 0x20 ADD PUSH1 0x40 MLOAD SWAP1 DUP2 ADD PUSH1 0x40 MSTORE DUP1 SWAP3 SWAP2 SWAP1 DUP2 DUP2 MSTORE PUSH1 0x20 ADD DUP3 DUP1 SLOAD DUP1 ISZERO PUSH2 0x1350 JUMPI PUSH1 0x20 MUL DUP3 ADD SWAP2 SWAP1 PUSH0 MSTORE PUSH1 0x20 PUSH0 KECCAK256 SWAP1 JUMPDEST DUP2 PUSH0 SWAP1 SLOAD SWAP1 PUSH2 0x100 EXP SWAP1 DIV PUSH20 0xFFFFFFFFFFFFFFFFFFFFFFFFFFFFFFFFFFFFFFFF AND PUSH20 0xFFFFFFFFFFFFFFFFFFFFFFFFFFFFFFFFFFFFFFFF AND DUP2 MSTORE PUSH1 0x20 ADD SWAP1 PUSH1 0x1 ADD SWAP1 DUP1 DUP4 GT PUSH2 0x1307 JUMPI JUMPDEST POP POP POP POP POP SWAP1 POP SWAP1 JUMP JUMPDEST PUSH1 0x9 DUP2 DUP2 SLOAD DUP2 LT PUSH2 0x1369 JUMPI PUSH0 DUP1 REVERT JUMPDEST SWAP1 PUSH0 MSTORE PUSH1 0x20 PUSH0 KECCAK256 SWAP1 PUSH1 0x4 MUL ADD PUSH0 SWAP2 POP SWAP1 POP DUP1 PUSH0 ADD PUSH0 SWAP1 SLOAD SWAP1 PUSH2 0x100 EXP SWAP1 DIV PUSH20 0xFFFFFFFFFFFFFFFFFFFFFFFFFFFFFFFFFFFFFFFF AND SWAP1 DUP1 PUSH1 0x1 ADD SLOAD SWAP1 DUP1 PUSH1 0x2 ADD SLOAD SWAP1 DUP1 PUSH1 0x3 ADD DUP1 SLOAD PUSH2 0x13B9 SWAP1 PUSH2 0x532C JUMP JUMPDEST DUP1 PUSH1 0x1F ADD PUSH1 0x20 DUP1 SWAP2 DIV MUL PUSH1 0x20 ADD PUSH1 0x40 MLOAD SWAP1 DUP2 ADD PUSH1 0x40 MSTORE DUP1 SWAP3 SWAP2 SWAP1 DUP2 DUP2 MSTORE PUSH1 0x20 ADD DUP3 DUP1 SLOAD PUSH2 0x13E5 SWAP1 PUSH2 0x532C JUMP JUMPDEST DUP1 ISZERO PUSH2 0x1430 JUMPI DUP1 PUSH1 0x1F LT PUSH2 0x1407 JUMPI PUSH2 0x100 DUP1 DUP4 SLOAD DIV MUL DUP4 MSTORE SWAP2 PUSH1 0x20 ADD SWAP2 PUSH2 0x1430 JUMP JUMPDEST DUP3 ADD SWAP2 SWAP1 PUSH0 MSTORE PUSH1 0x20 PUSH0 KECCAK256 SWAP1 JUMPDEST DUP2 SLOAD DUP2 MSTORE SWAP1 PUSH1 0x1 ADD SWAP1 PUSH1 0x20 ADD DUP1 DUP4 GT PUSH2 0x1413 JUMPI DUP3 SWAP1 SUB PUSH1 0x1F AND DUP3 ADD SWAP2 JUMPDEST POP POP POP POP POP SWAP1 POP DUP5 JUMP JUMPDEST PUSH2 0x1590 DUP2 PUSH1 0x9 DUP1 SLOAD DUP1 PUSH1 0x20 MUL PUSH1 0x20 ADD PUSH1 0x40 MLOAD SWAP1 DUP2 ADD PUSH1 0x40 MSTORE DUP1 SWAP3 SWAP2 SWAP1 DUP2 DUP2 MSTORE PUSH1 0x20 ADD PUSH0 SWAP1 JUMPDEST DUP3 DUP3 LT ISZERO PUSH2 0x1587 JUMPI DUP4 DUP3 SWAP1 PUSH0 MSTORE PUSH1 0x20 PUSH0 KECCAK256 SWAP1 PUSH1 0x4 MUL ADD PUSH1 0x40 MLOAD DUP1 PUSH1 0x80 ADD PUSH1 0x40 MSTORE SWAP1 DUP2 PUSH0 DUP3 ADD PUSH0 SWAP1 SLOAD SWAP1 PUSH2 0x100 EXP SWAP1 DIV PUSH20 0xFFFFFFFFFFFFFFFFFFFFFFFFFFFFFFFFFFFFFFFF AND PUSH20 0xFFFFFFFFFFFFFFFFFFFFFFFFFFFFFFFFFFFFFFFF AND PUSH20 0xFFFFFFFFFFFFFFFFFFFFFFFFFFFFFFFFFFFFFFFF AND DUP2 MSTORE PUSH1 0x20 ADD PUSH1 0x1 DUP3 ADD SLOAD DUP2 MSTORE PUSH1 0x20 ADD PUSH1 0x2 DUP3 ADD SLOAD DUP2 MSTORE PUSH1 0x20 ADD PUSH1 0x3 DUP3 ADD DUP1 SLOAD PUSH2 0x14F8 SWAP1 PUSH2 0x532C JUMP JUMPDEST DUP1 PUSH1 0x1F ADD PUSH1 0x20 DUP1 SWAP2 DIV MUL PUSH1 0x20 ADD PUSH1 0x40 MLOAD SWAP1 DUP2 ADD PUSH1 0x40 MSTORE DUP1 SWAP3 SWAP2 SWAP1 DUP2 DUP2 MSTORE PUSH1 0x20 ADD DUP3 DUP1 SLOAD PUSH2 0x1524 SWAP1 PUSH2 0x532C JUMP JUMPDEST DUP1 ISZERO PUSH2 0x156F JUMPI DUP1 PUSH1 0x1F LT PUSH2 0x1546 JUMPI PUSH2 0x100 DUP1 DUP4 SLOAD DIV MUL DUP4 MSTORE SWAP2 PUSH1 0x20 ADD SWAP2 PUSH2 0x156F JUMP JUMPDEST DUP3 ADD SWAP2 SWAP1 PUSH0 MSTORE PUSH1 0x20 PUSH0 KECCAK256 SWAP1 JUMPDEST DUP2 SLOAD DUP2 MSTORE SWAP1 PUSH1 0x1 ADD SWAP1 PUSH1 0x20 ADD DUP1 DUP4 GT PUSH2 0x1552 JUMPI DUP3 SWAP1 SUB PUSH1 0x1F AND DUP3 ADD SWAP2 JUMPDEST POP POP POP POP POP DUP2 MSTORE POP POP DUP2 MSTORE PUSH1 0x20 ADD SWAP1 PUSH1 0x1 ADD SWAP1 PUSH2 0x145F JUMP JUMPDEST POP POP POP POP PUSH2 0x416E JUMP JUMPDEST PUSH2 0x1598 JUMPI PUSH0 DUP1 REVERT JUMPDEST PUSH0 DUP3 GT PUSH2 0x15A3 JUMPI PUSH0 DUP1 REVERT JUMPDEST PUSH0 PUSH2 0x15AD CALLER PUSH2 0x1E69 JUMP JUMPDEST SWAP1 POP PUSH0 PUSH2 0x15BA DUP5 DUP5 PUSH2 0x3AFD JUMP JUMPDEST SWAP1 POP PUSH32 0x9855D8AF0B8C5C7AF990F62DFF1FC3AEADED940BB30B8DE4B0015EAB8BCC7DDE CALLER DUP3 DUP5 PUSH1 0x40 MLOAD PUSH2 0x15EF SWAP4 SWAP3 SWAP2 SWAP1 PUSH2 0x5682 JUMP JUMPDEST PUSH1 0x40 MLOAD DUP1 SWAP2 SUB SWAP1 LOG1 DUP2 DUP2 GT ISZERO PUSH2 0x1603 JUMPI PUSH0 DUP1 REVERT JUMPDEST PUSH0 DUP4 SWAP1 POP PUSH32 0x1533B7359743566892D312C1EBE1047DFAE70511D2DB64634F80E3E8E2147354 CALLER DUP3 PUSH20 0xFFFFFFFFFFFFFFFFFFFFFFFFFFFFFFFFFFFFFFFF AND PUSH4 0x70A08231 ADDRESS PUSH1 0x40 MLOAD DUP3 PUSH4 0xFFFFFFFF AND PUSH1 0xE0 SHL DUP2 MSTORE PUSH1 0x4 ADD PUSH2 0x1662 SWAP2 SWAP1 PUSH2 0x50BE JUMP JUMPDEST PUSH1 0x20 PUSH1 0x40 MLOAD DUP1 DUP4 SUB DUP2 DUP7 GAS STATICCALL ISZERO DUP1 ISZERO PUSH2 0x167D JUMPI RETURNDATASIZE PUSH0 DUP1 RETURNDATACOPY RETURNDATASIZE PUSH0 REVERT JUMPDEST POP POP POP POP PUSH1 0x40 MLOAD RETURNDATASIZE PUSH1 0x1F NOT PUSH1 0x1F DUP3 ADD AND DUP3 ADD DUP1 PUSH1 0x40 MSTORE POP DUP2 ADD SWAP1 PUSH2 0x16A1 SWAP2 SWAP1 PUSH2 0x56CB JUMP JUMPDEST DUP8 PUSH1 0x40 MLOAD PUSH2 0x16B1 SWAP4 SWAP3 SWAP2 SWAP1 PUSH2 0x5682 JUMP JUMPDEST PUSH1 0x40 MLOAD DUP1 SWAP2 SUB SWAP1 LOG1 DUP5 DUP2 PUSH20 0xFFFFFFFFFFFFFFFFFFFFFFFFFFFFFFFFFFFFFFFF AND PUSH4 0x70A08231 ADDRESS PUSH1 0x40 MLOAD DUP3 PUSH4 0xFFFFFFFF AND PUSH1 0xE0 SHL DUP2 MSTORE PUSH1 0x4 ADD PUSH2 0x16F3 SWAP2 SWAP1 PUSH2 0x50BE JUMP JUMPDEST PUSH1 0x20 PUSH1 0x40 MLOAD DUP1 DUP4 SUB DUP2 DUP7 GAS STATICCALL ISZERO DUP1 ISZERO PUSH2 0x170E JUMPI RETURNDATASIZE PUSH0 DUP1 RETURNDATACOPY RETURNDATASIZE PUSH0 REVERT JUMPDEST POP POP POP POP PUSH1 0x40 MLOAD RETURNDATASIZE PUSH1 0x1F NOT PUSH1 0x1F DUP3 ADD AND DUP3 ADD DUP1 PUSH1 0x40 MSTORE POP DUP2 ADD SWAP1 PUSH2 0x1732 SWAP2 SWAP1 PUSH2 0x56CB JUMP JUMPDEST LT ISZERO PUSH2 0x1773 JUMPI PUSH1 0x40 MLOAD PUSH32 0x8C379A000000000000000000000000000000000000000000000000000000000 DUP2 MSTORE PUSH1 0x4 ADD PUSH2 0x176A SWAP1 PUSH2 0x5740 JUMP JUMPDEST PUSH1 0x40 MLOAD DUP1 SWAP2 SUB SWAP1 REVERT JUMPDEST DUP1 PUSH20 0xFFFFFFFFFFFFFFFFFFFFFFFFFFFFFFFFFFFFFFFF AND PUSH4 0xA9059CBB CALLER DUP8 PUSH1 0x40 MLOAD DUP4 PUSH4 0xFFFFFFFF AND PUSH1 0xE0 SHL DUP2 MSTORE PUSH1 0x4 ADD PUSH2 0x17AE SWAP3 SWAP2 SWAP1 PUSH2 0x5439 JUMP JUMPDEST PUSH1 0x20 PUSH1 0x40 MLOAD DUP1 DUP4 SUB DUP2 PUSH0 DUP8 GAS CALL ISZERO DUP1 ISZERO PUSH2 0x17CA JUMPI RETURNDATASIZE PUSH0 DUP1 RETURNDATACOPY RETURNDATASIZE PUSH0 REVERT JUMPDEST POP POP POP POP PUSH1 0x40 MLOAD RETURNDATASIZE PUSH1 0x1F NOT PUSH1 0x1F DUP3 ADD AND DUP3 ADD DUP1 PUSH1 0x40 MSTORE POP DUP2 ADD SWAP1 PUSH2 0x17EE SWAP2 SWAP1 PUSH2 0x54BF JUMP JUMPDEST POP PUSH0 DUP1 PUSH2 0x189D PUSH1 0x2 DUP1 SLOAD DUP1 PUSH1 0x20 MUL PUSH1 0x20 ADD PUSH1 0x40 MLOAD SWAP1 DUP2 ADD PUSH1 0x40 MSTORE DUP1 SWAP3 SWAP2 SWAP1 DUP2 DUP2 MSTORE PUSH1 0x20 ADD DUP3 DUP1 SLOAD DUP1 ISZERO PUSH2 0x1873 JUMPI PUSH1 0x20 MUL DUP3 ADD SWAP2 SWAP1 PUSH0 MSTORE PUSH1 0x20 PUSH0 KECCAK256 SWAP1 JUMPDEST DUP2 PUSH0 SWAP1 SLOAD SWAP1 PUSH2 0x100 EXP SWAP1 DIV PUSH20 0xFFFFFFFFFFFFFFFFFFFFFFFFFFFFFFFFFFFFFFFF AND PUSH20 0xFFFFFFFFFFFFFFFFFFFFFFFFFFFFFFFFFFFFFFFF AND DUP2 MSTORE PUSH1 0x20 ADD SWAP1 PUSH1 0x1 ADD SWAP1 DUP1 DUP4 GT PUSH2 0x182A JUMPI JUMPDEST POP POP POP POP POP CALLER PUSH20 0xFFFFFFFFFFFFFFFFFFFFFFFFFFFFFFFFFFFFFFFF AND PUSH2 0x41F6 SWAP1 SWAP2 SWAP1 PUSH4 0xFFFFFFFF AND JUMP JUMPDEST SWAP2 POP SWAP2 POP DUP2 ISZERO PUSH2 0x18ED JUMPI PUSH2 0x18E8 DUP7 DUP9 DUP4 PUSH1 0x40 MLOAD DUP1 PUSH1 0x40 ADD PUSH1 0x40 MSTORE DUP1 PUSH1 0x9 DUP2 MSTORE PUSH1 0x20 ADD PUSH32 0x626F72726F776572730000000000000000000000000000000000000000000000 DUP2 MSTORE POP PUSH2 0x42A3 JUMP JUMPDEST PUSH2 0x1A6A JUMP JUMPDEST PUSH1 0x2 CALLER SWAP1 DUP1 PUSH1 0x1 DUP2 SLOAD ADD DUP1 DUP3 SSTORE DUP1 SWAP2 POP POP PUSH1 0x1 SWAP1 SUB SWAP1 PUSH0 MSTORE PUSH1 0x20 PUSH0 KECCAK256 ADD PUSH0 SWAP1 SWAP2 SWAP1 SWAP2 SWAP1 SWAP2 PUSH2 0x100 EXP DUP2 SLOAD DUP2 PUSH20 0xFFFFFFFFFFFFFFFFFFFFFFFFFFFFFFFFFFFFFFFF MUL NOT AND SWAP1 DUP4 PUSH20 0xFFFFFFFFFFFFFFFFFFFFFFFFFFFFFFFFFFFFFFFF AND MUL OR SWAP1 SSTORE POP DUP7 PUSH1 0x4 PUSH0 DUP9 PUSH20 0xFFFFFFFFFFFFFFFFFFFFFFFFFFFFFFFFFFFFFFFF AND PUSH20 0xFFFFFFFFFFFFFFFFFFFFFFFFFFFFFFFFFFFFFFFF AND DUP2 MSTORE PUSH1 0x20 ADD SWAP1 DUP2 MSTORE PUSH1 0x20 ADD PUSH0 KECCAK256 PUSH0 CALLER PUSH20 0xFFFFFFFFFFFFFFFFFFFFFFFFFFFFFFFFFFFFFFFF AND PUSH20 0xFFFFFFFFFFFFFFFFFFFFFFFFFFFFFFFFFFFFFFFF AND DUP2 MSTORE PUSH1 0x20 ADD SWAP1 DUP2 MSTORE PUSH1 0x20 ADD PUSH0 KECCAK256 DUP2 SWAP1 SSTORE POP DUP6 PUSH1 0x6 PUSH0 PUSH1 0xC PUSH0 DUP2 SLOAD DUP1 SWAP3 SWAP2 SWAP1 PUSH2 0x19E0 SWAP1 PUSH2 0x575E JUMP JUMPDEST SWAP2 SWAP1 POP SSTORE DUP2 MSTORE PUSH1 0x20 ADD SWAP1 DUP2 MSTORE PUSH1 0x20 ADD PUSH0 KECCAK256 PUSH0 CALLER PUSH20 0xFFFFFFFFFFFFFFFFFFFFFFFFFFFFFFFFFFFFFFFF AND PUSH20 0xFFFFFFFFFFFFFFFFFFFFFFFFFFFFFFFFFFFFFFFF AND DUP2 MSTORE PUSH1 0x20 ADD SWAP1 DUP2 MSTORE PUSH1 0x20 ADD PUSH0 KECCAK256 PUSH0 PUSH2 0x100 EXP DUP2 SLOAD DUP2 PUSH20 0xFFFFFFFFFFFFFFFFFFFFFFFFFFFFFFFFFFFFFFFF MUL NOT AND SWAP1 DUP4 PUSH20 0xFFFFFFFFFFFFFFFFFFFFFFFFFFFFFFFFFFFFFFFF AND MUL OR SWAP1 SSTORE POP JUMPDEST PUSH32 0x699548A5535B752F15032EB2BE1672B2E5E62DDC5D461D4EDB5A9321D7CBD252 CALLER DUP6 DUP8 DUP6 DUP6 PUSH1 0x2 PUSH1 0x4 PUSH0 DUP15 PUSH20 0xFFFFFFFFFFFFFFFFFFFFFFFFFFFFFFFFFFFFFFFF AND PUSH20 0xFFFFFFFFFFFFFFFFFFFFFFFFFFFFFFFFFFFFFFFF AND DUP2 MSTORE PUSH1 0x20 ADD SWAP1 DUP2 MSTORE PUSH1 0x20 ADD PUSH0 KECCAK256 PUSH0 CALLER PUSH20 0xFFFFFFFFFFFFFFFFFFFFFFFFFFFFFFFFFFFFFFFF AND PUSH20 0xFFFFFFFFFFFFFFFFFFFFFFFFFFFFFFFFFFFFFFFF AND DUP2 MSTORE PUSH1 0x20 ADD SWAP1 DUP2 MSTORE PUSH1 0x20 ADD PUSH0 KECCAK256 SLOAD PUSH1 0x40 MLOAD PUSH2 0x1B1E SWAP8 SWAP7 SWAP6 SWAP5 SWAP4 SWAP3 SWAP2 SWAP1 PUSH2 0x57A5 JUMP JUMPDEST PUSH1 0x40 MLOAD DUP1 SWAP2 SUB SWAP1 LOG1 POP POP POP POP POP POP POP JUMP JUMPDEST PUSH0 DUP1 DUP4 GT ISZERO PUSH2 0x1D72 JUMPI PUSH1 0x40 MLOAD PUSH1 0x20 ADD PUSH2 0x1B47 SWAP1 PUSH2 0x586D JUMP JUMPDEST PUSH1 0x40 MLOAD PUSH1 0x20 DUP2 DUP4 SUB SUB DUP2 MSTORE SWAP1 PUSH1 0x40 MSTORE DUP1 MLOAD SWAP1 PUSH1 0x20 ADD KECCAK256 DUP3 PUSH1 0x40 MLOAD PUSH1 0x20 ADD PUSH2 0x1B6E SWAP2 SWAP1 PUSH2 0x58B1 JUMP JUMPDEST PUSH1 0x40 MLOAD PUSH1 0x20 DUP2 DUP4 SUB SUB DUP2 MSTORE SWAP1 PUSH1 0x40 MSTORE DUP1 MLOAD SWAP1 PUSH1 0x20 ADD KECCAK256 SUB PUSH2 0x1C56 JUMPI PUSH0 JUMPDEST PUSH1 0xB SLOAD DUP2 LT ISZERO PUSH2 0x1C50 JUMPI PUSH0 PUSH1 0x5 PUSH0 DUP4 DUP2 MSTORE PUSH1 0x20 ADD SWAP1 DUP2 MSTORE PUSH1 0x20 ADD PUSH0 KECCAK256 PUSH0 DUP9 PUSH20 0xFFFFFFFFFFFFFFFFFFFFFFFFFFFFFFFFFFFFFFFF AND PUSH20 0xFFFFFFFFFFFFFFFFFFFFFFFFFFFFFFFFFFFFFFFF AND DUP2 MSTORE PUSH1 0x20 ADD SWAP1 DUP2 MSTORE PUSH1 0x20 ADD PUSH0 KECCAK256 PUSH0 SWAP1 SLOAD SWAP1 PUSH2 0x100 EXP SWAP1 DIV PUSH20 0xFFFFFFFFFFFFFFFFFFFFFFFFFFFFFFFFFFFFFFFF AND SWAP1 POP DUP6 PUSH20 0xFFFFFFFFFFFFFFFFFFFFFFFFFFFFFFFFFFFFFFFF AND DUP2 PUSH20 0xFFFFFFFFFFFFFFFFFFFFFFFFFFFFFFFFFFFFFFFF AND SUB PUSH2 0x1C42 JUMPI PUSH1 0x1 SWAP3 POP POP POP PUSH2 0x1D76 JUMP JUMPDEST POP DUP1 DUP1 PUSH1 0x1 ADD SWAP2 POP POP PUSH2 0x1B8B JUMP JUMPDEST POP PUSH2 0x1D71 JUMP JUMPDEST PUSH1 0x40 MLOAD PUSH1 0x20 ADD PUSH2 0x1C65 SWAP1 PUSH2 0x5911 JUMP JUMPDEST PUSH1 0x40 MLOAD PUSH1 0x20 DUP2 DUP4 SUB SUB DUP2 MSTORE SWAP1 PUSH1 0x40 MSTORE DUP1 MLOAD SWAP1 PUSH1 0x20 ADD KECCAK256 DUP3 PUSH1 0x40 MLOAD PUSH1 0x20 ADD PUSH2 0x1C8C SWAP2 SWAP1 PUSH2 0x58B1 JUMP JUMPDEST PUSH1 0x40 MLOAD PUSH1 0x20 DUP2 DUP4 SUB SUB DUP2 MSTORE SWAP1 PUSH1 0x40 MSTORE DUP1 MLOAD SWAP1 PUSH1 0x20 ADD KECCAK256 SUB PUSH2 0x1D70 JUMPI PUSH0 JUMPDEST PUSH1 0xC SLOAD DUP2 LT ISZERO PUSH2 0x1D6E JUMPI PUSH0 PUSH1 0x6 PUSH0 DUP4 DUP2 MSTORE PUSH1 0x20 ADD SWAP1 DUP2 MSTORE PUSH1 0x20 ADD PUSH0 KECCAK256 PUSH0 DUP9 PUSH20 0xFFFFFFFFFFFFFFFFFFFFFFFFFFFFFFFFFFFFFFFF AND PUSH20 0xFFFFFFFFFFFFFFFFFFFFFFFFFFFFFFFFFFFFFFFF AND DUP2 MSTORE PUSH1 0x20 ADD SWAP1 DUP2 MSTORE PUSH1 0x20 ADD PUSH0 KECCAK256 PUSH0 SWAP1 SLOAD SWAP1 PUSH2 0x100 EXP SWAP1 DIV PUSH20 0xFFFFFFFFFFFFFFFFFFFFFFFFFFFFFFFFFFFFFFFF AND SWAP1 POP DUP6 PUSH20 0xFFFFFFFFFFFFFFFFFFFFFFFFFFFFFFFFFFFFFFFF AND DUP2 PUSH20 0xFFFFFFFFFFFFFFFFFFFFFFFFFFFFFFFFFFFFFFFF AND SUB PUSH2 0x1D60 JUMPI PUSH1 0x1 SWAP3 POP POP POP PUSH2 0x1D76 JUMP JUMPDEST POP DUP1 DUP1 PUSH1 0x1 ADD SWAP2 POP POP PUSH2 0x1CA9 JUMP JUMPDEST POP JUMPDEST JUMPDEST JUMPDEST PUSH0 SWAP1 POP JUMPDEST SWAP5 SWAP4 POP POP POP POP JUMP JUMPDEST PUSH1 0xC SLOAD DUP2 JUMP JUMPDEST PUSH0 DUP1 PUSH2 0x1D8F DUP4 PUSH2 0xBC3 JUMP JUMPDEST SWAP1 POP PUSH0 DUP1 DUP3 GT ISZERO PUSH2 0x1DAA JUMPI PUSH2 0x1DA3 DUP5 PUSH2 0x2D50 JUMP JUMPDEST SWAP1 POP PUSH2 0x1DB6 JUMP JUMPDEST PUSH2 0x1DB3 DUP5 PUSH2 0x2AFA JUMP JUMPDEST SWAP1 POP JUMPDEST DUP2 DUP2 LT ISZERO PUSH2 0x1DC8 JUMPI PUSH0 SWAP3 POP POP POP PUSH2 0x1DD9 JUMP JUMPDEST DUP2 DUP2 PUSH2 0x1DD4 SWAP2 SWAP1 PUSH2 0x54EA JUMP JUMPDEST SWAP3 POP POP POP JUMPDEST SWAP2 SWAP1 POP JUMP JUMPDEST PUSH2 0x1DE6 PUSH2 0x47C2 JUMP JUMPDEST PUSH2 0x1DEF PUSH0 PUSH2 0x4849 JUMP JUMPDEST JUMP JUMPDEST PUSH1 0x6 PUSH1 0x20 MSTORE DUP2 PUSH0 MSTORE PUSH1 0x40 PUSH0 KECCAK256 PUSH1 0x20 MSTORE DUP1 PUSH0 MSTORE PUSH1 0x40 PUSH0 KECCAK256 PUSH0 SWAP2 POP SWAP2 POP SWAP1 SLOAD SWAP1 PUSH2 0x100 EXP SWAP1 DIV PUSH20 0xFFFFFFFFFFFFFFFFFFFFFFFFFFFFFFFFFFFFFFFF AND DUP2 JUMP JUMPDEST PUSH1 0x2 DUP2 DUP2 SLOAD DUP2 LT PUSH2 0x1E3D JUMPI PUSH0 DUP1 REVERT JUMPDEST SWAP1 PUSH0 MSTORE PUSH1 0x20 PUSH0 KECCAK256 ADD PUSH0 SWAP2 POP SLOAD SWAP1 PUSH2 0x100 EXP SWAP1 DIV PUSH20 0xFFFFFFFFFFFFFFFFFFFFFFFFFFFFFFFFFFFFFFFF AND DUP2 JUMP JUMPDEST PUSH0 DUP1 PUSH0 SWAP1 POP PUSH0 DUP1 JUMPDEST PUSH1 0x1 DUP1 SLOAD SWAP1 POP DUP2 LT ISZERO PUSH2 0x2109 JUMPI PUSH0 PUSH1 0x1 DUP3 DUP2 SLOAD DUP2 LT PUSH2 0x1E93 JUMPI PUSH2 0x1E92 PUSH2 0x5272 JUMP JUMPDEST JUMPDEST SWAP1 PUSH0 MSTORE PUSH1 0x20 PUSH0 KECCAK256 ADD PUSH0 SWAP1 SLOAD SWAP1 PUSH2 0x100 EXP SWAP1 DIV PUSH20 0xFFFFFFFFFFFFFFFFFFFFFFFFFFFFFFFFFFFFFFFF AND SWAP1 POP DUP6 PUSH20 0xFFFFFFFFFFFFFFFFFFFFFFFFFFFFFFFFFFFFFFFF AND DUP2 PUSH20 0xFFFFFFFFFFFFFFFFFFFFFFFFFFFFFFFFFFFFFFFF AND SUB PUSH2 0x20FB JUMPI PUSH0 JUMPDEST PUSH1 0x8 DUP1 SLOAD SWAP1 POP DUP2 LT ISZERO PUSH2 0x20F9 JUMPI PUSH0 PUSH1 0x8 DUP3 DUP2 SLOAD DUP2 LT PUSH2 0x1F14 JUMPI PUSH2 0x1F13 PUSH2 0x5272 JUMP JUMPDEST JUMPDEST SWAP1 PUSH0 MSTORE PUSH1 0x20 PUSH0 KECCAK256 SWAP1 PUSH1 0x4 MUL ADD PUSH1 0x40 MLOAD DUP1 PUSH1 0x80 ADD PUSH1 0x40 MSTORE SWAP1 DUP2 PUSH0 DUP3 ADD PUSH0 SWAP1 SLOAD SWAP1 PUSH2 0x100 EXP SWAP1 DIV PUSH20 0xFFFFFFFFFFFFFFFFFFFFFFFFFFFFFFFFFFFFFFFF AND PUSH20 0xFFFFFFFFFFFFFFFFFFFFFFFFFFFFFFFFFFFFFFFF AND PUSH20 0xFFFFFFFFFFFFFFFFFFFFFFFFFFFFFFFFFFFFFFFF AND DUP2 MSTORE PUSH1 0x20 ADD PUSH1 0x1 DUP3 ADD SLOAD DUP2 MSTORE PUSH1 0x20 ADD PUSH1 0x2 DUP3 ADD SLOAD DUP2 MSTORE PUSH1 0x20 ADD PUSH1 0x3 DUP3 ADD DUP1 SLOAD PUSH2 0x1FA3 SWAP1 PUSH2 0x532C JUMP JUMPDEST DUP1 PUSH1 0x1F ADD PUSH1 0x20 DUP1 SWAP2 DIV MUL PUSH1 0x20 ADD PUSH1 0x40 MLOAD SWAP1 DUP2 ADD PUSH1 0x40 MSTORE DUP1 SWAP3 SWAP2 SWAP1 DUP2 DUP2 MSTORE PUSH1 0x20 ADD DUP3 DUP1 SLOAD PUSH2 0x1FCF SWAP1 PUSH2 0x532C JUMP JUMPDEST DUP1 ISZERO PUSH2 0x201A JUMPI DUP1 PUSH1 0x1F LT PUSH2 0x1FF1 JUMPI PUSH2 0x100 DUP1 DUP4 SLOAD DIV MUL DUP4 MSTORE SWAP2 PUSH1 0x20 ADD SWAP2 PUSH2 0x201A JUMP JUMPDEST DUP3 ADD SWAP2 SWAP1 PUSH0 MSTORE PUSH1 0x20 PUSH0 KECCAK256 SWAP1 JUMPDEST DUP2 SLOAD DUP2 MSTORE SWAP1 PUSH1 0x1 ADD SWAP1 PUSH1 0x20 ADD DUP1 DUP4 GT PUSH2 0x1FFD JUMPI DUP3 SWAP1 SUB PUSH1 0x1F AND DUP3 ADD SWAP2 JUMPDEST POP POP POP POP POP DUP2 MSTORE POP POP SWAP1 POP PUSH0 PUSH1 0x3 PUSH0 DUP4 PUSH0 ADD MLOAD PUSH20 0xFFFFFFFFFFFFFFFFFFFFFFFFFFFFFFFFFFFFFFFF AND PUSH20 0xFFFFFFFFFFFFFFFFFFFFFFFFFFFFFFFFFFFFFFFF AND DUP2 MSTORE PUSH1 0x20 ADD SWAP1 DUP2 MSTORE PUSH1 0x20 ADD PUSH0 KECCAK256 PUSH0 DUP11 PUSH20 0xFFFFFFFFFFFFFFFFFFFFFFFFFFFFFFFFFFFFFFFF AND PUSH20 0xFFFFFFFFFFFFFFFFFFFFFFFFFFFFFFFFFFFFFFFF AND DUP2 MSTORE PUSH1 0x20 ADD SWAP1 DUP2 MSTORE PUSH1 0x20 ADD PUSH0 KECCAK256 SLOAD SWAP1 POP PUSH0 PUSH2 0x20B2 DUP3 DUP5 PUSH0 ADD MLOAD PUSH2 0x3AFD JUMP JUMPDEST SWAP1 POP PUSH0 PUSH8 0xDE0B6B3A7640000 DUP5 PUSH1 0x20 ADD MLOAD DUP4 PUSH2 0x20CE SWAP2 SWAP1 PUSH2 0x535C JUMP JUMPDEST PUSH2 0x20D8 SWAP2 SWAP1 PUSH2 0x53CA JUMP JUMPDEST SWAP1 POP DUP1 DUP10 PUSH2 0x20E6 SWAP2 SWAP1 PUSH2 0x52CC JUMP JUMPDEST SWAP9 POP POP POP POP POP DUP1 DUP1 PUSH1 0x1 ADD SWAP2 POP POP PUSH2 0x1EF2 JUMP JUMPDEST POP JUMPDEST POP DUP1 DUP1 PUSH1 0x1 ADD SWAP2 POP POP PUSH2 0x1E71 JUMP JUMPDEST POP PUSH0 JUMPDEST PUSH1 0x2 DUP1 SLOAD SWAP1 POP DUP2 LT ISZERO PUSH2 0x237D JUMPI PUSH0 PUSH1 0x2 DUP3 DUP2 SLOAD DUP2 LT PUSH2 0x212E JUMPI PUSH2 0x212D PUSH2 0x5272 JUMP JUMPDEST JUMPDEST SWAP1 PUSH0 MSTORE PUSH1 0x20 PUSH0 KECCAK256 ADD PUSH0 SWAP1 SLOAD SWAP1 PUSH2 0x100 EXP SWAP1 DIV PUSH20 0xFFFFFFFFFFFFFFFFFFFFFFFFFFFFFFFFFFFFFFFF AND SWAP1 POP DUP6 PUSH20 0xFFFFFFFFFFFFFFFFFFFFFFFFFFFFFFFFFFFFFFFF AND DUP2 PUSH20 0xFFFFFFFFFFFFFFFFFFFFFFFFFFFFFFFFFFFFFFFF AND SUB PUSH2 0x236F JUMPI PUSH0 JUMPDEST PUSH1 0x9 DUP1 SLOAD SWAP1 POP DUP2 LT ISZERO PUSH2 0x236D JUMPI PUSH0 PUSH1 0x9 DUP3 DUP2 SLOAD DUP2 LT PUSH2 0x21AF JUMPI PUSH2 0x21AE PUSH2 0x5272 JUMP JUMPDEST JUMPDEST SWAP1 PUSH0 MSTORE PUSH1 0x20 PUSH0 KECCAK256 SWAP1 PUSH1 0x4 MUL ADD PUSH1 0x40 MLOAD DUP1 PUSH1 0x80 ADD PUSH1 0x40 MSTORE SWAP1 DUP2 PUSH0 DUP3 ADD PUSH0 SWAP1 SLOAD SWAP1 PUSH2 0x100 EXP SWAP1 DIV PUSH20 0xFFFFFFFFFFFFFFFFFFFFFFFFFFFFFFFFFFFFFFFF AND PUSH20 0xFFFFFFFFFFFFFFFFFFFFFFFFFFFFFFFFFFFFFFFF AND PUSH20 0xFFFFFFFFFFFFFFFFFFFFFFFFFFFFFFFFFFFFFFFF AND DUP2 MSTORE PUSH1 0x20 ADD PUSH1 0x1 DUP3 ADD SLOAD DUP2 MSTORE PUSH1 0x20 ADD PUSH1 0x2 DUP3 ADD SLOAD DUP2 MSTORE PUSH1 0x20 ADD PUSH1 0x3 DUP3 ADD DUP1 SLOAD PUSH2 0x223E SWAP1 PUSH2 0x532C JUMP JUMPDEST DUP1 PUSH1 0x1F ADD PUSH1 0x20 DUP1 SWAP2 DIV MUL PUSH1 0x20 ADD PUSH1 0x40 MLOAD SWAP1 DUP2 ADD PUSH1 0x40 MSTORE DUP1 SWAP3 SWAP2 SWAP1 DUP2 DUP2 MSTORE PUSH1 0x20 ADD DUP3 DUP1 SLOAD PUSH2 0x226A SWAP1 PUSH2 0x532C JUMP JUMPDEST DUP1 ISZERO PUSH2 0x22B5 JUMPI DUP1 PUSH1 0x1F LT PUSH2 0x228C JUMPI PUSH2 0x100 DUP1 DUP4 SLOAD DIV MUL DUP4 MSTORE SWAP2 PUSH1 0x20 ADD SWAP2 PUSH2 0x22B5 JUMP JUMPDEST DUP3 ADD SWAP2 SWAP1 PUSH0 MSTORE PUSH1 0x20 PUSH0 KECCAK256 SWAP1 JUMPDEST DUP2 SLOAD DUP2 MSTORE SWAP1 PUSH1 0x1 ADD SWAP1 PUSH1 0x20 ADD DUP1 DUP4 GT PUSH2 0x2298 JUMPI DUP3 SWAP1 SUB PUSH1 0x1F AND DUP3 ADD SWAP2 JUMPDEST POP POP POP POP POP DUP2 MSTORE POP POP SWAP1 POP PUSH0 PUSH1 0x4 PUSH0 DUP4 PUSH0 ADD MLOAD PUSH20 0xFFFFFFFFFFFFFFFFFFFFFFFFFFFFFFFFFFFFFFFF AND PUSH20 0xFFFFFFFFFFFFFFFFFFFFFFFFFFFFFFFFFFFFFFFF AND DUP2 MSTORE PUSH1 0x20 ADD SWAP1 DUP2 MSTORE PUSH1 0x20 ADD PUSH0 KECCAK256 PUSH0 DUP11 PUSH20 0xFFFFFFFFFFFFFFFFFFFFFFFFFFFFFFFFFFFFFFFF AND PUSH20 0xFFFFFFFFFFFFFFFFFFFFFFFFFFFFFFFFFFFFFFFF AND DUP2 MSTORE PUSH1 0x20 ADD SWAP1 DUP2 MSTORE PUSH1 0x20 ADD PUSH0 KECCAK256 SLOAD SWAP1 POP PUSH0 PUSH2 0x234D DUP3 DUP5 PUSH0 ADD MLOAD PUSH2 0x3AFD JUMP JUMPDEST SWAP1 POP DUP1 DUP8 PUSH2 0x235B SWAP2 SWAP1 PUSH2 0x52CC JUMP JUMPDEST SWAP7 POP POP POP POP DUP1 DUP1 PUSH1 0x1 ADD SWAP2 POP POP PUSH2 0x218D JUMP JUMPDEST POP JUMPDEST POP DUP1 DUP1 PUSH1 0x1 ADD SWAP2 POP POP PUSH2 0x210C JUMP JUMPDEST POP DUP1 DUP3 PUSH2 0x238A SWAP2 SWAP1 PUSH2 0x54EA JUMP JUMPDEST SWAP3 POP POP POP SWAP2 SWAP1 POP JUMP JUMPDEST PUSH1 0x7 PUSH1 0x20 MSTORE DUP1 PUSH0 MSTORE PUSH1 0x40 PUSH0 KECCAK256 PUSH0 SWAP2 POP SLOAD SWAP1 PUSH2 0x100 EXP SWAP1 DIV PUSH20 0xFFFFFFFFFFFFFFFFFFFFFFFFFFFFFFFFFFFFFFFF AND DUP2 JUMP JUMPDEST PUSH1 0x60 PUSH1 0x2 DUP1 SLOAD DUP1 PUSH1 0x20 MUL PUSH1 0x20 ADD PUSH1 0x40 MLOAD SWAP1 DUP2 ADD PUSH1 0x40 MSTORE DUP1 SWAP3 SWAP2 SWAP1 DUP2 DUP2 MSTORE PUSH1 0x20 ADD DUP3 DUP1 SLOAD DUP1 ISZERO PUSH2 0x2444 JUMPI PUSH1 0x20 MUL DUP3 ADD SWAP2 SWAP1 PUSH0 MSTORE PUSH1 0x20 PUSH0 KECCAK256 SWAP1 JUMPDEST DUP2 PUSH0 SWAP1 SLOAD SWAP1 PUSH2 0x100 EXP SWAP1 DIV PUSH20 0xFFFFFFFFFFFFFFFFFFFFFFFFFFFFFFFFFFFFFFFF AND PUSH20 0xFFFFFFFFFFFFFFFFFFFFFFFFFFFFFFFFFFFFFFFF AND DUP2 MSTORE PUSH1 0x20 ADD SWAP1 PUSH1 0x1 ADD SWAP1 DUP1 DUP4 GT PUSH2 0x23FB JUMPI JUMPDEST POP POP POP POP POP SWAP1 POP SWAP1 JUMP JUMPDEST PUSH0 DUP1 PUSH0 SWAP1 SLOAD SWAP1 PUSH2 0x100 EXP SWAP1 DIV PUSH20 0xFFFFFFFFFFFFFFFFFFFFFFFFFFFFFFFFFFFFFFFF AND SWAP1 POP SWAP1 JUMP JUMPDEST PUSH1 0x1 DUP2 DUP2 SLOAD DUP2 LT PUSH2 0x2484 JUMPI PUSH0 DUP1 REVERT JUMPDEST SWAP1 PUSH0 MSTORE PUSH1 0x20 PUSH0 KECCAK256 ADD PUSH0 SWAP2 POP SLOAD SWAP1 PUSH2 0x100 EXP SWAP1 DIV PUSH20 0xFFFFFFFFFFFFFFFFFFFFFFFFFFFFFFFFFFFFFFFF AND DUP2 JUMP JUMPDEST PUSH2 0x2606 DUP3 PUSH1 0x8 DUP1 SLOAD DUP1 PUSH1 0x20 MUL PUSH1 0x20 ADD PUSH1 0x40 MLOAD SWAP1 DUP2 ADD PUSH1 0x40 MSTORE DUP1 SWAP3 SWAP2 SWAP1 DUP2 DUP2 MSTORE PUSH1 0x20 ADD PUSH0 SWAP1 JUMPDEST DUP3 DUP3 LT ISZERO PUSH2 0x25FD JUMPI DUP4 DUP3 SWAP1 PUSH0 MSTORE PUSH1 0x20 PUSH0 KECCAK256 SWAP1 PUSH1 0x4 MUL ADD PUSH1 0x40 MLOAD DUP1 PUSH1 0x80 ADD PUSH1 0x40 MSTORE SWAP1 DUP2 PUSH0 DUP3 ADD PUSH0 SWAP1 SLOAD SWAP1 PUSH2 0x100 EXP SWAP1 DIV PUSH20 0xFFFFFFFFFFFFFFFFFFFFFFFFFFFFFFFFFFFFFFFF AND PUSH20 0xFFFFFFFFFFFFFFFFFFFFFFFFFFFFFFFFFFFFFFFF AND PUSH20 0xFFFFFFFFFFFFFFFFFFFFFFFFFFFFFFFFFFFFFFFF AND DUP2 MSTORE PUSH1 0x20 ADD PUSH1 0x1 DUP3 ADD SLOAD DUP2 MSTORE PUSH1 0x20 ADD PUSH1 0x2 DUP3 ADD SLOAD DUP2 MSTORE PUSH1 0x20 ADD PUSH1 0x3 DUP3 ADD DUP1 SLOAD PUSH2 0x256E SWAP1 PUSH2 0x532C JUMP JUMPDEST DUP1 PUSH1 0x1F ADD PUSH1 0x20 DUP1 SWAP2 DIV MUL PUSH1 0x20 ADD PUSH1 0x40 MLOAD SWAP1 DUP2 ADD PUSH1 0x40 MSTORE DUP1 SWAP3 SWAP2 SWAP1 DUP2 DUP2 MSTORE PUSH1 0x20 ADD DUP3 DUP1 SLOAD PUSH2 0x259A SWAP1 PUSH2 0x532C JUMP JUMPDEST DUP1 ISZERO PUSH2 0x25E5 JUMPI DUP1 PUSH1 0x1F LT PUSH2 0x25BC JUMPI PUSH2 0x100 DUP1 DUP4 SLOAD DIV MUL DUP4 MSTORE SWAP2 PUSH1 0x20 ADD SWAP2 PUSH2 0x25E5 JUMP JUMPDEST DUP3 ADD SWAP2 SWAP1 PUSH0 MSTORE PUSH1 0x20 PUSH0 KECCAK256 SWAP1 JUMPDEST DUP2 SLOAD DUP2 MSTORE SWAP1 PUSH1 0x1 ADD SWAP1 PUSH1 0x20 ADD DUP1 DUP4 GT PUSH2 0x25C8 JUMPI DUP3 SWAP1 SUB PUSH1 0x1F AND DUP3 ADD SWAP2 JUMPDEST POP POP POP POP POP DUP2 MSTORE POP POP DUP2 MSTORE PUSH1 0x20 ADD SWAP1 PUSH1 0x1 ADD SWAP1 PUSH2 0x24D5 JUMP JUMPDEST POP POP POP POP PUSH2 0x416E JUMP JUMPDEST PUSH2 0x260E JUMPI PUSH0 DUP1 REVERT JUMPDEST PUSH0 DUP2 GT PUSH2 0x2619 JUMPI PUSH0 DUP1 REVERT JUMPDEST PUSH0 DUP3 SWAP1 POP DUP2 DUP2 PUSH20 0xFFFFFFFFFFFFFFFFFFFFFFFFFFFFFFFFFFFFFFFF AND PUSH4 0x70A08231 CALLER PUSH1 0x40 MLOAD DUP3 PUSH4 0xFFFFFFFF AND PUSH1 0xE0 SHL DUP2 MSTORE PUSH1 0x4 ADD PUSH2 0x2657 SWAP2 SWAP1 PUSH2 0x50BE JUMP JUMPDEST PUSH1 0x20 PUSH1 0x40 MLOAD DUP1 DUP4 SUB DUP2 DUP7 GAS STATICCALL ISZERO DUP1 ISZERO PUSH2 0x2672 JUMPI RETURNDATASIZE PUSH0 DUP1 RETURNDATACOPY RETURNDATASIZE PUSH0 REVERT JUMPDEST POP POP POP POP PUSH1 0x40 MLOAD RETURNDATASIZE PUSH1 0x1F NOT PUSH1 0x1F DUP3 ADD AND DUP3 ADD DUP1 PUSH1 0x40 MSTORE POP DUP2 ADD SWAP1 PUSH2 0x2696 SWAP2 SWAP1 PUSH2 0x56CB JUMP JUMPDEST LT ISZERO PUSH2 0x26A0 JUMPI PUSH0 DUP1 REVERT JUMPDEST DUP1 PUSH20 0xFFFFFFFFFFFFFFFFFFFFFFFFFFFFFFFFFFFFFFFF AND PUSH4 0x23B872DD CALLER ADDRESS DUP6 PUSH1 0x40 MLOAD DUP5 PUSH4 0xFFFFFFFF AND PUSH1 0xE0 SHL DUP2 MSTORE PUSH1 0x4 ADD PUSH2 0x26DD SWAP4 SWAP3 SWAP2 SWAP1 PUSH2 0x5460 JUMP JUMPDEST PUSH1 0x20 PUSH1 0x40 MLOAD DUP1 DUP4 SUB DUP2 PUSH0 DUP8 GAS CALL ISZERO DUP1 ISZERO PUSH2 0x26F9 JUMPI RETURNDATASIZE PUSH0 DUP1 RETURNDATACOPY RETURNDATASIZE PUSH0 REVERT JUMPDEST POP POP POP POP PUSH1 0x40 MLOAD RETURNDATASIZE PUSH1 0x1F NOT PUSH1 0x1F DUP3 ADD AND DUP3 ADD DUP1 PUSH1 0x40 MSTORE POP DUP2 ADD SWAP1 PUSH2 0x271D SWAP2 SWAP1 PUSH2 0x54BF JUMP JUMPDEST POP PUSH0 DUP1 PUSH2 0x27CC PUSH1 0x1 DUP1 SLOAD DUP1 PUSH1 0x20 MUL PUSH1 0x20 ADD PUSH1 0x40 MLOAD SWAP1 DUP2 ADD PUSH1 0x40 MSTORE DUP1 SWAP3 SWAP2 SWAP1 DUP2 DUP2 MSTORE PUSH1 0x20 ADD DUP3 DUP1 SLOAD DUP1 ISZERO PUSH2 0x27A2 JUMPI PUSH1 0x20 MUL DUP3 ADD SWAP2 SWAP1 PUSH0 MSTORE PUSH1 0x20 PUSH0 KECCAK256 SWAP1 JUMPDEST DUP2 PUSH0 SWAP1 SLOAD SWAP1 PUSH2 0x100 EXP SWAP1 DIV PUSH20 0xFFFFFFFFFFFFFFFFFFFFFFFFFFFFFFFFFFFFFFFF AND PUSH20 0xFFFFFFFFFFFFFFFFFFFFFFFFFFFFFFFFFFFFFFFF AND DUP2 MSTORE PUSH1 0x20 ADD SWAP1 PUSH1 0x1 ADD SWAP1 DUP1 DUP4 GT PUSH2 0x2759 JUMPI JUMPDEST POP POP POP POP POP CALLER PUSH20 0xFFFFFFFFFFFFFFFFFFFFFFFFFFFFFFFFFFFFFFFF AND PUSH2 0x41F6 SWAP1 SWAP2 SWAP1 PUSH4 0xFFFFFFFF AND JUMP JUMPDEST SWAP2 POP SWAP2 POP DUP2 ISZERO PUSH2 0x281C JUMPI PUSH2 0x2817 DUP6 DUP6 DUP4 PUSH1 0x40 MLOAD DUP1 PUSH1 0x40 ADD PUSH1 0x40 MSTORE DUP1 PUSH1 0x7 DUP2 MSTORE PUSH1 0x20 ADD PUSH32 0x6C656E6465727300000000000000000000000000000000000000000000000000 DUP2 MSTORE POP PUSH2 0x42A3 JUMP JUMPDEST PUSH2 0x2999 JUMP JUMPDEST PUSH1 0x1 CALLER SWAP1 DUP1 PUSH1 0x1 DUP2 SLOAD ADD DUP1 DUP3 SSTORE DUP1 SWAP2 POP POP PUSH1 0x1 SWAP1 SUB SWAP1 PUSH0 MSTORE PUSH1 0x20 PUSH0 KECCAK256 ADD PUSH0 SWAP1 SWAP2 SWAP1 SWAP2 SWAP1 SWAP2 PUSH2 0x100 EXP DUP2 SLOAD DUP2 PUSH20 0xFFFFFFFFFFFFFFFFFFFFFFFFFFFFFFFFFFFFFFFF MUL NOT AND SWAP1 DUP4 PUSH20 0xFFFFFFFFFFFFFFFFFFFFFFFFFFFFFFFFFFFFFFFF AND MUL OR SWAP1 SSTORE POP DUP4 PUSH1 0x3 PUSH0 DUP8 PUSH20 0xFFFFFFFFFFFFFFFFFFFFFFFFFFFFFFFFFFFFFFFF AND PUSH20 0xFFFFFFFFFFFFFFFFFFFFFFFFFFFFFFFFFFFFFFFF AND DUP2 MSTORE PUSH1 0x20 ADD SWAP1 DUP2 MSTORE PUSH1 0x20 ADD PUSH0 KECCAK256 PUSH0 CALLER PUSH20 0xFFFFFFFFFFFFFFFFFFFFFFFFFFFFFFFFFFFFFFFF AND PUSH20 0xFFFFFFFFFFFFFFFFFFFFFFFFFFFFFFFFFFFFFFFF AND DUP2 MSTORE PUSH1 0x20 ADD SWAP1 DUP2 MSTORE PUSH1 0x20 ADD PUSH0 KECCAK256 DUP2 SWAP1 SSTORE POP DUP5 PUSH1 0x5 PUSH0 PUSH1 0xB PUSH0 DUP2 SLOAD DUP1 SWAP3 SWAP2 SWAP1 PUSH2 0x290F SWAP1 PUSH2 0x575E JUMP JUMPDEST SWAP2 SWAP1 POP SSTORE DUP2 MSTORE PUSH1 0x20 ADD SWAP1 DUP2 MSTORE PUSH1 0x20 ADD PUSH0 KECCAK256 PUSH0 CALLER PUSH20 0xFFFFFFFFFFFFFFFFFFFFFFFFFFFFFFFFFFFFFFFF AND PUSH20 0xFFFFFFFFFFFFFFFFFFFFFFFFFFFFFFFFFFFFFFFF AND DUP2 MSTORE PUSH1 0x20 ADD SWAP1 DUP2 MSTORE PUSH1 0x20 ADD PUSH0 KECCAK256 PUSH0 PUSH2 0x100 EXP DUP2 SLOAD DUP2 PUSH20 0xFFFFFFFFFFFFFFFFFFFFFFFFFFFFFFFFFFFFFFFF MUL NOT AND SWAP1 DUP4 PUSH20 0xFFFFFFFFFFFFFFFFFFFFFFFFFFFFFFFFFFFFFFFF AND MUL OR SWAP1 SSTORE POP JUMPDEST PUSH1 0xA PUSH0 SWAP1 SLOAD SWAP1 PUSH2 0x100 EXP SWAP1 DIV PUSH20 0xFFFFFFFFFFFFFFFFFFFFFFFFFFFFFFFFFFFFFFFF AND PUSH20 0xFFFFFFFFFFFFFFFFFFFFFFFFFFFFFFFFFFFFFFFF AND PUSH4 0xA9059CBB CALLER PUSH2 0x29E1 DUP8 DUP10 PUSH2 0x3AFD JUMP JUMPDEST PUSH1 0x40 MLOAD DUP4 PUSH4 0xFFFFFFFF AND PUSH1 0xE0 SHL DUP2 MSTORE PUSH1 0x4 ADD PUSH2 0x29FE SWAP3 SWAP2 SWAP1 PUSH2 0x5439 JUMP JUMPDEST PUSH1 0x20 PUSH1 0x40 MLOAD DUP1 DUP4 SUB DUP2 PUSH0 DUP8 GAS CALL ISZERO DUP1 ISZERO PUSH2 0x2A1A JUMPI RETURNDATASIZE PUSH0 DUP1 RETURNDATACOPY RETURNDATASIZE PUSH0 REVERT JUMPDEST POP POP POP POP PUSH1 0x40 MLOAD RETURNDATASIZE PUSH1 0x1F NOT PUSH1 0x1F DUP3 ADD AND DUP3 ADD DUP1 PUSH1 0x40 MSTORE POP DUP2 ADD SWAP1 PUSH2 0x2A3E SWAP2 SWAP1 PUSH2 0x54BF JUMP JUMPDEST POP PUSH32 0xBB33FFE04605A99E7885B3013BCC050161D1906B3611F09FED70A0C61E1F03DE CALLER PUSH1 0x1 PUSH1 0x3 PUSH0 DUP10 PUSH20 0xFFFFFFFFFFFFFFFFFFFFFFFFFFFFFFFFFFFFFFFF AND PUSH20 0xFFFFFFFFFFFFFFFFFFFFFFFFFFFFFFFFFFFFFFFF AND DUP2 MSTORE PUSH1 0x20 ADD SWAP1 DUP2 MSTORE PUSH1 0x20 ADD PUSH0 KECCAK256 PUSH0 CALLER PUSH20 0xFFFFFFFFFFFFFFFFFFFFFFFFFFFFFFFFFFFFFFFF AND PUSH20 0xFFFFFFFFFFFFFFFFFFFFFFFFFFFFFFFFFFFFFFFF AND DUP2 MSTORE PUSH1 0x20 ADD SWAP1 DUP2 MSTORE PUSH1 0x20 ADD PUSH0 KECCAK256 SLOAD PUSH1 0x40 MLOAD PUSH2 0x2AEB SWAP4 SWAP3 SWAP2 SWAP1 PUSH2 0x5925 JUMP JUMPDEST PUSH1 0x40 MLOAD DUP1 SWAP2 SUB SWAP1 LOG1 POP POP POP POP POP JUMP JUMPDEST PUSH0 DUP1 PUSH0 SWAP1 POP PUSH0 JUMPDEST PUSH1 0xB SLOAD DUP2 LT ISZERO PUSH2 0x2D26 JUMPI PUSH0 PUSH20 0xFFFFFFFFFFFFFFFFFFFFFFFFFFFFFFFFFFFFFFFF AND PUSH1 0x5 PUSH0 DUP4 DUP2 MSTORE PUSH1 0x20 ADD SWAP1 DUP2 MSTORE PUSH1 0x20 ADD PUSH0 KECCAK256 PUSH0 DUP7 PUSH20 0xFFFFFFFFFFFFFFFFFFFFFFFFFFFFFFFFFFFFFFFF AND PUSH20 0xFFFFFFFFFFFFFFFFFFFFFFFFFFFFFFFFFFFFFFFF AND DUP2 MSTORE PUSH1 0x20 ADD SWAP1 DUP2 MSTORE PUSH1 0x20 ADD PUSH0 KECCAK256 PUSH0 SWAP1 SLOAD SWAP1 PUSH2 0x100 EXP SWAP1 DIV PUSH20 0xFFFFFFFFFFFFFFFFFFFFFFFFFFFFFFFFFFFFFFFF AND PUSH20 0xFFFFFFFFFFFFFFFFFFFFFFFFFFFFFFFFFFFFFFFF AND EQ PUSH2 0x2D19 JUMPI PUSH0 PUSH1 0x3 PUSH0 PUSH1 0x5 PUSH0 DUP6 DUP2 MSTORE PUSH1 0x20 ADD SWAP1 DUP2 MSTORE PUSH1 0x20 ADD PUSH0 KECCAK256 PUSH0 DUP9 PUSH20 0xFFFFFFFFFFFFFFFFFFFFFFFFFFFFFFFFFFFFFFFF AND PUSH20 0xFFFFFFFFFFFFFFFFFFFFFFFFFFFFFFFFFFFFFFFF AND DUP2 MSTORE PUSH1 0x20 ADD SWAP1 DUP2 MSTORE PUSH1 0x20 ADD PUSH0 KECCAK256 PUSH0 SWAP1 SLOAD SWAP1 PUSH2 0x100 EXP SWAP1 DIV PUSH20 0xFFFFFFFFFFFFFFFFFFFFFFFFFFFFFFFFFFFFFFFF AND PUSH20 0xFFFFFFFFFFFFFFFFFFFFFFFFFFFFFFFFFFFFFFFF AND PUSH20 0xFFFFFFFFFFFFFFFFFFFFFFFFFFFFFFFFFFFFFFFF AND DUP2 MSTORE PUSH1 0x20 ADD SWAP1 DUP2 MSTORE PUSH1 0x20 ADD PUSH0 KECCAK256 PUSH0 DUP7 PUSH20 0xFFFFFFFFFFFFFFFFFFFFFFFFFFFFFFFFFFFFFFFF AND PUSH20 0xFFFFFFFFFFFFFFFFFFFFFFFFFFFFFFFFFFFFFFFF AND DUP2 MSTORE PUSH1 0x20 ADD SWAP1 DUP2 MSTORE PUSH1 0x20 ADD PUSH0 KECCAK256 SLOAD SWAP1 POP PUSH0 PUSH2 0x2D06 DUP3 PUSH1 0x5 PUSH0 DUP7 DUP2 MSTORE PUSH1 0x20 ADD SWAP1 DUP2 MSTORE PUSH1 0x20 ADD PUSH0 KECCAK256 PUSH0 DUP10 PUSH20 0xFFFFFFFFFFFFFFFFFFFFFFFFFFFFFFFFFFFFFFFF AND PUSH20 0xFFFFFFFFFFFFFFFFFFFFFFFFFFFFFFFFFFFFFFFF AND DUP2 MSTORE PUSH1 0x20 ADD SWAP1 DUP2 MSTORE PUSH1 0x20 ADD PUSH0 KECCAK256 PUSH0 SWAP1 SLOAD SWAP1 PUSH2 0x100 EXP SWAP1 DIV PUSH20 0xFFFFFFFFFFFFFFFFFFFFFFFFFFFFFFFFFFFFFFFF AND PUSH2 0x3AFD JUMP JUMPDEST SWAP1 POP DUP1 DUP5 PUSH2 0x2D14 SWAP2 SWAP1 PUSH2 0x52CC JUMP JUMPDEST SWAP4 POP POP POP JUMPDEST DUP1 DUP1 PUSH1 0x1 ADD SWAP2 POP POP PUSH2 0x2B01 JUMP JUMPDEST POP DUP1 SWAP2 POP POP SWAP2 SWAP1 POP JUMP JUMPDEST PUSH1 0x4 PUSH1 0x20 MSTORE DUP2 PUSH0 MSTORE PUSH1 0x40 PUSH0 KECCAK256 PUSH1 0x20 MSTORE DUP1 PUSH0 MSTORE PUSH1 0x40 PUSH0 KECCAK256 PUSH0 SWAP2 POP SWAP2 POP POP SLOAD DUP2 JUMP JUMPDEST PUSH0 DUP1 PUSH0 SWAP1 POP PUSH0 JUMPDEST PUSH1 0xB SLOAD DUP2 LT ISZERO PUSH2 0x2ED0 JUMPI PUSH0 PUSH1 0x5 PUSH0 DUP4 DUP2 MSTORE PUSH1 0x20 ADD SWAP1 DUP2 MSTORE PUSH1 0x20 ADD PUSH0 KECCAK256 PUSH0 DUP7 PUSH20 0xFFFFFFFFFFFFFFFFFFFFFFFFFFFFFFFFFFFFFFFF AND PUSH20 0xFFFFFFFFFFFFFFFFFFFFFFFFFFFFFFFFFFFFFFFF AND DUP2 MSTORE PUSH1 0x20 ADD SWAP1 DUP2 MSTORE PUSH1 0x20 ADD PUSH0 KECCAK256 PUSH0 SWAP1 SLOAD SWAP1 PUSH2 0x100 EXP SWAP1 DIV PUSH20 0xFFFFFFFFFFFFFFFFFFFFFFFFFFFFFFFFFFFFFFFF AND SWAP1 POP PUSH0 PUSH20 0xFFFFFFFFFFFFFFFFFFFFFFFFFFFFFFFFFFFFFFFF AND DUP2 PUSH20 0xFFFFFFFFFFFFFFFFFFFFFFFFFFFFFFFFFFFFFFFF AND EQ PUSH2 0x2EC2 JUMPI PUSH0 PUSH2 0x2E86 PUSH1 0x3 PUSH0 DUP5 PUSH20 0xFFFFFFFFFFFFFFFFFFFFFFFFFFFFFFFFFFFFFFFF AND PUSH20 0xFFFFFFFFFFFFFFFFFFFFFFFFFFFFFFFFFFFFFFFF AND DUP2 MSTORE PUSH1 0x20 ADD SWAP1 DUP2 MSTORE PUSH1 0x20 ADD PUSH0 KECCAK256 PUSH0 DUP9 PUSH20 0xFFFFFFFFFFFFFFFFFFFFFFFFFFFFFFFFFFFFFFFF AND PUSH20 0xFFFFFFFFFFFFFFFFFFFFFFFFFFFFFFFFFFFFFFFF AND DUP2 MSTORE PUSH1 0x20 ADD SWAP1 DUP2 MSTORE PUSH1 0x20 ADD PUSH0 KECCAK256 SLOAD DUP4 PUSH2 0x3AFD JUMP JUMPDEST SWAP1 POP PUSH8 0xDE0B6B3A7640000 PUSH2 0x2E9A DUP4 PUSH2 0x3B3F JUMP JUMPDEST PUSH1 0x20 ADD MLOAD DUP3 PUSH2 0x2EA9 SWAP2 SWAP1 PUSH2 0x535C JUMP JUMPDEST PUSH2 0x2EB3 SWAP2 SWAP1 PUSH2 0x53CA JUMP JUMPDEST DUP5 PUSH2 0x2EBE SWAP2 SWAP1 PUSH2 0x52CC JUMP JUMPDEST SWAP4 POP POP JUMPDEST POP DUP1 DUP1 PUSH1 0x1 ADD SWAP2 POP POP PUSH2 0x2D57 JUMP JUMPDEST POP DUP1 SWAP2 POP POP SWAP2 SWAP1 POP JUMP JUMPDEST PUSH0 DUP1 PUSH0 SWAP1 POP PUSH0 PUSH1 0x2 DUP1 SLOAD SWAP1 POP GT ISZERO PUSH2 0x2FCB JUMPI PUSH0 JUMPDEST PUSH1 0x2 DUP1 SLOAD SWAP1 POP DUP2 LT ISZERO PUSH2 0x2FC9 JUMPI PUSH1 0x4 PUSH0 DUP6 PUSH20 0xFFFFFFFFFFFFFFFFFFFFFFFFFFFFFFFFFFFFFFFF AND PUSH20 0xFFFFFFFFFFFFFFFFFFFFFFFFFFFFFFFFFFFFFFFF AND DUP2 MSTORE PUSH1 0x20 ADD SWAP1 DUP2 MSTORE PUSH1 0x20 ADD PUSH0 KECCAK256 PUSH0 PUSH1 0x2 DUP4 DUP2 SLOAD DUP2 LT PUSH2 0x2F4D JUMPI PUSH2 0x2F4C PUSH2 0x5272 JUMP JUMPDEST JUMPDEST SWAP1 PUSH0 MSTORE PUSH1 0x20 PUSH0 KECCAK256 ADD PUSH0 SWAP1 SLOAD SWAP1 PUSH2 0x100 EXP SWAP1 DIV PUSH20 0xFFFFFFFFFFFFFFFFFFFFFFFFFFFFFFFFFFFFFFFF AND PUSH20 0xFFFFFFFFFFFFFFFFFFFFFFFFFFFFFFFFFFFFFFFF AND PUSH20 0xFFFFFFFFFFFFFFFFFFFFFFFFFFFFFFFFFFFFFFFF AND DUP2 MSTORE PUSH1 0x20 ADD SWAP1 DUP2 MSTORE PUSH1 0x20 ADD PUSH0 KECCAK256 SLOAD DUP3 PUSH2 0x2FBA SWAP2 SWAP1 PUSH2 0x52CC JUMP JUMPDEST SWAP2 POP DUP1 DUP1 PUSH1 0x1 ADD SWAP2 POP POP PUSH2 0x2EEE JUMP JUMPDEST POP JUMPDEST DUP1 SWAP2 POP POP SWAP2 SWAP1 POP JUMP JUMPDEST PUSH2 0x2FDC PUSH2 0x47C2 JUMP JUMPDEST DUP1 PUSH1 0x7 PUSH0 DUP5 PUSH20 0xFFFFFFFFFFFFFFFFFFFFFFFFFFFFFFFFFFFFFFFF AND PUSH20 0xFFFFFFFFFFFFFFFFFFFFFFFFFFFFFFFFFFFFFFFF AND DUP2 MSTORE PUSH1 0x20 ADD SWAP1 DUP2 MSTORE PUSH1 0x20 ADD PUSH0 KECCAK256 PUSH0 PUSH2 0x100 EXP DUP2 SLOAD DUP2 PUSH20 0xFFFFFFFFFFFFFFFFFFFFFFFFFFFFFFFFFFFFFFFF MUL NOT AND SWAP1 DUP4 PUSH20 0xFFFFFFFFFFFFFFFFFFFFFFFFFFFFFFFFFFFFFFFF AND MUL OR SWAP1 SSTORE POP POP POP JUMP JUMPDEST PUSH1 0xB SLOAD DUP2 JUMP JUMPDEST PUSH2 0x3069 PUSH2 0x47C2 JUMP JUMPDEST PUSH0 PUSH1 0x40 MLOAD DUP1 PUSH1 0x80 ADD PUSH1 0x40 MSTORE DUP1 DUP6 PUSH20 0xFFFFFFFFFFFFFFFFFFFFFFFFFFFFFFFFFFFFFFFF AND DUP2 MSTORE PUSH1 0x20 ADD DUP5 DUP2 MSTORE PUSH1 0x20 ADD DUP4 DUP2 MSTORE PUSH1 0x20 ADD DUP7 DUP2 MSTORE POP SWAP1 POP PUSH2 0x31F9 DUP2 PUSH1 0x8 DUP1 SLOAD DUP1 PUSH1 0x20 MUL PUSH1 0x20 ADD PUSH1 0x40 MLOAD SWAP1 DUP2 ADD PUSH1 0x40 MSTORE DUP1 SWAP3 SWAP2 SWAP1 DUP2 DUP2 MSTORE PUSH1 0x20 ADD PUSH0 SWAP1 JUMPDEST DUP3 DUP3 LT ISZERO PUSH2 0x31F0 JUMPI DUP4 DUP3 SWAP1 PUSH0 MSTORE PUSH1 0x20 PUSH0 KECCAK256 SWAP1 PUSH1 0x4 MUL ADD PUSH1 0x40 MLOAD DUP1 PUSH1 0x80 ADD PUSH1 0x40 MSTORE SWAP1 DUP2 PUSH0 DUP3 ADD PUSH0 SWAP1 SLOAD SWAP1 PUSH2 0x100 EXP SWAP1 DIV PUSH20 0xFFFFFFFFFFFFFFFFFFFFFFFFFFFFFFFFFFFFFFFF AND PUSH20 0xFFFFFFFFFFFFFFFFFFFFFFFFFFFFFFFFFFFFFFFF AND PUSH20 0xFFFFFFFFFFFFFFFFFFFFFFFFFFFFFFFFFFFFFFFF AND DUP2 MSTORE PUSH1 0x20 ADD PUSH1 0x1 DUP3 ADD SLOAD DUP2 MSTORE PUSH1 0x20 ADD PUSH1 0x2 DUP3 ADD SLOAD DUP2 MSTORE PUSH1 0x20 ADD PUSH1 0x3 DUP3 ADD DUP1 SLOAD PUSH2 0x3161 SWAP1 PUSH2 0x532C JUMP JUMPDEST DUP1 PUSH1 0x1F ADD PUSH1 0x20 DUP1 SWAP2 DIV MUL PUSH1 0x20 ADD PUSH1 0x40 MLOAD SWAP1 DUP2 ADD PUSH1 0x40 MSTORE DUP1 SWAP3 SWAP2 SWAP1 DUP2 DUP2 MSTORE PUSH1 0x20 ADD DUP3 DUP1 SLOAD PUSH2 0x318D SWAP1 PUSH2 0x532C JUMP JUMPDEST DUP1 ISZERO PUSH2 0x31D8 JUMPI DUP1 PUSH1 0x1F LT PUSH2 0x31AF JUMPI PUSH2 0x100 DUP1 DUP4 SLOAD DIV MUL DUP4 MSTORE SWAP2 PUSH1 0x20 ADD SWAP2 PUSH2 0x31D8 JUMP JUMPDEST DUP3 ADD SWAP2 SWAP1 PUSH0 MSTORE PUSH1 0x20 PUSH0 KECCAK256 SWAP1 JUMPDEST DUP2 SLOAD DUP2 MSTORE SWAP1 PUSH1 0x1 ADD SWAP1 PUSH1 0x20 ADD DUP1 DUP4 GT PUSH2 0x31BB JUMPI DUP3 SWAP1 SUB PUSH1 0x1F AND DUP3 ADD SWAP2 JUMPDEST POP POP POP POP POP DUP2 MSTORE POP POP DUP2 MSTORE PUSH1 0x20 ADD SWAP1 PUSH1 0x1 ADD SWAP1 PUSH2 0x30C8 JUMP JUMPDEST POP POP POP POP PUSH2 0x490A JUMP JUMPDEST PUSH2 0x3297 JUMPI PUSH1 0x8 DUP2 SWAP1 DUP1 PUSH1 0x1 DUP2 SLOAD ADD DUP1 DUP3 SSTORE DUP1 SWAP2 POP POP PUSH1 0x1 SWAP1 SUB SWAP1 PUSH0 MSTORE PUSH1 0x20 PUSH0 KECCAK256 SWAP1 PUSH1 0x4 MUL ADD PUSH0 SWAP1 SWAP2 SWAP1 SWAP2 SWAP1 SWAP2 POP PUSH0 DUP3 ADD MLOAD DUP2 PUSH0 ADD PUSH0 PUSH2 0x100 EXP DUP2 SLOAD DUP2 PUSH20 0xFFFFFFFFFFFFFFFFFFFFFFFFFFFFFFFFFFFFFFFF MUL NOT AND SWAP1 DUP4 PUSH20 0xFFFFFFFFFFFFFFFFFFFFFFFFFFFFFFFFFFFFFFFF AND MUL OR SWAP1 SSTORE POP PUSH1 0x20 DUP3 ADD MLOAD DUP2 PUSH1 0x1 ADD SSTORE PUSH1 0x40 DUP3 ADD MLOAD DUP2 PUSH1 0x2 ADD SSTORE PUSH1 0x60 DUP3 ADD MLOAD DUP2 PUSH1 0x3 ADD SWAP1 DUP2 PUSH2 0x3293 SWAP2 SWAP1 PUSH2 0x5AF5 JUMP JUMPDEST POP POP POP JUMPDEST POP POP POP POP POP JUMP JUMPDEST PUSH1 0x5 PUSH1 0x20 MSTORE DUP2 PUSH0 MSTORE PUSH1 0x40 PUSH0 KECCAK256 PUSH1 0x20 MSTORE DUP1 PUSH0 MSTORE PUSH1 0x40 PUSH0 KECCAK256 PUSH0 SWAP2 POP SWAP2 POP SWAP1 SLOAD SWAP1 PUSH2 0x100 EXP SWAP1 DIV PUSH20 0xFFFFFFFFFFFFFFFFFFFFFFFFFFFFFFFFFFFFFFFF AND DUP2 JUMP JUMPDEST PUSH1 0x60 PUSH1 0x9 DUP1 SLOAD DUP1 PUSH1 0x20 MUL PUSH1 0x20 ADD PUSH1 0x40 MLOAD SWAP1 DUP2 ADD PUSH1 0x40 MSTORE DUP1 SWAP3 SWAP2 SWAP1 DUP2 DUP2 MSTORE PUSH1 0x20 ADD PUSH0 SWAP1 JUMPDEST DUP3 DUP3 LT ISZERO PUSH2 0x3426 JUMPI DUP4 DUP3 SWAP1 PUSH0 MSTORE PUSH1 0x20 PUSH0 KECCAK256 SWAP1 PUSH1 0x4 MUL ADD PUSH1 0x40 MLOAD DUP1 PUSH1 0x80 ADD PUSH1 0x40 MSTORE SWAP1 DUP2 PUSH0 DUP3 ADD PUSH0 SWAP1 SLOAD SWAP1 PUSH2 0x100 EXP SWAP1 DIV PUSH20 0xFFFFFFFFFFFFFFFFFFFFFFFFFFFFFFFFFFFFFFFF AND PUSH20 0xFFFFFFFFFFFFFFFFFFFFFFFFFFFFFFFFFFFFFFFF AND PUSH20 0xFFFFFFFFFFFFFFFFFFFFFFFFFFFFFFFFFFFFFFFF AND DUP2 MSTORE PUSH1 0x20 ADD PUSH1 0x1 DUP3 ADD SLOAD DUP2 MSTORE PUSH1 0x20 ADD PUSH1 0x2 DUP3 ADD SLOAD DUP2 MSTORE PUSH1 0x20 ADD PUSH1 0x3 DUP3 ADD DUP1 SLOAD PUSH2 0x3397 SWAP1 PUSH2 0x532C JUMP JUMPDEST DUP1 PUSH1 0x1F ADD PUSH1 0x20 DUP1 SWAP2 DIV MUL PUSH1 0x20 ADD PUSH1 0x40 MLOAD SWAP1 DUP2 ADD PUSH1 0x40 MSTORE DUP1 SWAP3 SWAP2 SWAP1 DUP2 DUP2 MSTORE PUSH1 0x20 ADD DUP3 DUP1 SLOAD PUSH2 0x33C3 SWAP1 PUSH2 0x532C JUMP JUMPDEST DUP1 ISZERO PUSH2 0x340E JUMPI DUP1 PUSH1 0x1F LT PUSH2 0x33E5 JUMPI PUSH2 0x100 DUP1 DUP4 SLOAD DIV MUL DUP4 MSTORE SWAP2 PUSH1 0x20 ADD SWAP2 PUSH2 0x340E JUMP JUMPDEST DUP3 ADD SWAP2 SWAP1 PUSH0 MSTORE PUSH1 0x20 PUSH0 KECCAK256 SWAP1 JUMPDEST DUP2 SLOAD DUP2 MSTORE SWAP1 PUSH1 0x1 ADD SWAP1 PUSH1 0x20 ADD DUP1 DUP4 GT PUSH2 0x33F1 JUMPI DUP3 SWAP1 SUB PUSH1 0x1F AND DUP3 ADD SWAP2 JUMPDEST POP POP POP POP POP DUP2 MSTORE POP POP DUP2 MSTORE PUSH1 0x20 ADD SWAP1 PUSH1 0x1 ADD SWAP1 PUSH2 0x32FE JUMP JUMPDEST POP POP POP POP SWAP1 POP SWAP1 JUMP JUMPDEST PUSH2 0x3437 PUSH2 0x47C2 JUMP JUMPDEST PUSH0 PUSH20 0xFFFFFFFFFFFFFFFFFFFFFFFFFFFFFFFFFFFFFFFF AND DUP2 PUSH20 0xFFFFFFFFFFFFFFFFFFFFFFFFFFFFFFFFFFFFFFFF AND SUB PUSH2 0x34A7 JUMPI PUSH0 PUSH1 0x40 MLOAD PUSH32 0x1E4FBDF700000000000000000000000000000000000000000000000000000000 DUP2 MSTORE PUSH1 0x4 ADD PUSH2 0x349E SWAP2 SWAP1 PUSH2 0x50BE JUMP JUMPDEST PUSH1 0x40 MLOAD DUP1 SWAP2 SUB SWAP1 REVERT JUMPDEST PUSH2 0x34B0 DUP2 PUSH2 0x4849 JUMP JUMPDEST POP JUMP JUMPDEST PUSH0 DUP2 GT PUSH2 0x34BE JUMPI PUSH0 DUP1 REVERT JUMPDEST PUSH0 PUSH2 0x356B PUSH1 0x1 DUP1 SLOAD DUP1 PUSH1 0x20 MUL PUSH1 0x20 ADD PUSH1 0x40 MLOAD SWAP1 DUP2 ADD PUSH1 0x40 MSTORE DUP1 SWAP3 SWAP2 SWAP1 DUP2 DUP2 MSTORE PUSH1 0x20 ADD DUP3 DUP1 SLOAD DUP1 ISZERO PUSH2 0x3541 JUMPI PUSH1 0x20 MUL DUP3 ADD SWAP2 SWAP1 PUSH0 MSTORE PUSH1 0x20 PUSH0 KECCAK256 SWAP1 JUMPDEST DUP2 PUSH0 SWAP1 SLOAD SWAP1 PUSH2 0x100 EXP SWAP1 DIV PUSH20 0xFFFFFFFFFFFFFFFFFFFFFFFFFFFFFFFFFFFFFFFF AND PUSH20 0xFFFFFFFFFFFFFFFFFFFFFFFFFFFFFFFFFFFFFFFF AND DUP2 MSTORE PUSH1 0x20 ADD SWAP1 PUSH1 0x1 ADD SWAP1 DUP1 DUP4 GT PUSH2 0x34F8 JUMPI JUMPDEST POP POP POP POP POP CALLER PUSH20 0xFFFFFFFFFFFFFFFFFFFFFFFFFFFFFFFFFFFFFFFF AND PUSH2 0x40D1 SWAP1 SWAP2 SWAP1 PUSH4 0xFFFFFFFF AND JUMP JUMPDEST SLT ISZERO PUSH2 0x3575 JUMPI PUSH0 DUP1 REVERT JUMPDEST PUSH0 DUP3 SWAP1 POP PUSH0 PUSH2 0x3584 DUP4 DUP6 PUSH2 0x3AFD JUMP JUMPDEST SWAP1 POP PUSH0 PUSH2 0x3590 CALLER PUSH2 0x1D84 JUMP JUMPDEST SWAP1 POP PUSH0 PUSH2 0x359C DUP7 PUSH2 0x9B5 JUMP JUMPDEST SWAP1 POP PUSH0 PUSH2 0x35A8 DUP8 PUSH2 0x2EDA JUMP JUMPDEST SWAP1 POP DUP1 DUP3 PUSH2 0x35B6 SWAP2 SWAP1 PUSH2 0x54EA JUMP JUMPDEST DUP7 GT ISZERO PUSH2 0x35C1 JUMPI PUSH0 DUP1 REVERT JUMPDEST PUSH32 0xA3F1253C66C67D41B745DD1CAFF0E52D3FB3AEFDF8DD746B6AF0C96D1F29E3BC CALLER DUP6 DUP6 PUSH1 0x40 MLOAD PUSH2 0x35F4 SWAP4 SWAP3 SWAP2 SWAP1 PUSH2 0x5682 JUMP JUMPDEST PUSH1 0x40 MLOAD DUP1 SWAP2 SUB SWAP1 LOG1 DUP3 DUP5 GT ISZERO PUSH2 0x3608 JUMPI PUSH0 DUP1 REVERT JUMPDEST PUSH0 PUSH2 0x3613 DUP8 DUP10 PUSH2 0x3AFD JUMP JUMPDEST SWAP1 POP PUSH0 PUSH1 0xA PUSH0 SWAP1 SLOAD SWAP1 PUSH2 0x100 EXP SWAP1 DIV PUSH20 0xFFFFFFFFFFFFFFFFFFFFFFFFFFFFFFFFFFFFFFFF AND PUSH20 0xFFFFFFFFFFFFFFFFFFFFFFFFFFFFFFFFFFFFFFFF AND PUSH4 0x70A08231 CALLER PUSH1 0x40 MLOAD DUP3 PUSH4 0xFFFFFFFF AND PUSH1 0xE0 SHL DUP2 MSTORE PUSH1 0x4 ADD PUSH2 0x3670 SWAP2 SWAP1 PUSH2 0x50BE JUMP JUMPDEST PUSH1 0x20 PUSH1 0x40 MLOAD DUP1 DUP4 SUB DUP2 DUP7 GAS STATICCALL ISZERO DUP1 ISZERO PUSH2 0x368B JUMPI RETURNDATASIZE PUSH0 DUP1 RETURNDATACOPY RETURNDATASIZE PUSH0 REVERT JUMPDEST POP POP POP POP PUSH1 0x40 MLOAD RETURNDATASIZE PUSH1 0x1F NOT PUSH1 0x1F DUP3 ADD AND DUP3 ADD DUP1 PUSH1 0x40 MSTORE POP DUP2 ADD SWAP1 PUSH2 0x36AF SWAP2 SWAP1 PUSH2 0x56CB JUMP JUMPDEST SWAP1 POP DUP1 DUP3 GT PUSH2 0x375C JUMPI PUSH1 0xA PUSH0 SWAP1 SLOAD SWAP1 PUSH2 0x100 EXP SWAP1 DIV PUSH20 0xFFFFFFFFFFFFFFFFFFFFFFFFFFFFFFFFFFFFFFFF AND PUSH20 0xFFFFFFFFFFFFFFFFFFFFFFFFFFFFFFFFFFFFFFFF AND PUSH4 0x23B872DD CALLER ADDRESS DUP6 PUSH1 0x40 MLOAD DUP5 PUSH4 0xFFFFFFFF AND PUSH1 0xE0 SHL DUP2 MSTORE PUSH1 0x4 ADD PUSH2 0x3716 SWAP4 SWAP3 SWAP2 SWAP1 PUSH2 0x5460 JUMP JUMPDEST PUSH1 0x20 PUSH1 0x40 MLOAD DUP1 DUP4 SUB DUP2 PUSH0 DUP8 GAS CALL ISZERO DUP1 ISZERO PUSH2 0x3732 JUMPI RETURNDATASIZE PUSH0 DUP1 RETURNDATACOPY RETURNDATASIZE PUSH0 REVERT JUMPDEST POP POP POP POP PUSH1 0x40 MLOAD RETURNDATASIZE PUSH1 0x1F NOT PUSH1 0x1F DUP3 ADD AND DUP3 ADD DUP1 PUSH1 0x40 MSTORE POP DUP2 ADD SWAP1 PUSH2 0x3756 SWAP2 SWAP1 PUSH2 0x54BF JUMP JUMPDEST POP PUSH2 0x37FC JUMP JUMPDEST PUSH1 0xA PUSH0 SWAP1 SLOAD SWAP1 PUSH2 0x100 EXP SWAP1 DIV PUSH20 0xFFFFFFFFFFFFFFFFFFFFFFFFFFFFFFFFFFFFFFFF AND PUSH20 0xFFFFFFFFFFFFFFFFFFFFFFFFFFFFFFFFFFFFFFFF AND PUSH4 0x23B872DD CALLER ADDRESS DUP5 PUSH1 0x40 MLOAD DUP5 PUSH4 0xFFFFFFFF AND PUSH1 0xE0 SHL DUP2 MSTORE PUSH1 0x4 ADD PUSH2 0x37BA SWAP4 SWAP3 SWAP2 SWAP1 PUSH2 0x5460 JUMP JUMPDEST PUSH1 0x20 PUSH1 0x40 MLOAD DUP1 DUP4 SUB DUP2 PUSH0 DUP8 GAS CALL ISZERO DUP1 ISZERO PUSH2 0x37D6 JUMPI RETURNDATASIZE PUSH0 DUP1 RETURNDATACOPY RETURNDATASIZE PUSH0 REVERT JUMPDEST POP POP POP POP PUSH1 0x40 MLOAD RETURNDATASIZE PUSH1 0x1F NOT PUSH1 0x1F DUP3 ADD AND DUP3 ADD DUP1 PUSH1 0x40 MSTORE POP DUP2 ADD SWAP1 PUSH2 0x37FA SWAP2 SWAP1 PUSH2 0x54BF JUMP JUMPDEST POP JUMPDEST DUP7 PUSH20 0xFFFFFFFFFFFFFFFFFFFFFFFFFFFFFFFFFFFFFFFF AND PUSH4 0xA9059CBB CALLER DUP11 PUSH1 0x40 MLOAD DUP4 PUSH4 0xFFFFFFFF AND PUSH1 0xE0 SHL DUP2 MSTORE PUSH1 0x4 ADD PUSH2 0x3837 SWAP3 SWAP2 SWAP1 PUSH2 0x5439 JUMP JUMPDEST PUSH1 0x20 PUSH1 0x40 MLOAD DUP1 DUP4 SUB DUP2 PUSH0 DUP8 GAS CALL ISZERO DUP1 ISZERO PUSH2 0x3853 JUMPI RETURNDATASIZE PUSH0 DUP1 RETURNDATACOPY RETURNDATASIZE PUSH0 REVERT JUMPDEST POP POP POP POP PUSH1 0x40 MLOAD RETURNDATASIZE PUSH1 0x1F NOT PUSH1 0x1F DUP3 ADD AND DUP3 ADD DUP1 PUSH1 0x40 MSTORE POP DUP2 ADD SWAP1 PUSH2 0x3877 SWAP2 SWAP1 PUSH2 0x54BF JUMP JUMPDEST POP DUP8 PUSH1 0x3 PUSH0 DUP12 PUSH20 0xFFFFFFFFFFFFFFFFFFFFFFFFFFFFFFFFFFFFFFFF AND PUSH20 0xFFFFFFFFFFFFFFFFFFFFFFFFFFFFFFFFFFFFFFFF AND DUP2 MSTORE PUSH1 0x20 ADD SWAP1 DUP2 MSTORE PUSH1 0x20 ADD PUSH0 KECCAK256 PUSH0 CALLER PUSH20 0xFFFFFFFFFFFFFFFFFFFFFFFFFFFFFFFFFFFFFFFF AND PUSH20 0xFFFFFFFFFFFFFFFFFFFFFFFFFFFFFFFFFFFFFFFF AND DUP2 MSTORE PUSH1 0x20 ADD SWAP1 DUP2 MSTORE PUSH1 0x20 ADD PUSH0 KECCAK256 PUSH0 DUP3 DUP3 SLOAD PUSH2 0x38FF SWAP2 SWAP1 PUSH2 0x54EA JUMP JUMPDEST SWAP3 POP POP DUP2 SWAP1 SSTORE POP PUSH32 0xB7EE00EDAFDB5DB3A1B52A5789A6B562EB48268842D113DBFE860B6F86E5F595 CALLER DUP10 DUP9 DUP9 PUSH2 0x3934 CALLER PUSH2 0x2AFA JUMP JUMPDEST DUP8 PUSH1 0x40 MLOAD PUSH2 0x3947 SWAP7 SWAP6 SWAP5 SWAP4 SWAP3 SWAP2 SWAP1 PUSH2 0x5BC4 JUMP JUMPDEST PUSH1 0x40 MLOAD DUP1 SWAP2 SUB SWAP1 LOG1 PUSH0 PUSH2 0x3959 CALLER PUSH2 0x2AFA JUMP JUMPDEST GT PUSH2 0x3AF2 JUMPI PUSH1 0x1 DUP1 DUP1 DUP1 SLOAD SWAP1 POP PUSH2 0x3970 SWAP2 SWAP1 PUSH2 0x54EA JUMP JUMPDEST DUP2 SLOAD DUP2 LT PUSH2 0x3981 JUMPI PUSH2 0x3980 PUSH2 0x5272 JUMP JUMPDEST JUMPDEST SWAP1 PUSH0 MSTORE PUSH1 0x20 PUSH0 KECCAK256 ADD PUSH0 SWAP1 SLOAD SWAP1 PUSH2 0x100 EXP SWAP1 DIV PUSH20 0xFFFFFFFFFFFFFFFFFFFFFFFFFFFFFFFFFFFFFFFF AND PUSH1 0x1 PUSH2 0x3A57 PUSH1 0x1 DUP1 SLOAD DUP1 PUSH1 0x20 MUL PUSH1 0x20 ADD PUSH1 0x40 MLOAD SWAP1 DUP2 ADD PUSH1 0x40 MSTORE DUP1 SWAP3 SWAP2 SWAP1 DUP2 DUP2 MSTORE PUSH1 0x20 ADD DUP3 DUP1 SLOAD DUP1 ISZERO PUSH2 0x3A2D JUMPI PUSH1 0x20 MUL DUP3 ADD SWAP2 SWAP1 PUSH0 MSTORE PUSH1 0x20 PUSH0 KECCAK256 SWAP1 JUMPDEST DUP2 PUSH0 SWAP1 SLOAD SWAP1 PUSH2 0x100 EXP SWAP1 DIV PUSH20 0xFFFFFFFFFFFFFFFFFFFFFFFFFFFFFFFFFFFFFFFF AND PUSH20 0xFFFFFFFFFFFFFFFFFFFFFFFFFFFFFFFFFFFFFFFF AND DUP2 MSTORE PUSH1 0x20 ADD SWAP1 PUSH1 0x1 ADD SWAP1 DUP1 DUP4 GT PUSH2 0x39E4 JUMPI JUMPDEST POP POP POP POP POP CALLER PUSH20 0xFFFFFFFFFFFFFFFFFFFFFFFFFFFFFFFFFFFFFFFF AND PUSH2 0x40D1 SWAP1 SWAP2 SWAP1 PUSH4 0xFFFFFFFF AND JUMP JUMPDEST DUP2 SLOAD DUP2 LT PUSH2 0x3A68 JUMPI PUSH2 0x3A67 PUSH2 0x5272 JUMP JUMPDEST JUMPDEST SWAP1 PUSH0 MSTORE PUSH1 0x20 PUSH0 KECCAK256 ADD PUSH0 PUSH2 0x100 EXP DUP2 SLOAD DUP2 PUSH20 0xFFFFFFFFFFFFFFFFFFFFFFFFFFFFFFFFFFFFFFFF MUL NOT AND SWAP1 DUP4 PUSH20 0xFFFFFFFFFFFFFFFFFFFFFFFFFFFFFFFFFFFFFFFF AND MUL OR SWAP1 SSTORE POP PUSH1 0x1 DUP1 SLOAD DUP1 PUSH2 0x3ABF JUMPI PUSH2 0x3ABE PUSH2 0x551D JUMP JUMPDEST JUMPDEST PUSH1 0x1 SWAP1 SUB DUP2 DUP2 SWAP1 PUSH0 MSTORE PUSH1 0x20 PUSH0 KECCAK256 ADD PUSH0 PUSH2 0x100 EXP DUP2 SLOAD SWAP1 PUSH20 0xFFFFFFFFFFFFFFFFFFFFFFFFFFFFFFFFFFFFFFFF MUL NOT AND SWAP1 SSTORE SWAP1 SSTORE JUMPDEST POP POP POP POP POP POP POP POP POP JUMP JUMPDEST PUSH0 DUP1 PUSH0 PUSH2 0x3B09 DUP5 PUSH2 0x3D13 JUMP JUMPDEST SWAP2 POP SWAP2 POP PUSH0 DUP2 PUSH1 0xA PUSH2 0x3B1B SWAP2 SWAP1 PUSH2 0x5D52 JUMP JUMPDEST DUP4 DUP8 PUSH2 0x3B27 SWAP2 SWAP1 PUSH2 0x535C JUMP JUMPDEST PUSH2 0x3B31 SWAP2 SWAP1 PUSH2 0x53CA JUMP JUMPDEST SWAP1 POP DUP1 SWAP4 POP POP POP POP SWAP3 SWAP2 POP POP JUMP JUMPDEST PUSH2 0x3B47 PUSH2 0x499C JUMP JUMPDEST PUSH2 0x3B4F PUSH2 0x499C JUMP JUMPDEST PUSH0 JUMPDEST PUSH1 0x9 DUP1 SLOAD SWAP1 POP DUP2 LT ISZERO PUSH2 0x3D09 JUMPI DUP4 PUSH20 0xFFFFFFFFFFFFFFFFFFFFFFFFFFFFFFFFFFFFFFFF AND PUSH1 0x9 DUP3 DUP2 SLOAD DUP2 LT PUSH2 0x3B89 JUMPI PUSH2 0x3B88 PUSH2 0x5272 JUMP JUMPDEST JUMPDEST SWAP1 PUSH0 MSTORE PUSH1 0x20 PUSH0 KECCAK256 SWAP1 PUSH1 0x4 MUL ADD PUSH0 ADD PUSH0 SWAP1 SLOAD SWAP1 PUSH2 0x100 EXP SWAP1 DIV PUSH20 0xFFFFFFFFFFFFFFFFFFFFFFFFFFFFFFFFFFFFFFFF AND PUSH20 0xFFFFFFFFFFFFFFFFFFFFFFFFFFFFFFFFFFFFFFFF AND SUB PUSH2 0x3CFC JUMPI PUSH1 0x9 DUP2 DUP2 SLOAD DUP2 LT PUSH2 0x3BE6 JUMPI PUSH2 0x3BE5 PUSH2 0x5272 JUMP JUMPDEST JUMPDEST SWAP1 PUSH0 MSTORE PUSH1 0x20 PUSH0 KECCAK256 SWAP1 PUSH1 0x4 MUL ADD PUSH1 0x40 MLOAD DUP1 PUSH1 0x80 ADD PUSH1 0x40 MSTORE SWAP1 DUP2 PUSH0 DUP3 ADD PUSH0 SWAP1 SLOAD SWAP1 PUSH2 0x100 EXP SWAP1 DIV PUSH20 0xFFFFFFFFFFFFFFFFFFFFFFFFFFFFFFFFFFFFFFFF AND PUSH20 0xFFFFFFFFFFFFFFFFFFFFFFFFFFFFFFFFFFFFFFFF AND PUSH20 0xFFFFFFFFFFFFFFFFFFFFFFFFFFFFFFFFFFFFFFFF AND DUP2 MSTORE PUSH1 0x20 ADD PUSH1 0x1 DUP3 ADD SLOAD DUP2 MSTORE PUSH1 0x20 ADD PUSH1 0x2 DUP3 ADD SLOAD DUP2 MSTORE PUSH1 0x20 ADD PUSH1 0x3 DUP3 ADD DUP1 SLOAD PUSH2 0x3C75 SWAP1 PUSH2 0x532C JUMP JUMPDEST DUP1 PUSH1 0x1F ADD PUSH1 0x20 DUP1 SWAP2 DIV MUL PUSH1 0x20 ADD PUSH1 0x40 MLOAD SWAP1 DUP2 ADD PUSH1 0x40 MSTORE DUP1 SWAP3 SWAP2 SWAP1 DUP2 DUP2 MSTORE PUSH1 0x20 ADD DUP3 DUP1 SLOAD PUSH2 0x3CA1 SWAP1 PUSH2 0x532C JUMP JUMPDEST DUP1 ISZERO PUSH2 0x3CEC JUMPI DUP1 PUSH1 0x1F LT PUSH2 0x3CC3 JUMPI PUSH2 0x100 DUP1 DUP4 SLOAD DIV MUL DUP4 MSTORE SWAP2 PUSH1 0x20 ADD SWAP2 PUSH2 0x3CEC JUMP JUMPDEST DUP3 ADD SWAP2 SWAP1 PUSH0 MSTORE PUSH1 0x20 PUSH0 KECCAK256 SWAP1 JUMPDEST DUP2 SLOAD DUP2 MSTORE SWAP1 PUSH1 0x1 ADD SWAP1 PUSH1 0x20 ADD DUP1 DUP4 GT PUSH2 0x3CCF JUMPI DUP3 SWAP1 SUB PUSH1 0x1F AND DUP3 ADD SWAP2 JUMPDEST POP POP POP POP POP DUP2 MSTORE POP POP SWAP2 POP PUSH2 0x3D09 JUMP JUMPDEST DUP1 DUP1 PUSH1 0x1 ADD SWAP2 POP POP PUSH2 0x3B51 JUMP JUMPDEST POP DUP1 SWAP2 POP POP SWAP2 SWAP1 POP JUMP JUMPDEST PUSH0 DUP1 PUSH0 PUSH1 0x7 PUSH0 DUP6 PUSH20 0xFFFFFFFFFFFFFFFFFFFFFFFFFFFFFFFFFFFFFFFF AND PUSH20 0xFFFFFFFFFFFFFFFFFFFFFFFFFFFFFFFFFFFFFFFF AND DUP2 MSTORE PUSH1 0x20 ADD SWAP1 DUP2 MSTORE PUSH1 0x20 ADD PUSH0 KECCAK256 PUSH0 SWAP1 SLOAD SWAP1 PUSH2 0x100 EXP SWAP1 DIV PUSH20 0xFFFFFFFFFFFFFFFFFFFFFFFFFFFFFFFFFFFFFFFF AND SWAP1 POP PUSH0 DUP2 SWAP1 POP PUSH0 DUP2 PUSH20 0xFFFFFFFFFFFFFFFFFFFFFFFFFFFFFFFFFFFFFFFF AND PUSH4 0xFEAF968C PUSH1 0x40 MLOAD DUP2 PUSH4 0xFFFFFFFF AND PUSH1 0xE0 SHL DUP2 MSTORE PUSH1 0x4 ADD PUSH1 0xA0 PUSH1 0x40 MLOAD DUP1 DUP4 SUB DUP2 DUP7 GAS STATICCALL ISZERO DUP1 ISZERO PUSH2 0x3DC3 JUMPI RETURNDATASIZE PUSH0 DUP1 RETURNDATACOPY RETURNDATASIZE PUSH0 REVERT JUMPDEST POP POP POP POP PUSH1 0x40 MLOAD RETURNDATASIZE PUSH1 0x1F NOT PUSH1 0x1F DUP3 ADD AND DUP3 ADD DUP1 PUSH1 0x40 MSTORE POP DUP2 ADD SWAP1 PUSH2 0x3DE7 SWAP2 SWAP1 PUSH2 0x5E05 JUMP JUMPDEST POP POP POP SWAP2 POP POP PUSH0 DUP3 PUSH20 0xFFFFFFFFFFFFFFFFFFFFFFFFFFFFFFFFFFFFFFFF AND PUSH4 0x313CE567 PUSH1 0x40 MLOAD DUP2 PUSH4 0xFFFFFFFF AND PUSH1 0xE0 SHL DUP2 MSTORE PUSH1 0x4 ADD PUSH1 0x20 PUSH1 0x40 MLOAD DUP1 DUP4 SUB DUP2 DUP7 GAS STATICCALL ISZERO DUP1 ISZERO PUSH2 0x3E37 JUMPI RETURNDATASIZE PUSH0 DUP1 RETURNDATACOPY RETURNDATASIZE PUSH0 REVERT JUMPDEST POP POP POP POP PUSH1 0x40 MLOAD RETURNDATASIZE PUSH1 0x1F NOT PUSH1 0x1F DUP3 ADD AND DUP3 ADD DUP1 PUSH1 0x40 MSTORE POP DUP2 ADD SWAP1 PUSH2 0x3E5B SWAP2 SWAP1 PUSH2 0x5EB2 JUMP JUMPDEST PUSH1 0xFF AND SWAP1 POP DUP2 DUP2 SWAP6 POP SWAP6 POP POP POP POP POP SWAP2 POP SWAP2 JUMP JUMPDEST PUSH1 0xA PUSH0 SWAP1 SLOAD SWAP1 PUSH2 0x100 EXP SWAP1 DIV PUSH20 0xFFFFFFFFFFFFFFFFFFFFFFFFFFFFFFFFFFFFFFFF AND DUP2 JUMP JUMPDEST PUSH2 0x3E9C PUSH2 0x47C2 JUMP JUMPDEST PUSH0 PUSH1 0x40 MLOAD DUP1 PUSH1 0x80 ADD PUSH1 0x40 MSTORE DUP1 DUP6 PUSH20 0xFFFFFFFFFFFFFFFFFFFFFFFFFFFFFFFFFFFFFFFF AND DUP2 MSTORE PUSH1 0x20 ADD DUP5 DUP2 MSTORE PUSH1 0x20 ADD DUP4 DUP2 MSTORE PUSH1 0x20 ADD DUP7 DUP2 MSTORE POP SWAP1 POP PUSH2 0x402C DUP2 PUSH1 0x9 DUP1 SLOAD DUP1 PUSH1 0x20 MUL PUSH1 0x20 ADD PUSH1 0x40 MLOAD SWAP1 DUP2 ADD PUSH1 0x40 MSTORE DUP1 SWAP3 SWAP2 SWAP1 DUP2 DUP2 MSTORE PUSH1 0x20 ADD PUSH0 SWAP1 JUMPDEST DUP3 DUP3 LT ISZERO PUSH2 0x4023 JUMPI DUP4 DUP3 SWAP1 PUSH0 MSTORE PUSH1 0x20 PUSH0 KECCAK256 SWAP1 PUSH1 0x4 MUL ADD PUSH1 0x40 MLOAD DUP1 PUSH1 0x80 ADD PUSH1 0x40 MSTORE SWAP1 DUP2 PUSH0 DUP3 ADD PUSH0 SWAP1 SLOAD SWAP1 PUSH2 0x100 EXP SWAP1 DIV PUSH20 0xFFFFFFFFFFFFFFFFFFFFFFFFFFFFFFFFFFFFFFFF AND PUSH20 0xFFFFFFFFFFFFFFFFFFFFFFFFFFFFFFFFFFFFFFFF AND PUSH20 0xFFFFFFFFFFFFFFFFFFFFFFFFFFFFFFFFFFFFFFFF AND DUP2 MSTORE PUSH1 0x20 ADD PUSH1 0x1 DUP3 ADD SLOAD DUP2 MSTORE PUSH1 0x20 ADD PUSH1 0x2 DUP3 ADD SLOAD DUP2 MSTORE PUSH1 0x20 ADD PUSH1 0x3 DUP3 ADD DUP1 SLOAD PUSH2 0x3F94 SWAP1 PUSH2 0x532C JUMP JUMPDEST DUP1 PUSH1 0x1F ADD PUSH1 0x20 DUP1 SWAP2 DIV MUL PUSH1 0x20 ADD PUSH1 0x40 MLOAD SWAP1 DUP2 ADD PUSH1 0x40 MSTORE DUP1 SWAP3 SWAP2 SWAP1 DUP2 DUP2 MSTORE PUSH1 0x20 ADD DUP3 DUP1 SLOAD PUSH2 0x3FC0 SWAP1 PUSH2 0x532C JUMP JUMPDEST DUP1 ISZERO PUSH2 0x400B JUMPI DUP1 PUSH1 0x1F LT PUSH2 0x3FE2 JUMPI PUSH2 0x100 DUP1 DUP4 SLOAD DIV MUL DUP4 MSTORE SWAP2 PUSH1 0x20 ADD SWAP2 PUSH2 0x400B JUMP JUMPDEST DUP3 ADD SWAP2 SWAP1 PUSH0 MSTORE PUSH1 0x20 PUSH0 KECCAK256 SWAP1 JUMPDEST DUP2 SLOAD DUP2 MSTORE SWAP1 PUSH1 0x1 ADD SWAP1 PUSH1 0x20 ADD DUP1 DUP4 GT PUSH2 0x3FEE JUMPI DUP3 SWAP1 SUB PUSH1 0x1F AND DUP3 ADD SWAP2 JUMPDEST POP POP POP POP POP DUP2 MSTORE POP POP DUP2 MSTORE PUSH1 0x20 ADD SWAP1 PUSH1 0x1 ADD SWAP1 PUSH2 0x3EFB JUMP JUMPDEST POP POP POP POP PUSH2 0x490A JUMP JUMPDEST PUSH2 0x40CA JUMPI PUSH1 0x9 DUP2 SWAP1 DUP1 PUSH1 0x1 DUP2 SLOAD ADD DUP1 DUP3 SSTORE DUP1 SWAP2 POP POP PUSH1 0x1 SWAP1 SUB SWAP1 PUSH0 MSTORE PUSH1 0x20 PUSH0 KECCAK256 SWAP1 PUSH1 0x4 MUL ADD PUSH0 SWAP1 SWAP2 SWAP1 SWAP2 SWAP1 SWAP2 POP PUSH0 DUP3 ADD MLOAD DUP2 PUSH0 ADD PUSH0 PUSH2 0x100 EXP DUP2 SLOAD DUP2 PUSH20 0xFFFFFFFFFFFFFFFFFFFFFFFFFFFFFFFFFFFFFFFF MUL NOT AND SWAP1 DUP4 PUSH20 0xFFFFFFFFFFFFFFFFFFFFFFFFFFFFFFFFFFFFFFFF AND MUL OR SWAP1 SSTORE POP PUSH1 0x20 DUP3 ADD MLOAD DUP2 PUSH1 0x1 ADD SSTORE PUSH1 0x40 DUP3 ADD MLOAD DUP2 PUSH1 0x2 ADD SSTORE PUSH1 0x60 DUP3 ADD MLOAD DUP2 PUSH1 0x3 ADD SWAP1 DUP2 PUSH2 0x40C6 SWAP2 SWAP1 PUSH2 0x5AF5 JUMP JUMPDEST POP POP POP JUMPDEST POP POP POP POP POP JUMP JUMPDEST PUSH0 DUP1 PUSH0 SWAP1 POP JUMPDEST DUP3 MLOAD DUP2 LT ISZERO PUSH2 0x4143 JUMPI DUP3 DUP2 DUP2 MLOAD DUP2 LT PUSH2 0x40F3 JUMPI PUSH2 0x40F2 PUSH2 0x5272 JUMP JUMPDEST JUMPDEST PUSH1 0x20 MUL PUSH1 0x20 ADD ADD MLOAD PUSH20 0xFFFFFFFFFFFFFFFFFFFFFFFFFFFFFFFFFFFFFFFF AND DUP5 PUSH20 0xFFFFFFFFFFFFFFFFFFFFFFFFFFFFFFFFFFFFFFFF AND SUB PUSH2 0x4136 JUMPI DUP1 SWAP2 POP POP PUSH2 0x4168 JUMP JUMPDEST DUP1 DUP1 PUSH1 0x1 ADD SWAP2 POP POP PUSH2 0x40D7 JUMP JUMPDEST POP PUSH32 0xFFFFFFFFFFFFFFFFFFFFFFFFFFFFFFFFFFFFFFFFFFFFFFFFFFFFFFFFFFFFFFFF SWAP1 POP JUMPDEST SWAP3 SWAP2 POP POP JUMP JUMPDEST PUSH0 DUP1 DUP3 MLOAD GT ISZERO PUSH2 0x41EC JUMPI PUSH0 JUMPDEST DUP3 MLOAD DUP2 LT ISZERO PUSH2 0x41EA JUMPI DUP4 PUSH20 0xFFFFFFFFFFFFFFFFFFFFFFFFFFFFFFFFFFFFFFFF AND DUP4 DUP3 DUP2 MLOAD DUP2 LT PUSH2 0x41AD JUMPI PUSH2 0x41AC PUSH2 0x5272 JUMP JUMPDEST JUMPDEST PUSH1 0x20 MUL PUSH1 0x20 ADD ADD MLOAD PUSH0 ADD MLOAD PUSH20 0xFFFFFFFFFFFFFFFFFFFFFFFFFFFFFFFFFFFFFFFF AND SUB PUSH2 0x41DD JUMPI PUSH1 0x1 SWAP2 POP POP PUSH2 0x41F0 JUMP JUMPDEST DUP1 DUP1 PUSH1 0x1 ADD SWAP2 POP POP PUSH2 0x417A JUMP JUMPDEST POP JUMPDEST PUSH0 SWAP1 POP JUMPDEST SWAP3 SWAP2 POP POP JUMP JUMPDEST PUSH0 DUP1 PUSH0 DUP4 MLOAD GT ISZERO PUSH2 0x4275 JUMPI PUSH0 JUMPDEST DUP4 MLOAD DUP2 LT ISZERO PUSH2 0x4273 JUMPI DUP4 DUP2 DUP2 MLOAD DUP2 LT PUSH2 0x421F JUMPI PUSH2 0x421E PUSH2 0x5272 JUMP JUMPDEST JUMPDEST PUSH1 0x20 MUL PUSH1 0x20 ADD ADD MLOAD PUSH20 0xFFFFFFFFFFFFFFFFFFFFFFFFFFFFFFFFFFFFFFFF AND DUP6 PUSH20 0xFFFFFFFFFFFFFFFFFFFFFFFFFFFFFFFFFFFFFFFF AND SUB PUSH2 0x4266 JUMPI PUSH1 0x1 DUP2 SWAP3 POP SWAP3 POP POP PUSH2 0x429C JUMP JUMPDEST DUP1 DUP1 PUSH1 0x1 ADD SWAP2 POP POP PUSH2 0x4203 JUMP JUMPDEST POP JUMPDEST PUSH0 PUSH32 0xFFFFFFFFFFFFFFFFFFFFFFFFFFFFFFFFFFFFFFFFFFFFFFFFFFFFFFFFFFFFFFFF SWAP2 POP SWAP2 POP JUMPDEST SWAP3 POP SWAP3 SWAP1 POP JUMP JUMPDEST PUSH1 0x40 MLOAD PUSH1 0x20 ADD PUSH2 0x42B2 SWAP1 PUSH2 0x5F27 JUMP JUMPDEST PUSH1 0x40 MLOAD PUSH1 0x20 DUP2 DUP4 SUB SUB DUP2 MSTORE SWAP1 PUSH1 0x40 MSTORE DUP1 MLOAD SWAP1 PUSH1 0x20 ADD KECCAK256 DUP2 PUSH1 0x40 MLOAD PUSH1 0x20 ADD PUSH2 0x42D9 SWAP2 SWAP1 PUSH2 0x58B1 JUMP JUMPDEST PUSH1 0x40 MLOAD PUSH1 0x20 DUP2 DUP4 SUB SUB DUP2 MSTORE SWAP1 PUSH1 0x40 MSTORE DUP1 MLOAD SWAP1 PUSH1 0x20 ADD KECCAK256 SUB PUSH2 0x4531 JUMPI PUSH0 PUSH1 0x1 DUP4 DUP2 SLOAD DUP2 LT PUSH2 0x4309 JUMPI PUSH2 0x4308 PUSH2 0x5272 JUMP JUMPDEST JUMPDEST SWAP1 PUSH0 MSTORE PUSH1 0x20 PUSH0 KECCAK256 ADD PUSH0 SWAP1 SLOAD SWAP1 PUSH2 0x100 EXP SWAP1 DIV PUSH20 0xFFFFFFFFFFFFFFFFFFFFFFFFFFFFFFFFFFFFFFFF AND SWAP1 POP PUSH2 0x4376 DUP2 DUP7 PUSH1 0xB SLOAD PUSH1 0x40 MLOAD DUP1 PUSH1 0x40 ADD PUSH1 0x40 MSTORE DUP1 PUSH1 0xA DUP2 MSTORE PUSH1 0x20 ADD PUSH32 0x746F6B656E734C656E7400000000000000000000000000000000000000000000 DUP2 MSTORE POP PUSH2 0x1B2F JUMP JUMPDEST ISZERO PUSH2 0x440E JUMPI DUP4 PUSH1 0x3 PUSH0 DUP8 PUSH20 0xFFFFFFFFFFFFFFFFFFFFFFFFFFFFFFFFFFFFFFFF AND PUSH20 0xFFFFFFFFFFFFFFFFFFFFFFFFFFFFFFFFFFFFFFFF AND DUP2 MSTORE PUSH1 0x20 ADD SWAP1 DUP2 MSTORE PUSH1 0x20 ADD PUSH0 KECCAK256 PUSH0 DUP4 PUSH20 0xFFFFFFFFFFFFFFFFFFFFFFFFFFFFFFFFFFFFFFFF AND PUSH20 0xFFFFFFFFFFFFFFFFFFFFFFFFFFFFFFFFFFFFFFFF AND DUP2 MSTORE PUSH1 0x20 ADD SWAP1 DUP2 MSTORE PUSH1 0x20 ADD PUSH0 KECCAK256 PUSH0 DUP3 DUP3 SLOAD PUSH2 0x4402 SWAP2 SWAP1 PUSH2 0x52CC JUMP JUMPDEST SWAP3 POP POP DUP2 SWAP1 SSTORE POP PUSH2 0x452B JUMP JUMPDEST DUP5 PUSH1 0x5 PUSH0 PUSH1 0xB PUSH0 DUP2 SLOAD DUP1 SWAP3 SWAP2 SWAP1 PUSH2 0x4424 SWAP1 PUSH2 0x575E JUMP JUMPDEST SWAP2 SWAP1 POP SSTORE DUP2 MSTORE PUSH1 0x20 ADD SWAP1 DUP2 MSTORE PUSH1 0x20 ADD PUSH0 KECCAK256 PUSH0 DUP4 PUSH20 0xFFFFFFFFFFFFFFFFFFFFFFFFFFFFFFFFFFFFFFFF AND PUSH20 0xFFFFFFFFFFFFFFFFFFFFFFFFFFFFFFFFFFFFFFFF AND DUP2 MSTORE PUSH1 0x20 ADD SWAP1 DUP2 MSTORE PUSH1 0x20 ADD PUSH0 KECCAK256 PUSH0 PUSH2 0x100 EXP DUP2 SLOAD DUP2 PUSH20 0xFFFFFFFFFFFFFFFFFFFFFFFFFFFFFFFFFFFFFFFF MUL NOT AND SWAP1 DUP4 PUSH20 0xFFFFFFFFFFFFFFFFFFFFFFFFFFFFFFFFFFFFFFFF AND MUL OR SWAP1 SSTORE POP DUP4 PUSH1 0x3 PUSH0 DUP8 PUSH20 0xFFFFFFFFFFFFFFFFFFFFFFFFFFFFFFFFFFFFFFFF AND PUSH20 0xFFFFFFFFFFFFFFFFFFFFFFFFFFFFFFFFFFFFFFFF AND DUP2 MSTORE PUSH1 0x20 ADD SWAP1 DUP2 MSTORE PUSH1 0x20 ADD PUSH0 KECCAK256 PUSH0 DUP4 PUSH20 0xFFFFFFFFFFFFFFFFFFFFFFFFFFFFFFFFFFFFFFFF AND PUSH20 0xFFFFFFFFFFFFFFFFFFFFFFFFFFFFFFFFFFFFFFFF AND DUP2 MSTORE PUSH1 0x20 ADD SWAP1 DUP2 MSTORE PUSH1 0x20 ADD PUSH0 KECCAK256 DUP2 SWAP1 SSTORE POP JUMPDEST POP PUSH2 0x47BC JUMP JUMPDEST PUSH1 0x40 MLOAD PUSH1 0x20 ADD PUSH2 0x4540 SWAP1 PUSH2 0x5F85 JUMP JUMPDEST PUSH1 0x40 MLOAD PUSH1 0x20 DUP2 DUP4 SUB SUB DUP2 MSTORE SWAP1 PUSH1 0x40 MSTORE DUP1 MLOAD SWAP1 PUSH1 0x20 ADD KECCAK256 DUP2 PUSH1 0x40 MLOAD PUSH1 0x20 ADD PUSH2 0x4567 SWAP2 SWAP1 PUSH2 0x58B1 JUMP JUMPDEST PUSH1 0x40 MLOAD PUSH1 0x20 DUP2 DUP4 SUB SUB DUP2 MSTORE SWAP1 PUSH1 0x40 MSTORE DUP1 MLOAD SWAP1 PUSH1 0x20 ADD KECCAK256 SUB PUSH2 0x47BB JUMPI PUSH0 PUSH1 0x2 DUP4 DUP2 SLOAD DUP2 LT PUSH2 0x4597 JUMPI PUSH2 0x4596 PUSH2 0x5272 JUMP JUMPDEST JUMPDEST SWAP1 PUSH0 MSTORE PUSH1 0x20 PUSH0 KECCAK256 ADD PUSH0 SWAP1 SLOAD SWAP1 PUSH2 0x100 EXP SWAP1 DIV PUSH20 0xFFFFFFFFFFFFFFFFFFFFFFFFFFFFFFFFFFFFFFFF AND SWAP1 POP PUSH2 0x4604 DUP2 DUP7 PUSH1 0xC SLOAD PUSH1 0x40 MLOAD DUP1 PUSH1 0x40 ADD PUSH1 0x40 MSTORE DUP1 PUSH1 0xE DUP2 MSTORE PUSH1 0x20 ADD PUSH32 0x746F6B656E73426F72726F776564000000000000000000000000000000000000 DUP2 MSTORE POP PUSH2 0x1B2F JUMP JUMPDEST ISZERO PUSH2 0x469C JUMPI DUP4 PUSH1 0x4 PUSH0 DUP8 PUSH20 0xFFFFFFFFFFFFFFFFFFFFFFFFFFFFFFFFFFFFFFFF AND PUSH20 0xFFFFFFFFFFFFFFFFFFFFFFFFFFFFFFFFFFFFFFFF AND DUP2 MSTORE PUSH1 0x20 ADD SWAP1 DUP2 MSTORE PUSH1 0x20 ADD PUSH0 KECCAK256 PUSH0 DUP4 PUSH20 0xFFFFFFFFFFFFFFFFFFFFFFFFFFFFFFFFFFFFFFFF AND PUSH20 0xFFFFFFFFFFFFFFFFFFFFFFFFFFFFFFFFFFFFFFFF AND DUP2 MSTORE PUSH1 0x20 ADD SWAP1 DUP2 MSTORE PUSH1 0x20 ADD PUSH0 KECCAK256 PUSH0 DUP3 DUP3 SLOAD PUSH2 0x4690 SWAP2 SWAP1 PUSH2 0x52CC JUMP JUMPDEST SWAP3 POP POP DUP2 SWAP1 SSTORE POP PUSH2 0x47B9 JUMP JUMPDEST DUP5 PUSH1 0x6 PUSH0 PUSH1 0xC PUSH0 DUP2 SLOAD DUP1 SWAP3 SWAP2 SWAP1 PUSH2 0x46B2 SWAP1 PUSH2 0x575E JUMP JUMPDEST SWAP2 SWAP1 POP SSTORE DUP2 MSTORE PUSH1 0x20 ADD SWAP1 DUP2 MSTORE PUSH1 0x20 ADD PUSH0 KECCAK256 PUSH0 DUP4 PUSH20 0xFFFFFFFFFFFFFFFFFFFFFFFFFFFFFFFFFFFFFFFF AND PUSH20 0xFFFFFFFFFFFFFFFFFFFFFFFFFFFFFFFFFFFFFFFF AND DUP2 MSTORE PUSH1 0x20 ADD SWAP1 DUP2 MSTORE PUSH1 0x20 ADD PUSH0 KECCAK256 PUSH0 PUSH2 0x100 EXP DUP2 SLOAD DUP2 PUSH20 0xFFFFFFFFFFFFFFFFFFFFFFFFFFFFFFFFFFFFFFFF MUL NOT AND SWAP1 DUP4 PUSH20 0xFFFFFFFFFFFFFFFFFFFFFFFFFFFFFFFFFFFFFFFF AND MUL OR SWAP1 SSTORE POP DUP4 PUSH1 0x4 PUSH0 DUP8 PUSH20 0xFFFFFFFFFFFFFFFFFFFFFFFFFFFFFFFFFFFFFFFF AND PUSH20 0xFFFFFFFFFFFFFFFFFFFFFFFFFFFFFFFFFFFFFFFF AND DUP2 MSTORE PUSH1 0x20 ADD SWAP1 DUP2 MSTORE PUSH1 0x20 ADD PUSH0 KECCAK256 PUSH0 DUP4 PUSH20 0xFFFFFFFFFFFFFFFFFFFFFFFFFFFFFFFFFFFFFFFF AND PUSH20 0xFFFFFFFFFFFFFFFFFFFFFFFFFFFFFFFFFFFFFFFF AND DUP2 MSTORE PUSH1 0x20 ADD SWAP1 DUP2 MSTORE PUSH1 0x20 ADD PUSH0 KECCAK256 DUP2 SWAP1 SSTORE POP JUMPDEST POP JUMPDEST JUMPDEST POP POP POP POP JUMP JUMPDEST PUSH2 0x47CA PUSH2 0x4995 JUMP JUMPDEST PUSH20 0xFFFFFFFFFFFFFFFFFFFFFFFFFFFFFFFFFFFFFFFF AND PUSH2 0x47E8 PUSH2 0x244E JUMP JUMPDEST PUSH20 0xFFFFFFFFFFFFFFFFFFFFFFFFFFFFFFFFFFFFFFFF AND EQ PUSH2 0x4847 JUMPI PUSH2 0x480B PUSH2 0x4995 JUMP JUMPDEST PUSH1 0x40 MLOAD PUSH32 0x118CDAA700000000000000000000000000000000000000000000000000000000 DUP2 MSTORE PUSH1 0x4 ADD PUSH2 0x483E SWAP2 SWAP1 PUSH2 0x50BE JUMP JUMPDEST PUSH1 0x40 MLOAD DUP1 SWAP2 SUB SWAP1 REVERT JUMPDEST JUMP JUMPDEST PUSH0 DUP1 PUSH0 SWAP1 SLOAD SWAP1 PUSH2 0x100 EXP SWAP1 DIV PUSH20 0xFFFFFFFFFFFFFFFFFFFFFFFFFFFFFFFFFFFFFFFF AND SWAP1 POP DUP2 PUSH0 DUP1 PUSH2 0x100 EXP DUP2 SLOAD DUP2 PUSH20 0xFFFFFFFFFFFFFFFFFFFFFFFFFFFFFFFFFFFFFFFF MUL NOT AND SWAP1 DUP4 PUSH20 0xFFFFFFFFFFFFFFFFFFFFFFFFFFFFFFFFFFFFFFFF AND MUL OR SWAP1 SSTORE POP DUP2 PUSH20 0xFFFFFFFFFFFFFFFFFFFFFFFFFFFFFFFFFFFFFFFF AND DUP2 PUSH20 0xFFFFFFFFFFFFFFFFFFFFFFFFFFFFFFFFFFFFFFFF AND PUSH32 0x8BE0079C531659141344CD1FD0A4F28419497F9722A3DAAFE3B4186F6B6457E0 PUSH1 0x40 MLOAD PUSH1 0x40 MLOAD DUP1 SWAP2 SUB SWAP1 LOG3 POP POP JUMP JUMPDEST PUSH0 DUP1 DUP3 MLOAD GT ISZERO PUSH2 0x498B JUMPI PUSH0 JUMPDEST DUP3 MLOAD DUP2 LT ISZERO PUSH2 0x4989 JUMPI DUP4 PUSH0 ADD MLOAD PUSH20 0xFFFFFFFFFFFFFFFFFFFFFFFFFFFFFFFFFFFFFFFF AND DUP4 DUP3 DUP2 MLOAD DUP2 LT PUSH2 0x494C JUMPI PUSH2 0x494B PUSH2 0x5272 JUMP JUMPDEST JUMPDEST PUSH1 0x20 MUL PUSH1 0x20 ADD ADD MLOAD PUSH0 ADD MLOAD PUSH20 0xFFFFFFFFFFFFFFFFFFFFFFFFFFFFFFFFFFFFFFFF AND SUB PUSH2 0x497C JUMPI PUSH1 0x1 SWAP2 POP POP PUSH2 0x498F JUMP JUMPDEST DUP1 DUP1 PUSH1 0x1 ADD SWAP2 POP POP PUSH2 0x4916 JUMP JUMPDEST POP JUMPDEST PUSH0 SWAP1 POP JUMPDEST SWAP3 SWAP2 POP POP JUMP JUMPDEST PUSH0 CALLER SWAP1 POP SWAP1 JUMP JUMPDEST PUSH1 0x40 MLOAD DUP1 PUSH1 0x80 ADD PUSH1 0x40 MSTORE DUP1 PUSH0 PUSH20 0xFFFFFFFFFFFFFFFFFFFFFFFFFFFFFFFFFFFFFFFF AND DUP2 MSTORE PUSH1 0x20 ADD PUSH0 DUP2 MSTORE PUSH1 0x20 ADD PUSH0 DUP2 MSTORE PUSH1 0x20 ADD PUSH1 0x60 DUP2 MSTORE POP SWAP1 JUMP JUMPDEST PUSH0 PUSH1 0x40 MLOAD SWAP1 POP SWAP1 JUMP JUMPDEST PUSH0 DUP1 REVERT JUMPDEST PUSH0 DUP1 REVERT JUMPDEST PUSH0 PUSH20 0xFFFFFFFFFFFFFFFFFFFFFFFFFFFFFFFFFFFFFFFF DUP3 AND SWAP1 POP SWAP2 SWAP1 POP JUMP JUMPDEST PUSH0 PUSH2 0x4A11 DUP3 PUSH2 0x49E8 JUMP JUMPDEST SWAP1 POP SWAP2 SWAP1 POP JUMP JUMPDEST PUSH2 0x4A21 DUP2 PUSH2 0x4A07 JUMP JUMPDEST DUP2 EQ PUSH2 0x4A2B JUMPI PUSH0 DUP1 REVERT JUMPDEST POP JUMP JUMPDEST PUSH0 DUP2 CALLDATALOAD SWAP1 POP PUSH2 0x4A3C DUP2 PUSH2 0x4A18 JUMP JUMPDEST SWAP3 SWAP2 POP POP JUMP JUMPDEST PUSH0 PUSH1 0x20 DUP3 DUP5 SUB SLT ISZERO PUSH2 0x4A57 JUMPI PUSH2 0x4A56 PUSH2 0x49E0 JUMP JUMPDEST JUMPDEST PUSH0 PUSH2 0x4A64 DUP5 DUP3 DUP6 ADD PUSH2 0x4A2E JUMP JUMPDEST SWAP2 POP POP SWAP3 SWAP2 POP POP JUMP JUMPDEST PUSH0 DUP2 SWAP1 POP SWAP2 SWAP1 POP JUMP JUMPDEST PUSH2 0x4A7F DUP2 PUSH2 0x4A6D JUMP JUMPDEST DUP3 MSTORE POP POP JUMP JUMPDEST PUSH0 PUSH1 0x20 DUP3 ADD SWAP1 POP PUSH2 0x4A98 PUSH0 DUP4 ADD DUP5 PUSH2 0x4A76 JUMP JUMPDEST SWAP3 SWAP2 POP POP JUMP JUMPDEST PUSH2 0x4AA7 DUP2 PUSH2 0x4A6D JUMP JUMPDEST DUP2 EQ PUSH2 0x4AB1 JUMPI PUSH0 DUP1 REVERT JUMPDEST POP JUMP JUMPDEST PUSH0 DUP2 CALLDATALOAD SWAP1 POP PUSH2 0x4AC2 DUP2 PUSH2 0x4A9E JUMP JUMPDEST SWAP3 SWAP2 POP POP JUMP JUMPDEST PUSH0 PUSH1 0x20 DUP3 DUP5 SUB SLT ISZERO PUSH2 0x4ADD JUMPI PUSH2 0x4ADC PUSH2 0x49E0 JUMP JUMPDEST JUMPDEST PUSH0 PUSH2 0x4AEA DUP5 DUP3 DUP6 ADD PUSH2 0x4AB4 JUMP JUMPDEST SWAP2 POP POP SWAP3 SWAP2 POP POP JUMP JUMPDEST PUSH2 0x4AFC DUP2 PUSH2 0x4A07 JUMP JUMPDEST DUP3 MSTORE POP POP JUMP JUMPDEST PUSH0 DUP2 MLOAD SWAP1 POP SWAP2 SWAP1 POP JUMP JUMPDEST PUSH0 DUP3 DUP3 MSTORE PUSH1 0x20 DUP3 ADD SWAP1 POP SWAP3 SWAP2 POP POP JUMP JUMPDEST DUP3 DUP2 DUP4 MCOPY PUSH0 DUP4 DUP4 ADD MSTORE POP POP POP JUMP JUMPDEST PUSH0 PUSH1 0x1F NOT PUSH1 0x1F DUP4 ADD AND SWAP1 POP SWAP2 SWAP1 POP JUMP JUMPDEST PUSH0 PUSH2 0x4B44 DUP3 PUSH2 0x4B02 JUMP JUMPDEST PUSH2 0x4B4E DUP2 DUP6 PUSH2 0x4B0C JUMP JUMPDEST SWAP4 POP PUSH2 0x4B5E DUP2 DUP6 PUSH1 0x20 DUP7 ADD PUSH2 0x4B1C JUMP JUMPDEST PUSH2 0x4B67 DUP2 PUSH2 0x4B2A JUMP JUMPDEST DUP5 ADD SWAP2 POP POP SWAP3 SWAP2 POP POP JUMP JUMPDEST PUSH0 PUSH1 0x80 DUP3 ADD SWAP1 POP PUSH2 0x4B85 PUSH0 DUP4 ADD DUP8 PUSH2 0x4AF3 JUMP JUMPDEST PUSH2 0x4B92 PUSH1 0x20 DUP4 ADD DUP7 PUSH2 0x4A76 JUMP JUMPDEST PUSH2 0x4B9F PUSH1 0x40 DUP4 ADD DUP6 PUSH2 0x4A76 JUMP JUMPDEST DUP2 DUP2 SUB PUSH1 0x60 DUP4 ADD MSTORE PUSH2 0x4BB1 DUP2 DUP5 PUSH2 0x4B3A JUMP JUMPDEST SWAP1 POP SWAP6 SWAP5 POP POP POP POP POP JUMP JUMPDEST PUSH0 DUP1 PUSH1 0x40 DUP4 DUP6 SUB SLT ISZERO PUSH2 0x4BD2 JUMPI PUSH2 0x4BD1 PUSH2 0x49E0 JUMP JUMPDEST JUMPDEST PUSH0 PUSH2 0x4BDF DUP6 DUP3 DUP7 ADD PUSH2 0x4A2E JUMP JUMPDEST SWAP3 POP POP PUSH1 0x20 PUSH2 0x4BF0 DUP6 DUP3 DUP7 ADD PUSH2 0x4AB4 JUMP JUMPDEST SWAP2 POP POP SWAP3 POP SWAP3 SWAP1 POP JUMP JUMPDEST PUSH0 DUP2 MLOAD SWAP1 POP SWAP2 SWAP1 POP JUMP JUMPDEST PUSH0 DUP3 DUP3 MSTORE PUSH1 0x20 DUP3 ADD SWAP1 POP SWAP3 SWAP2 POP POP JUMP JUMPDEST PUSH0 DUP2 SWAP1 POP PUSH1 0x20 DUP3 ADD SWAP1 POP SWAP2 SWAP1 POP JUMP JUMPDEST PUSH2 0x4C2C DUP2 PUSH2 0x4A07 JUMP JUMPDEST DUP3 MSTORE POP POP JUMP JUMPDEST PUSH2 0x4C3B DUP2 PUSH2 0x4A6D JUMP JUMPDEST DUP3 MSTORE POP POP JUMP JUMPDEST PUSH0 DUP3 DUP3 MSTORE PUSH1 0x20 DUP3 ADD SWAP1 POP SWAP3 SWAP2 POP POP JUMP JUMPDEST PUSH0 PUSH2 0x4C5B DUP3 PUSH2 0x4B02 JUMP JUMPDEST PUSH2 0x4C65 DUP2 DUP6 PUSH2 0x4C41 JUMP JUMPDEST SWAP4 POP PUSH2 0x4C75 DUP2 DUP6 PUSH1 0x20 DUP7 ADD PUSH2 0x4B1C JUMP JUMPDEST PUSH2 0x4C7E DUP2 PUSH2 0x4B2A JUMP JUMPDEST DUP5 ADD SWAP2 POP POP SWAP3 SWAP2 POP POP JUMP JUMPDEST PUSH0 PUSH1 0x80 DUP4 ADD PUSH0 DUP4 ADD MLOAD PUSH2 0x4C9E PUSH0 DUP7 ADD DUP3 PUSH2 0x4C23 JUMP JUMPDEST POP PUSH1 0x20 DUP4 ADD MLOAD PUSH2 0x4CB1 PUSH1 0x20 DUP7 ADD DUP3 PUSH2 0x4C32 JUMP JUMPDEST POP PUSH1 0x40 DUP4 ADD MLOAD PUSH2 0x4CC4 PUSH1 0x40 DUP7 ADD DUP3 PUSH2 0x4C32 JUMP JUMPDEST POP PUSH1 0x60 DUP4 ADD MLOAD DUP5 DUP3 SUB PUSH1 0x60 DUP7 ADD MSTORE PUSH2 0x4CDC DUP3 DUP3 PUSH2 0x4C51 JUMP JUMPDEST SWAP2 POP POP DUP1 SWAP2 POP POP SWAP3 SWAP2 POP POP JUMP JUMPDEST PUSH0 PUSH2 0x4CF4 DUP4 DUP4 PUSH2 0x4C89 JUMP JUMPDEST SWAP1 POP SWAP3 SWAP2 POP POP JUMP JUMPDEST PUSH0 PUSH1 0x20 DUP3 ADD SWAP1 POP SWAP2 SWAP1 POP JUMP JUMPDEST PUSH0 PUSH2 0x4D12 DUP3 PUSH2 0x4BFA JUMP JUMPDEST PUSH2 0x4D1C DUP2 DUP6 PUSH2 0x4C04 JUMP JUMPDEST SWAP4 POP DUP4 PUSH1 0x20 DUP3 MUL DUP6 ADD PUSH2 0x4D2E DUP6 PUSH2 0x4C14 JUMP JUMPDEST DUP1 PUSH0 JUMPDEST DUP6 DUP2 LT ISZERO PUSH2 0x4D69 JUMPI DUP5 DUP5 SUB DUP10 MSTORE DUP2 MLOAD PUSH2 0x4D4A DUP6 DUP3 PUSH2 0x4CE9 JUMP JUMPDEST SWAP5 POP PUSH2 0x4D55 DUP4 PUSH2 0x4CFC JUMP JUMPDEST SWAP3 POP PUSH1 0x20 DUP11 ADD SWAP10 POP POP PUSH1 0x1 DUP2 ADD SWAP1 POP PUSH2 0x4D31 JUMP JUMPDEST POP DUP3 SWAP8 POP DUP8 SWAP6 POP POP POP POP POP POP SWAP3 SWAP2 POP POP JUMP JUMPDEST PUSH0 PUSH1 0x20 DUP3 ADD SWAP1 POP DUP2 DUP2 SUB PUSH0 DUP4 ADD MSTORE PUSH2 0x4D93 DUP2 DUP5 PUSH2 0x4D08 JUMP JUMPDEST SWAP1 POP SWAP3 SWAP2 POP POP JUMP JUMPDEST PUSH0 DUP1 PUSH1 0x40 DUP4 DUP6 SUB SLT ISZERO PUSH2 0x4DB1 JUMPI PUSH2 0x4DB0 PUSH2 0x49E0 JUMP JUMPDEST JUMPDEST PUSH0 PUSH2 0x4DBE DUP6 DUP3 DUP7 ADD PUSH2 0x4A2E JUMP JUMPDEST SWAP3 POP POP PUSH1 0x20 PUSH2 0x4DCF DUP6 DUP3 DUP7 ADD PUSH2 0x4A2E JUMP JUMPDEST SWAP2 POP POP SWAP3 POP SWAP3 SWAP1 POP JUMP JUMPDEST PUSH0 DUP2 MLOAD SWAP1 POP SWAP2 SWAP1 POP JUMP JUMPDEST PUSH0 DUP3 DUP3 MSTORE PUSH1 0x20 DUP3 ADD SWAP1 POP SWAP3 SWAP2 POP POP JUMP JUMPDEST PUSH0 DUP2 SWAP1 POP PUSH1 0x20 DUP3 ADD SWAP1 POP SWAP2 SWAP1 POP JUMP JUMPDEST PUSH0 PUSH2 0x4E0D DUP4 DUP4 PUSH2 0x4C23 JUMP JUMPDEST PUSH1 0x20 DUP4 ADD SWAP1 POP SWAP3 SWAP2 POP POP JUMP JUMPDEST PUSH0 PUSH1 0x20 DUP3 ADD SWAP1 POP SWAP2 SWAP1 POP JUMP JUMPDEST PUSH0 PUSH2 0x4E2F DUP3 PUSH2 0x4DD9 JUMP JUMPDEST PUSH2 0x4E39 DUP2 DUP6 PUSH2 0x4DE3 JUMP JUMPDEST SWAP4 POP PUSH2 0x4E44 DUP4 PUSH2 0x4DF3 JUMP JUMPDEST DUP1 PUSH0 JUMPDEST DUP4 DUP2 LT ISZERO PUSH2 0x4E74 JUMPI DUP2 MLOAD PUSH2 0x4E5B DUP9 DUP3 PUSH2 0x4E02 JUMP JUMPDEST SWAP8 POP PUSH2 0x4E66 DUP4 PUSH2 0x4E19 JUMP JUMPDEST SWAP3 POP POP PUSH1 0x1 DUP2 ADD SWAP1 POP PUSH2 0x4E47 JUMP JUMPDEST POP DUP6 SWAP4 POP POP POP POP SWAP3 SWAP2 POP POP JUMP JUMPDEST PUSH0 PUSH1 0x20 DUP3 ADD SWAP1 POP DUP2 DUP2 SUB PUSH0 DUP4 ADD MSTORE PUSH2 0x4E99 DUP2 DUP5 PUSH2 0x4E25 JUMP JUMPDEST SWAP1 POP SWAP3 SWAP2 POP POP JUMP JUMPDEST PUSH0 DUP1 PUSH1 0x40 DUP4 DUP6 SUB SLT ISZERO PUSH2 0x4EB7 JUMPI PUSH2 0x4EB6 PUSH2 0x49E0 JUMP JUMPDEST JUMPDEST PUSH0 PUSH2 0x4EC4 DUP6 DUP3 DUP7 ADD PUSH2 0x4AB4 JUMP JUMPDEST SWAP3 POP POP PUSH1 0x20 PUSH2 0x4ED5 DUP6 DUP3 DUP7 ADD PUSH2 0x4A2E JUMP JUMPDEST SWAP2 POP POP SWAP3 POP SWAP3 SWAP1 POP JUMP JUMPDEST PUSH0 DUP1 REVERT JUMPDEST PUSH0 DUP1 REVERT JUMPDEST PUSH32 0x4E487B7100000000000000000000000000000000000000000000000000000000 PUSH0 MSTORE PUSH1 0x41 PUSH1 0x4 MSTORE PUSH1 0x24 PUSH0 REVERT JUMPDEST PUSH2 0x4F1D DUP3 PUSH2 0x4B2A JUMP JUMPDEST DUP2 ADD DUP2 DUP2 LT PUSH8 0xFFFFFFFFFFFFFFFF DUP3 GT OR ISZERO PUSH2 0x4F3C JUMPI PUSH2 0x4F3B PUSH2 0x4EE7 JUMP JUMPDEST JUMPDEST DUP1 PUSH1 0x40 MSTORE POP POP POP JUMP JUMPDEST PUSH0 PUSH2 0x4F4E PUSH2 0x49D7 JUMP JUMPDEST SWAP1 POP PUSH2 0x4F5A DUP3 DUP3 PUSH2 0x4F14 JUMP JUMPDEST SWAP2 SWAP1 POP JUMP JUMPDEST PUSH0 PUSH8 0xFFFFFFFFFFFFFFFF DUP3 GT ISZERO PUSH2 0x4F79 JUMPI PUSH2 0x4F78 PUSH2 0x4EE7 JUMP JUMPDEST JUMPDEST PUSH2 0x4F82 DUP3 PUSH2 0x4B2A JUMP JUMPDEST SWAP1 POP PUSH1 0x20 DUP2 ADD SWAP1 POP SWAP2 SWAP1 POP JUMP JUMPDEST DUP3 DUP2 DUP4 CALLDATACOPY PUSH0 DUP4 DUP4 ADD MSTORE POP POP POP JUMP JUMPDEST PUSH0 PUSH2 0x4FAF PUSH2 0x4FAA DUP5 PUSH2 0x4F5F JUMP JUMPDEST PUSH2 0x4F45 JUMP JUMPDEST SWAP1 POP DUP3 DUP2 MSTORE PUSH1 0x20 DUP2 ADD DUP5 DUP5 DUP5 ADD GT ISZERO PUSH2 0x4FCB JUMPI PUSH2 0x4FCA PUSH2 0x4EE3 JUMP JUMPDEST JUMPDEST PUSH2 0x4FD6 DUP5 DUP3 DUP6 PUSH2 0x4F8F JUMP JUMPDEST POP SWAP4 SWAP3 POP POP POP JUMP JUMPDEST PUSH0 DUP3 PUSH1 0x1F DUP4 ADD SLT PUSH2 0x4FF2 JUMPI PUSH2 0x4FF1 PUSH2 0x4EDF JUMP JUMPDEST JUMPDEST DUP2 CALLDATALOAD PUSH2 0x5002 DUP5 DUP3 PUSH1 0x20 DUP7 ADD PUSH2 0x4F9D JUMP JUMPDEST SWAP2 POP POP SWAP3 SWAP2 POP POP JUMP JUMPDEST PUSH0 DUP1 PUSH0 DUP1 PUSH1 0x80 DUP6 DUP8 SUB SLT ISZERO PUSH2 0x5023 JUMPI PUSH2 0x5022 PUSH2 0x49E0 JUMP JUMPDEST JUMPDEST PUSH0 PUSH2 0x5030 DUP8 DUP3 DUP9 ADD PUSH2 0x4A2E JUMP JUMPDEST SWAP5 POP POP PUSH1 0x20 PUSH2 0x5041 DUP8 DUP3 DUP9 ADD PUSH2 0x4A2E JUMP JUMPDEST SWAP4 POP POP PUSH1 0x40 PUSH2 0x5052 DUP8 DUP3 DUP9 ADD PUSH2 0x4AB4 JUMP JUMPDEST SWAP3 POP POP PUSH1 0x60 DUP6 ADD CALLDATALOAD PUSH8 0xFFFFFFFFFFFFFFFF DUP2 GT ISZERO PUSH2 0x5073 JUMPI PUSH2 0x5072 PUSH2 0x49E4 JUMP JUMPDEST JUMPDEST PUSH2 0x507F DUP8 DUP3 DUP9 ADD PUSH2 0x4FDE JUMP JUMPDEST SWAP2 POP POP SWAP3 SWAP6 SWAP2 SWAP5 POP SWAP3 POP JUMP JUMPDEST PUSH0 DUP2 ISZERO ISZERO SWAP1 POP SWAP2 SWAP1 POP JUMP JUMPDEST PUSH2 0x509F DUP2 PUSH2 0x508B JUMP JUMPDEST DUP3 MSTORE POP POP JUMP JUMPDEST PUSH0 PUSH1 0x20 DUP3 ADD SWAP1 POP PUSH2 0x50B8 PUSH0 DUP4 ADD DUP5 PUSH2 0x5096 JUMP JUMPDEST SWAP3 SWAP2 POP POP JUMP JUMPDEST PUSH0 PUSH1 0x20 DUP3 ADD SWAP1 POP PUSH2 0x50D1 PUSH0 DUP4 ADD DUP5 PUSH2 0x4AF3 JUMP JUMPDEST SWAP3 SWAP2 POP POP JUMP JUMPDEST PUSH0 DUP1 PUSH0 DUP1 PUSH1 0x80 DUP6 DUP8 SUB SLT ISZERO PUSH2 0x50EF JUMPI PUSH2 0x50EE PUSH2 0x49E0 JUMP JUMPDEST JUMPDEST PUSH0 DUP6 ADD CALLDATALOAD PUSH8 0xFFFFFFFFFFFFFFFF DUP2 GT ISZERO PUSH2 0x510C JUMPI PUSH2 0x510B PUSH2 0x49E4 JUMP JUMPDEST JUMPDEST PUSH2 0x5118 DUP8 DUP3 DUP9 ADD PUSH2 0x4FDE JUMP JUMPDEST SWAP5 POP POP PUSH1 0x20 PUSH2 0x5129 DUP8 DUP3 DUP9 ADD PUSH2 0x4A2E JUMP JUMPDEST SWAP4 POP POP PUSH1 0x40 PUSH2 0x513A DUP8 DUP3 DUP9 ADD PUSH2 0x4AB4 JUMP JUMPDEST SWAP3 POP POP PUSH1 0x60 PUSH2 0x514B DUP8 DUP3 DUP9 ADD PUSH2 0x4AB4 JUMP JUMPDEST SWAP2 POP POP SWAP3 SWAP6 SWAP2 SWAP5 POP SWAP3 POP JUMP JUMPDEST PUSH0 PUSH1 0x80 DUP4 ADD PUSH0 DUP4 ADD MLOAD PUSH2 0x516C PUSH0 DUP7 ADD DUP3 PUSH2 0x4C23 JUMP JUMPDEST POP PUSH1 0x20 DUP4 ADD MLOAD PUSH2 0x517F PUSH1 0x20 DUP7 ADD DUP3 PUSH2 0x4C32 JUMP JUMPDEST POP PUSH1 0x40 DUP4 ADD MLOAD PUSH2 0x5192 PUSH1 0x40 DUP7 ADD DUP3 PUSH2 0x4C32 JUMP JUMPDEST POP PUSH1 0x60 DUP4 ADD MLOAD DUP5 DUP3 SUB PUSH1 0x60 DUP7 ADD MSTORE PUSH2 0x51AA DUP3 DUP3 PUSH2 0x4C51 JUMP JUMPDEST SWAP2 POP POP DUP1 SWAP2 POP POP SWAP3 SWAP2 POP POP JUMP JUMPDEST PUSH0 PUSH1 0x20 DUP3 ADD SWAP1 POP DUP2 DUP2 SUB PUSH0 DUP4 ADD MSTORE PUSH2 0x51CF DUP2 DUP5 PUSH2 0x5157 JUMP JUMPDEST SWAP1 POP SWAP3 SWAP2 POP POP JUMP JUMPDEST PUSH0 PUSH1 0x40 DUP3 ADD SWAP1 POP PUSH2 0x51EA PUSH0 DUP4 ADD DUP6 PUSH2 0x4A76 JUMP JUMPDEST PUSH2 0x51F7 PUSH1 0x20 DUP4 ADD DUP5 PUSH2 0x4A76 JUMP JUMPDEST SWAP4 SWAP3 POP POP POP JUMP JUMPDEST PUSH0 DUP2 SWAP1 POP SWAP2 SWAP1 POP JUMP JUMPDEST PUSH0 PUSH2 0x5221 PUSH2 0x521C PUSH2 0x5217 DUP5 PUSH2 0x49E8 JUMP JUMPDEST PUSH2 0x51FE JUMP JUMPDEST PUSH2 0x49E8 JUMP JUMPDEST SWAP1 POP SWAP2 SWAP1 POP JUMP JUMPDEST PUSH0 PUSH2 0x5232 DUP3 PUSH2 0x5207 JUMP JUMPDEST SWAP1 POP SWAP2 SWAP1 POP JUMP JUMPDEST PUSH0 PUSH2 0x5243 DUP3 PUSH2 0x5228 JUMP JUMPDEST SWAP1 POP SWAP2 SWAP1 POP JUMP JUMPDEST PUSH2 0x5253 DUP2 PUSH2 0x5239 JUMP JUMPDEST DUP3 MSTORE POP POP JUMP JUMPDEST PUSH0 PUSH1 0x20 DUP3 ADD SWAP1 POP PUSH2 0x526C PUSH0 DUP4 ADD DUP5 PUSH2 0x524A JUMP JUMPDEST SWAP3 SWAP2 POP POP JUMP JUMPDEST PUSH32 0x4E487B7100000000000000000000000000000000000000000000000000000000 PUSH0 MSTORE PUSH1 0x32 PUSH1 0x4 MSTORE PUSH1 0x24 PUSH0 REVERT JUMPDEST PUSH32 0x4E487B7100000000000000000000000000000000000000000000000000000000 PUSH0 MSTORE PUSH1 0x11 PUSH1 0x4 MSTORE PUSH1 0x24 PUSH0 REVERT JUMPDEST PUSH0 PUSH2 0x52D6 DUP3 PUSH2 0x4A6D JUMP JUMPDEST SWAP2 POP PUSH2 0x52E1 DUP4 PUSH2 0x4A6D JUMP JUMPDEST SWAP3 POP DUP3 DUP3 ADD SWAP1 POP DUP1 DUP3 GT ISZERO PUSH2 0x52F9 JUMPI PUSH2 0x52F8 PUSH2 0x529F JUMP JUMPDEST JUMPDEST SWAP3 SWAP2 POP POP JUMP JUMPDEST PUSH32 0x4E487B7100000000000000000000000000000000000000000000000000000000 PUSH0 MSTORE PUSH1 0x22 PUSH1 0x4 MSTORE PUSH1 0x24 PUSH0 REVERT JUMPDEST PUSH0 PUSH1 0x2 DUP3 DIV SWAP1 POP PUSH1 0x1 DUP3 AND DUP1 PUSH2 0x5343 JUMPI PUSH1 0x7F DUP3 AND SWAP2 POP JUMPDEST PUSH1 0x20 DUP3 LT DUP2 SUB PUSH2 0x5356 JUMPI PUSH2 0x5355 PUSH2 0x52FF JUMP JUMPDEST JUMPDEST POP SWAP2 SWAP1 POP JUMP JUMPDEST PUSH0 PUSH2 0x5366 DUP3 PUSH2 0x4A6D JUMP JUMPDEST SWAP2 POP PUSH2 0x5371 DUP4 PUSH2 0x4A6D JUMP JUMPDEST SWAP3 POP DUP3 DUP3 MUL PUSH2 0x537F DUP2 PUSH2 0x4A6D JUMP JUMPDEST SWAP2 POP DUP3 DUP3 DIV DUP5 EQ DUP4 ISZERO OR PUSH2 0x5396 JUMPI PUSH2 0x5395 PUSH2 0x529F JUMP JUMPDEST JUMPDEST POP SWAP3 SWAP2 POP POP JUMP JUMPDEST PUSH32 0x4E487B7100000000000000000000000000000000000000000000000000000000 PUSH0 MSTORE PUSH1 0x12 PUSH1 0x4 MSTORE PUSH1 0x24 PUSH0 REVERT JUMPDEST PUSH0 PUSH2 0x53D4 DUP3 PUSH2 0x4A6D JUMP JUMPDEST SWAP2 POP PUSH2 0x53DF DUP4 PUSH2 0x4A6D JUMP JUMPDEST SWAP3 POP DUP3 PUSH2 0x53EF JUMPI PUSH2 0x53EE PUSH2 0x539D JUMP JUMPDEST JUMPDEST DUP3 DUP3 DIV SWAP1 POP SWAP3 SWAP2 POP POP JUMP JUMPDEST PUSH0 DUP2 SWAP1 POP SWAP2 SWAP1 POP JUMP JUMPDEST PUSH2 0x540C DUP2 PUSH2 0x53FA JUMP JUMPDEST DUP3 MSTORE POP POP JUMP JUMPDEST PUSH0 PUSH1 0x40 DUP3 ADD SWAP1 POP PUSH2 0x5425 PUSH0 DUP4 ADD DUP6 PUSH2 0x4AF3 JUMP JUMPDEST PUSH2 0x5432 PUSH1 0x20 DUP4 ADD DUP5 PUSH2 0x5403 JUMP JUMPDEST SWAP4 SWAP3 POP POP POP JUMP JUMPDEST PUSH0 PUSH1 0x40 DUP3 ADD SWAP1 POP PUSH2 0x544C PUSH0 DUP4 ADD DUP6 PUSH2 0x4AF3 JUMP JUMPDEST PUSH2 0x5459 PUSH1 0x20 DUP4 ADD DUP5 PUSH2 0x4A76 JUMP JUMPDEST SWAP4 SWAP3 POP POP POP JUMP JUMPDEST PUSH0 PUSH1 0x60 DUP3 ADD SWAP1 POP PUSH2 0x5473 PUSH0 DUP4 ADD DUP7 PUSH2 0x4AF3 JUMP JUMPDEST PUSH2 0x5480 PUSH1 0x20 DUP4 ADD DUP6 PUSH2 0x4AF3 JUMP JUMPDEST PUSH2 0x548D PUSH1 0x40 DUP4 ADD DUP5 PUSH2 0x4A76 JUMP JUMPDEST SWAP5 SWAP4 POP POP POP POP JUMP JUMPDEST PUSH2 0x549E DUP2 PUSH2 0x508B JUMP JUMPDEST DUP2 EQ PUSH2 0x54A8 JUMPI PUSH0 DUP1 REVERT JUMPDEST POP JUMP JUMPDEST PUSH0 DUP2 MLOAD SWAP1 POP PUSH2 0x54B9 DUP2 PUSH2 0x5495 JUMP JUMPDEST SWAP3 SWAP2 POP POP JUMP JUMPDEST PUSH0 PUSH1 0x20 DUP3 DUP5 SUB SLT ISZERO PUSH2 0x54D4 JUMPI PUSH2 0x54D3 PUSH2 0x49E0 JUMP JUMPDEST JUMPDEST PUSH0 PUSH2 0x54E1 DUP5 DUP3 DUP6 ADD PUSH2 0x54AB JUMP JUMPDEST SWAP2 POP POP SWAP3 SWAP2 POP POP JUMP JUMPDEST PUSH0 PUSH2 0x54F4 DUP3 PUSH2 0x4A6D JUMP JUMPDEST SWAP2 POP PUSH2 0x54FF DUP4 PUSH2 0x4A6D JUMP JUMPDEST SWAP3 POP DUP3 DUP3 SUB SWAP1 POP DUP2 DUP2 GT ISZERO PUSH2 0x5517 JUMPI PUSH2 0x5516 PUSH2 0x529F JUMP JUMPDEST JUMPDEST SWAP3 SWAP2 POP POP JUMP JUMPDEST PUSH32 0x4E487B7100000000000000000000000000000000000000000000000000000000 PUSH0 MSTORE PUSH1 0x31 PUSH1 0x4 MSTORE PUSH1 0x24 PUSH0 REVERT JUMPDEST PUSH0 DUP2 SLOAD SWAP1 POP SWAP2 SWAP1 POP JUMP JUMPDEST PUSH0 DUP2 SWAP1 POP DUP2 PUSH0 MSTORE PUSH1 0x20 PUSH0 KECCAK256 SWAP1 POP SWAP2 SWAP1 POP JUMP JUMPDEST PUSH0 DUP2 PUSH0 SHR SWAP1 POP SWAP2 SWAP1 POP JUMP JUMPDEST PUSH0 PUSH20 0xFFFFFFFFFFFFFFFFFFFFFFFFFFFFFFFFFFFFFFFF DUP3 AND SWAP1 POP SWAP2 SWAP1 POP JUMP JUMPDEST PUSH0 PUSH2 0x55A2 PUSH2 0x559D DUP4 PUSH2 0x5566 JUMP JUMPDEST PUSH2 0x5571 JUMP JUMPDEST SWAP1 POP SWAP2 SWAP1 POP JUMP JUMPDEST PUSH0 PUSH2 0x55B4 DUP3 SLOAD PUSH2 0x5590 JUMP JUMPDEST SWAP1 POP SWAP2 SWAP1 POP JUMP JUMPDEST PUSH0 PUSH1 0x1 DUP3 ADD SWAP1 POP SWAP2 SWAP1 POP JUMP JUMPDEST PUSH0 PUSH2 0x55D1 DUP3 PUSH2 0x554A JUMP JUMPDEST PUSH2 0x55DB DUP2 DUP6 PUSH2 0x4DE3 JUMP JUMPDEST SWAP4 POP PUSH2 0x55E6 DUP4 PUSH2 0x5554 JUMP JUMPDEST DUP1 PUSH0 JUMPDEST DUP4 DUP2 LT ISZERO PUSH2 0x561D JUMPI PUSH2 0x55FA DUP3 PUSH2 0x55A9 JUMP JUMPDEST PUSH2 0x5604 DUP9 DUP3 PUSH2 0x4E02 JUMP JUMPDEST SWAP8 POP PUSH2 0x560F DUP4 PUSH2 0x55BB JUMP JUMPDEST SWAP3 POP POP PUSH1 0x1 DUP2 ADD SWAP1 POP PUSH2 0x55E9 JUMP JUMPDEST POP DUP6 SWAP4 POP POP POP POP SWAP3 SWAP2 POP POP JUMP JUMPDEST PUSH0 PUSH1 0xA0 DUP3 ADD SWAP1 POP PUSH2 0x563D PUSH0 DUP4 ADD DUP9 PUSH2 0x4AF3 JUMP JUMPDEST PUSH2 0x564A PUSH1 0x20 DUP4 ADD DUP8 PUSH2 0x5403 JUMP JUMPDEST PUSH2 0x5657 PUSH1 0x40 DUP4 ADD DUP7 PUSH2 0x4A76 JUMP JUMPDEST PUSH2 0x5664 PUSH1 0x60 DUP4 ADD DUP6 PUSH2 0x4A76 JUMP JUMPDEST DUP2 DUP2 SUB PUSH1 0x80 DUP4 ADD MSTORE PUSH2 0x5676 DUP2 DUP5 PUSH2 0x55C7 JUMP JUMPDEST SWAP1 POP SWAP7 SWAP6 POP POP POP POP POP POP JUMP JUMPDEST PUSH0 PUSH1 0x60 DUP3 ADD SWAP1 POP PUSH2 0x5695 PUSH0 DUP4 ADD DUP7 PUSH2 0x4AF3 JUMP JUMPDEST PUSH2 0x56A2 PUSH1 0x20 DUP4 ADD DUP6 PUSH2 0x4A76 JUMP JUMPDEST PUSH2 0x56AF PUSH1 0x40 DUP4 ADD DUP5 PUSH2 0x4A76 JUMP JUMPDEST SWAP5 SWAP4 POP POP POP POP JUMP JUMPDEST PUSH0 DUP2 MLOAD SWAP1 POP PUSH2 0x56C5 DUP2 PUSH2 0x4A9E JUMP JUMPDEST SWAP3 SWAP2 POP POP JUMP JUMPDEST PUSH0 PUSH1 0x20 DUP3 DUP5 SUB SLT ISZERO PUSH2 0x56E0 JUMPI PUSH2 0x56DF PUSH2 0x49E0 JUMP JUMPDEST JUMPDEST PUSH0 PUSH2 0x56ED DUP5 DUP3 DUP6 ADD PUSH2 0x56B7 JUMP JUMPDEST SWAP2 POP POP SWAP3 SWAP2 POP POP JUMP JUMPDEST PUSH32 0x496E73756666696369656E7420546F6B656E0000000000000000000000000000 PUSH0 DUP3 ADD MSTORE POP JUMP JUMPDEST PUSH0 PUSH2 0x572A PUSH1 0x12 DUP4 PUSH2 0x4B0C JUMP JUMPDEST SWAP2 POP PUSH2 0x5735 DUP3 PUSH2 0x56F6 JUMP JUMPDEST PUSH1 0x20 DUP3 ADD SWAP1 POP SWAP2 SWAP1 POP JUMP JUMPDEST PUSH0 PUSH1 0x20 DUP3 ADD SWAP1 POP DUP2 DUP2 SUB PUSH0 DUP4 ADD MSTORE PUSH2 0x5757 DUP2 PUSH2 0x571E JUMP JUMPDEST SWAP1 POP SWAP2 SWAP1 POP JUMP JUMPDEST PUSH0 PUSH2 0x5768 DUP3 PUSH2 0x4A6D JUMP JUMPDEST SWAP2 POP PUSH32 0xFFFFFFFFFFFFFFFFFFFFFFFFFFFFFFFFFFFFFFFFFFFFFFFFFFFFFFFFFFFFFFFF DUP3 SUB PUSH2 0x579A JUMPI PUSH2 0x5799 PUSH2 0x529F JUMP JUMPDEST JUMPDEST PUSH1 0x1 DUP3 ADD SWAP1 POP SWAP2 SWAP1 POP JUMP JUMPDEST PUSH0 PUSH1 0xE0 DUP3 ADD SWAP1 POP PUSH2 0x57B8 PUSH0 DUP4 ADD DUP11 PUSH2 0x4AF3 JUMP JUMPDEST PUSH2 0x57C5 PUSH1 0x20 DUP4 ADD DUP10 PUSH2 0x4A76 JUMP JUMPDEST PUSH2 0x57D2 PUSH1 0x40 DUP4 ADD DUP9 PUSH2 0x4A76 JUMP JUMPDEST PUSH2 0x57DF PUSH1 0x60 DUP4 ADD DUP8 PUSH2 0x5096 JUMP JUMPDEST PUSH2 0x57EC PUSH1 0x80 DUP4 ADD DUP7 PUSH2 0x5403 JUMP JUMPDEST DUP2 DUP2 SUB PUSH1 0xA0 DUP4 ADD MSTORE PUSH2 0x57FE DUP2 DUP6 PUSH2 0x55C7 JUMP JUMPDEST SWAP1 POP PUSH2 0x580D PUSH1 0xC0 DUP4 ADD DUP5 PUSH2 0x4A76 JUMP JUMPDEST SWAP9 SWAP8 POP POP POP POP POP POP POP POP JUMP JUMPDEST PUSH0 DUP2 SWAP1 POP SWAP3 SWAP2 POP POP JUMP JUMPDEST PUSH32 0x746F6B656E734C656E7400000000000000000000000000000000000000000000 PUSH0 DUP3 ADD MSTORE POP JUMP JUMPDEST PUSH0 PUSH2 0x5857 PUSH1 0xA DUP4 PUSH2 0x5819 JUMP JUMPDEST SWAP2 POP PUSH2 0x5862 DUP3 PUSH2 0x5823 JUMP JUMPDEST PUSH1 0xA DUP3 ADD SWAP1 POP SWAP2 SWAP1 POP JUMP JUMPDEST PUSH0 PUSH2 0x5877 DUP3 PUSH2 0x584B JUMP JUMPDEST SWAP2 POP DUP2 SWAP1 POP SWAP2 SWAP1 POP JUMP JUMPDEST PUSH0 PUSH2 0x588B DUP3 PUSH2 0x4B02 JUMP JUMPDEST PUSH2 0x5895 DUP2 DUP6 PUSH2 0x5819 JUMP JUMPDEST SWAP4 POP PUSH2 0x58A5 DUP2 DUP6 PUSH1 0x20 DUP7 ADD PUSH2 0x4B1C JUMP JUMPDEST DUP1 DUP5 ADD SWAP2 POP POP SWAP3 SWAP2 POP POP JUMP JUMPDEST PUSH0 PUSH2 0x58BC DUP3 DUP5 PUSH2 0x5881 JUMP JUMPDEST SWAP2 POP DUP2 SWAP1 POP SWAP3 SWAP2 POP POP JUMP JUMPDEST PUSH32 0x746F6B656E73426F72726F776564000000000000000000000000000000000000 PUSH0 DUP3 ADD MSTORE POP JUMP JUMPDEST PUSH0 PUSH2 0x58FB PUSH1 0xE DUP4 PUSH2 0x5819 JUMP JUMPDEST SWAP2 POP PUSH2 0x5906 DUP3 PUSH2 0x58C7 JUMP JUMPDEST PUSH1 0xE DUP3 ADD SWAP1 POP SWAP2 SWAP1 POP JUMP JUMPDEST PUSH0 PUSH2 0x591B DUP3 PUSH2 0x58EF JUMP JUMPDEST SWAP2 POP DUP2 SWAP1 POP SWAP2 SWAP1 POP JUMP JUMPDEST PUSH0 PUSH1 0x60 DUP3 ADD SWAP1 POP PUSH2 0x5938 PUSH0 DUP4 ADD DUP7 PUSH2 0x4AF3 JUMP JUMPDEST DUP2 DUP2 SUB PUSH1 0x20 DUP4 ADD MSTORE PUSH2 0x594A DUP2 DUP6 PUSH2 0x55C7 JUMP JUMPDEST SWAP1 POP PUSH2 0x5959 PUSH1 0x40 DUP4 ADD DUP5 PUSH2 0x4A76 JUMP JUMPDEST SWAP5 SWAP4 POP POP POP POP JUMP JUMPDEST PUSH0 DUP2 SWAP1 POP DUP2 PUSH0 MSTORE PUSH1 0x20 PUSH0 KECCAK256 SWAP1 POP SWAP2 SWAP1 POP JUMP JUMPDEST PUSH0 PUSH1 0x20 PUSH1 0x1F DUP4 ADD DIV SWAP1 POP SWAP2 SWAP1 POP JUMP JUMPDEST PUSH0 DUP3 DUP3 SHL SWAP1 POP SWAP3 SWAP2 POP POP JUMP JUMPDEST PUSH0 PUSH1 0x8 DUP4 MUL PUSH2 0x59BD PUSH32 0xFFFFFFFFFFFFFFFFFFFFFFFFFFFFFFFFFFFFFFFFFFFFFFFFFFFFFFFFFFFFFFFF DUP3 PUSH2 0x5982 JUMP JUMPDEST PUSH2 0x59C7 DUP7 DUP4 PUSH2 0x5982 JUMP JUMPDEST SWAP6 POP DUP1 NOT DUP5 AND SWAP4 POP DUP1 DUP7 AND DUP5 OR SWAP3 POP POP POP SWAP4 SWAP3 POP POP POP JUMP JUMPDEST PUSH0 PUSH2 0x59F9 PUSH2 0x59F4 PUSH2 0x59EF DUP5 PUSH2 0x4A6D JUMP JUMPDEST PUSH2 0x51FE JUMP JUMPDEST PUSH2 0x4A6D JUMP JUMPDEST SWAP1 POP SWAP2 SWAP1 POP JUMP JUMPDEST PUSH0 DUP2 SWAP1 POP SWAP2 SWAP1 POP JUMP JUMPDEST PUSH2 0x5A12 DUP4 PUSH2 0x59DF JUMP JUMPDEST PUSH2 0x5A26 PUSH2 0x5A1E DUP3 PUSH2 0x5A00 JUMP JUMPDEST DUP5 DUP5 SLOAD PUSH2 0x598E JUMP JUMPDEST DUP3 SSTORE POP POP POP POP JUMP JUMPDEST PUSH0 SWAP1 JUMP JUMPDEST PUSH2 0x5A3A PUSH2 0x5A2E JUMP JUMPDEST PUSH2 0x5A45 DUP2 DUP5 DUP5 PUSH2 0x5A09 JUMP JUMPDEST POP POP POP JUMP JUMPDEST JUMPDEST DUP2 DUP2 LT ISZERO PUSH2 0x5A68 JUMPI PUSH2 0x5A5D PUSH0 DUP3 PUSH2 0x5A32 JUMP JUMPDEST PUSH1 0x1 DUP2 ADD SWAP1 POP PUSH2 0x5A4B JUMP JUMPDEST POP POP JUMP JUMPDEST PUSH1 0x1F DUP3 GT ISZERO PUSH2 0x5AAD JUMPI PUSH2 0x5A7E DUP2 PUSH2 0x5961 JUMP JUMPDEST PUSH2 0x5A87 DUP5 PUSH2 0x5973 JUMP JUMPDEST DUP2 ADD PUSH1 0x20 DUP6 LT ISZERO PUSH2 0x5A96 JUMPI DUP2 SWAP1 POP JUMPDEST PUSH2 0x5AAA PUSH2 0x5AA2 DUP6 PUSH2 0x5973 JUMP JUMPDEST DUP4 ADD DUP3 PUSH2 0x5A4A JUMP JUMPDEST POP POP JUMPDEST POP POP POP JUMP JUMPDEST PUSH0 DUP3 DUP3 SHR SWAP1 POP SWAP3 SWAP2 POP POP JUMP JUMPDEST PUSH0 PUSH2 0x5ACD PUSH0 NOT DUP5 PUSH1 0x8 MUL PUSH2 0x5AB2 JUMP JUMPDEST NOT DUP1 DUP4 AND SWAP2 POP POP SWAP3 SWAP2 POP POP JUMP JUMPDEST PUSH0 PUSH2 0x5AE5 DUP4 DUP4 PUSH2 0x5ABE JUMP JUMPDEST SWAP2 POP DUP3 PUSH1 0x2 MUL DUP3 OR SWAP1 POP SWAP3 SWAP2 POP POP JUMP JUMPDEST PUSH2 0x5AFE DUP3 PUSH2 0x4B02 JUMP JUMPDEST PUSH8 0xFFFFFFFFFFFFFFFF DUP2 GT ISZERO PUSH2 0x5B17 JUMPI PUSH2 0x5B16 PUSH2 0x4EE7 JUMP JUMPDEST JUMPDEST PUSH2 0x5B21 DUP3 SLOAD PUSH2 0x532C JUMP JUMPDEST PUSH2 0x5B2C DUP3 DUP3 DUP6 PUSH2 0x5A6C JUMP JUMPDEST PUSH0 PUSH1 0x20 SWAP1 POP PUSH1 0x1F DUP4 GT PUSH1 0x1 DUP2 EQ PUSH2 0x5B5D JUMPI PUSH0 DUP5 ISZERO PUSH2 0x5B4B JUMPI DUP3 DUP8 ADD MLOAD SWAP1 POP JUMPDEST PUSH2 0x5B55 DUP6 DUP3 PUSH2 0x5ADA JUMP JUMPDEST DUP7 SSTORE POP PUSH2 0x5BBC JUMP JUMPDEST PUSH1 0x1F NOT DUP5 AND PUSH2 0x5B6B DUP7 PUSH2 0x5961 JUMP JUMPDEST PUSH0 JUMPDEST DUP3 DUP2 LT ISZERO PUSH2 0x5B92 JUMPI DUP5 DUP10 ADD MLOAD DUP3 SSTORE PUSH1 0x1 DUP3 ADD SWAP2 POP PUSH1 0x20 DUP6 ADD SWAP5 POP PUSH1 0x20 DUP2 ADD SWAP1 POP PUSH2 0x5B6D JUMP JUMPDEST DUP7 DUP4 LT ISZERO PUSH2 0x5BAF JUMPI DUP5 DUP10 ADD MLOAD PUSH2 0x5BAB PUSH1 0x1F DUP10 AND DUP3 PUSH2 0x5ABE JUMP JUMPDEST DUP4 SSTORE POP JUMPDEST PUSH1 0x1 PUSH1 0x2 DUP9 MUL ADD DUP9 SSTORE POP POP POP JUMPDEST POP POP POP POP POP POP JUMP JUMPDEST PUSH0 PUSH1 0xC0 DUP3 ADD SWAP1 POP PUSH2 0x5BD7 PUSH0 DUP4 ADD DUP10 PUSH2 0x4AF3 JUMP JUMPDEST PUSH2 0x5BE4 PUSH1 0x20 DUP4 ADD DUP9 PUSH2 0x4A76 JUMP JUMPDEST PUSH2 0x5BF1 PUSH1 0x40 DUP4 ADD DUP8 PUSH2 0x4A76 JUMP JUMPDEST PUSH2 0x5BFE PUSH1 0x60 DUP4 ADD DUP7 PUSH2 0x4A76 JUMP JUMPDEST PUSH2 0x5C0B PUSH1 0x80 DUP4 ADD DUP6 PUSH2 0x4A76 JUMP JUMPDEST PUSH2 0x5C18 PUSH1 0xA0 DUP4 ADD DUP5 PUSH2 0x4A76 JUMP JUMPDEST SWAP8 SWAP7 POP POP POP POP POP POP POP JUMP JUMPDEST PUSH0 DUP2 PUSH1 0x1 SHR SWAP1 POP SWAP2 SWAP1 POP JUMP JUMPDEST PUSH0 DUP1 DUP3 SWAP2 POP DUP4 SWAP1 POP JUMPDEST PUSH1 0x1 DUP6 GT ISZERO PUSH2 0x5C78 JUMPI DUP1 DUP7 DIV DUP2 GT ISZERO PUSH2 0x5C54 JUMPI PUSH2 0x5C53 PUSH2 0x529F JUMP JUMPDEST JUMPDEST PUSH1 0x1 DUP6 AND ISZERO PUSH2 0x5C63 JUMPI DUP1 DUP3 MUL SWAP2 POP JUMPDEST DUP1 DUP2 MUL SWAP1 POP PUSH2 0x5C71 DUP6 PUSH2 0x5C23 JUMP JUMPDEST SWAP5 POP PUSH2 0x5C38 JUMP JUMPDEST SWAP5 POP SWAP5 SWAP3 POP POP POP JUMP JUMPDEST PUSH0 DUP3 PUSH2 0x5C90 JUMPI PUSH1 0x1 SWAP1 POP PUSH2 0x5D4B JUMP JUMPDEST DUP2 PUSH2 0x5C9D JUMPI PUSH0 SWAP1 POP PUSH2 0x5D4B JUMP JUMPDEST DUP2 PUSH1 0x1 DUP2 EQ PUSH2 0x5CB3 JUMPI PUSH1 0x2 DUP2 EQ PUSH2 0x5CBD JUMPI PUSH2 0x5CEC JUMP JUMPDEST PUSH1 0x1 SWAP2 POP POP PUSH2 0x5D4B JUMP JUMPDEST PUSH1 0xFF DUP5 GT ISZERO PUSH2 0x5CCF JUMPI PUSH2 0x5CCE PUSH2 0x529F JUMP JUMPDEST JUMPDEST DUP4 PUSH1 0x2 EXP SWAP2 POP DUP5 DUP3 GT ISZERO PUSH2 0x5CE6 JUMPI PUSH2 0x5CE5 PUSH2 0x529F JUMP JUMPDEST JUMPDEST POP PUSH2 0x5D4B JUMP JUMPDEST POP PUSH1 0x20 DUP4 LT PUSH2 0x133 DUP4 LT AND PUSH1 0x4E DUP5 LT PUSH1 0xB DUP5 LT AND OR ISZERO PUSH2 0x5D21 JUMPI DUP3 DUP3 EXP SWAP1 POP DUP4 DUP2 GT ISZERO PUSH2 0x5D1C JUMPI PUSH2 0x5D1B PUSH2 0x529F JUMP JUMPDEST JUMPDEST PUSH2 0x5D4B JUMP JUMPDEST PUSH2 0x5D2E DUP5 DUP5 DUP5 PUSH1 0x1 PUSH2 0x5C2F JUMP JUMPDEST SWAP3 POP SWAP1 POP DUP2 DUP5 DIV DUP2 GT ISZERO PUSH2 0x5D45 JUMPI PUSH2 0x5D44 PUSH2 0x529F JUMP JUMPDEST JUMPDEST DUP2 DUP2 MUL SWAP1 POP JUMPDEST SWAP4 SWAP3 POP POP POP JUMP JUMPDEST PUSH0 PUSH2 0x5D5C DUP3 PUSH2 0x4A6D JUMP JUMPDEST SWAP2 POP PUSH2 0x5D67 DUP4 PUSH2 0x4A6D JUMP JUMPDEST SWAP3 POP PUSH2 0x5D94 PUSH32 0xFFFFFFFFFFFFFFFFFFFFFFFFFFFFFFFFFFFFFFFFFFFFFFFFFFFFFFFFFFFFFFFF DUP5 DUP5 PUSH2 0x5C81 JUMP JUMPDEST SWAP1 POP SWAP3 SWAP2 POP POP JUMP JUMPDEST PUSH0 PUSH10 0xFFFFFFFFFFFFFFFFFFFF DUP3 AND SWAP1 POP SWAP2 SWAP1 POP JUMP JUMPDEST PUSH2 0x5DBA DUP2 PUSH2 0x5D9C JUMP JUMPDEST DUP2 EQ PUSH2 0x5DC4 JUMPI PUSH0 DUP1 REVERT JUMPDEST POP JUMP JUMPDEST PUSH0 DUP2 MLOAD SWAP1 POP PUSH2 0x5DD5 DUP2 PUSH2 0x5DB1 JUMP JUMPDEST SWAP3 SWAP2 POP POP JUMP JUMPDEST PUSH2 0x5DE4 DUP2 PUSH2 0x53FA JUMP JUMPDEST DUP2 EQ PUSH2 0x5DEE JUMPI PUSH0 DUP1 REVERT JUMPDEST POP JUMP JUMPDEST PUSH0 DUP2 MLOAD SWAP1 POP PUSH2 0x5DFF DUP2 PUSH2 0x5DDB JUMP JUMPDEST SWAP3 SWAP2 POP POP JUMP JUMPDEST PUSH0 DUP1 PUSH0 DUP1 PUSH0 PUSH1 0xA0 DUP7 DUP9 SUB SLT ISZERO PUSH2 0x5E1E JUMPI PUSH2 0x5E1D PUSH2 0x49E0 JUMP JUMPDEST JUMPDEST PUSH0 PUSH2 0x5E2B DUP9 DUP3 DUP10 ADD PUSH2 0x5DC7 JUMP JUMPDEST SWAP6 POP POP PUSH1 0x20 PUSH2 0x5E3C DUP9 DUP3 DUP10 ADD PUSH2 0x5DF1 JUMP JUMPDEST SWAP5 POP POP PUSH1 0x40 PUSH2 0x5E4D DUP9 DUP3 DUP10 ADD PUSH2 0x56B7 JUMP JUMPDEST SWAP4 POP POP PUSH1 0x60 PUSH2 0x5E5E DUP9 DUP3 DUP10 ADD PUSH2 0x56B7 JUMP JUMPDEST SWAP3 POP POP PUSH1 0x80 PUSH2 0x5E6F DUP9 DUP3 DUP10 ADD PUSH2 0x5DC7 JUMP JUMPDEST SWAP2 POP POP SWAP3 SWAP6 POP SWAP3 SWAP6 SWAP1 SWAP4 POP JUMP JUMPDEST PUSH0 PUSH1 0xFF DUP3 AND SWAP1 POP SWAP2 SWAP1 POP JUMP JUMPDEST PUSH2 0x5E91 DUP2 PUSH2 0x5E7C JUMP JUMPDEST DUP2 EQ PUSH2 0x5E9B JUMPI PUSH0 DUP1 REVERT JUMPDEST POP JUMP JUMPDEST PUSH0 DUP2 MLOAD SWAP1 POP PUSH2 0x5EAC DUP2 PUSH2 0x5E88 JUMP JUMPDEST SWAP3 SWAP2 POP POP JUMP JUMPDEST PUSH0 PUSH1 0x20 DUP3 DUP5 SUB SLT ISZERO PUSH2 0x5EC7 JUMPI PUSH2 0x5EC6 PUSH2 0x49E0 JUMP JUMPDEST JUMPDEST PUSH0 PUSH2 0x5ED4 DUP5 DUP3 DUP6 ADD PUSH2 0x5E9E JUMP JUMPDEST SWAP2 POP POP SWAP3 SWAP2 POP POP JUMP JUMPDEST PUSH32 0x6C656E6465727300000000000000000000000000000000000000000000000000 PUSH0 DUP3 ADD MSTORE POP JUMP JUMPDEST PUSH0 PUSH2 0x5F11 PUSH1 0x7 DUP4 PUSH2 0x5819 JUMP JUMPDEST SWAP2 POP PUSH2 0x5F1C DUP3 PUSH2 0x5EDD JUMP JUMPDEST PUSH1 0x7 DUP3 ADD SWAP1 POP SWAP2 SWAP1 POP JUMP JUMPDEST PUSH0 PUSH2 0x5F31 DUP3 PUSH2 0x5F05 JUMP JUMPDEST SWAP2 POP DUP2 SWAP1 POP SWAP2 SWAP1 POP JUMP JUMPDEST PUSH32 0x626F72726F776572730000000000000000000000000000000000000000000000 PUSH0 DUP3 ADD MSTORE POP JUMP JUMPDEST PUSH0 PUSH2 0x5F6F PUSH1 0x9 DUP4 PUSH2 0x5819 JUMP JUMPDEST SWAP2 POP PUSH2 0x5F7A DUP3 PUSH2 0x5F3B JUMP JUMPDEST PUSH1 0x9 DUP3 ADD SWAP1 POP SWAP2 SWAP1 POP JUMP JUMPDEST PUSH0 PUSH2 0x5F8F DUP3 PUSH2 0x5F63 JUMP JUMPDEST SWAP2 POP DUP2 SWAP1 POP SWAP2 SWAP1 POP JUMP INVALID LOG2 PUSH5 0x6970667358 0x22 SLT KECCAK256 EQ SWAP9 SWAP6 0x21 0xC8 PUSH29 0xF56413CC837EE63957BA362EA5689B36872DEC3BD007247520C64736F PUSH13 0x634300081A0033000000000000 "
		},
		"gasEstimates": {
			"creation": {
				"codeDepositCost": "4905400",
				"executionCost": "infinite",
				"totalCost": "infinite"
			},
			"external": {
				"addTokenToPriceFeedMapping(address,address)": "infinite",
				"addTokensForBorrowing(string,address,uint256,uint256)": "infinite",
				"addTokensForLending(string,address,uint256,uint256)": "infinite",
				"borrow(uint256,address)": "infinite",
				"borrowers(uint256)": "5011",
				"getAmountInDollars(uint256,address)": "infinite",
				"getBorrowersArray()": "infinite",
				"getLendersArray()": "infinite",
				"getRemainingCollateral(address)": "infinite",
				"getTokenAvailableToWithdraw(address)": "infinite",
				"getTokenFrom(address)": "infinite",
				"getTokensForBorrowingArray()": "infinite",
				"getTokensForLendingArray()": "infinite",
				"getTotalAmountBorrowedInDollars(address)": "infinite",
				"getTotalAmountLentInDollars(address)": "infinite",
				"getTotalTokenBorrowed(address)": "infinite",
				"getTotalTokenSupplied(address)": "infinite",
				"getUserTotalAmountAvailableForBorrowInDollars(address)": "infinite",
				"hasLentOrBorrowedToken(address,address,uint256,string)": "infinite",
				"interest(address,uint256)": "infinite",
				"larToken()": "infinite",
				"lend(address,uint256)": "infinite",
				"lenders(uint256)": "5012",
				"noOfTokensBorrowed()": "2515",
				"noOfTokensLent()": "2558",
				"oneTokenEqualsHowManyDollars(address)": "infinite",
				"owner()": "2561",
				"payDebt(address,uint256)": "infinite",
				"renounceOwnership()": "infinite",
				"tokenToPriceFeed(address)": "infinite",
				"tokensBorrowed(uint256,address)": "infinite",
				"tokensBorrowedAmount(address,address)": "infinite",
				"tokensForBorrowing(uint256)": "infinite",
				"tokensForLending(uint256)": "infinite",
				"tokensLent(uint256,address)": "infinite",
				"tokensLentAmount(address,address)": "infinite",
				"transferOwnership(address)": "infinite",
				"withdraw(address,uint256)": "infinite"
			},
			"internal": {
				"tokenIsAllowed(address,struct LendingAndBorrowing.Token memory[] memory)": "infinite",
				"tokenIsAlreadyThere(struct LendingAndBorrowing.Token memory,struct LendingAndBorrowing.Token memory[] memory)": "infinite",
				"updateUserTokensBorrowedOrLent(address,uint256,int256,string memory)": "infinite"
			}
		},
		"methodIdentifiers": {
			"addTokenToPriceFeedMapping(address,address)": "b3d16f8d",
			"addTokensForBorrowing(string,address,uint256,uint256)": "ff2f4465",
			"addTokensForLending(string,address,uint256,uint256)": "c4543b67",
			"borrow(uint256,address)": "4b3fd148",
			"borrowers(uint256)": "7924d93f",
			"getAmountInDollars(uint256,address)": "fb24af7f",
			"getBorrowersArray()": "8cf1806b",
			"getLendersArray()": "3c9d5093",
			"getRemainingCollateral(address)": "aac0bf96",
			"getTokenAvailableToWithdraw(address)": "6352b568",
			"getTokenFrom(address)": "fc757b88",
			"getTokensForBorrowingArray()": "d7a9a25c",
			"getTokensForLendingArray()": "1c9e5224",
			"getTotalAmountBorrowedInDollars(address)": "1419f093",
			"getTotalAmountLentInDollars(address)": "a7772b97",
			"getTotalTokenBorrowed(address)": "ab56ee66",
			"getTotalTokenSupplied(address)": "06254c6a",
			"getUserTotalAmountAvailableForBorrowInDollars(address)": "7b9ec997",
			"hasLentOrBorrowedToken(address,address,uint256,string)": "4fa9f5a4",
			"interest(address,uint256)": "11f4f5d3",
			"larToken()": "fe726f80",
			"lend(address,uint256)": "a2fb342d",
			"lenders(uint256)": "929eea21",
			"noOfTokensBorrowed()": "541d8338",
			"noOfTokensLent()": "b9f09bb8",
			"oneTokenEqualsHowManyDollars(address)": "fdc8070e",
			"owner()": "8da5cb5b",
			"payDebt(address,uint256)": "1818dd0b",
			"renounceOwnership()": "715018a6",
			"tokenToPriceFeed(address)": "8078f22c",
			"tokensBorrowed(uint256,address)": "74fd0ce0",
			"tokensBorrowedAmount(address,address)": "a8b74152",
			"tokensForBorrowing(uint256)": "447007fd",
			"tokensForLending(uint256)": "08ae7fc2",
			"tokensLent(uint256,address)": "cd927409",
			"tokensLentAmount(address,address)": "27e8e184",
			"transferOwnership(address)": "f2fde38b",
			"withdraw(address,uint256)": "f3fef3a3"
		}
	},
	"abi": [
		{
			"inputs": [
				{
					"internalType": "address",
					"name": "_token",
					"type": "address"
				}
			],
			"stateMutability": "nonpayable",
			"type": "constructor"
		},
		{
			"inputs": [
				{
					"internalType": "address",
					"name": "owner",
					"type": "address"
				}
			],
			"name": "OwnableInvalidOwner",
			"type": "error"
		},
		{
			"inputs": [
				{
					"internalType": "address",
					"name": "account",
					"type": "address"
				}
			],
			"name": "OwnableUnauthorizedAccount",
			"type": "error"
		},
		{
			"anonymous": false,
			"inputs": [
				{
					"indexed": false,
					"internalType": "address",
					"name": "sender",
					"type": "address"
				},
				{
					"indexed": false,
					"internalType": "uint256",
					"name": "amountInDollars",
					"type": "uint256"
				},
				{
					"indexed": false,
					"internalType": "uint256",
					"name": "totalAmountAvailableForBorrowInDollars",
					"type": "uint256"
				},
				{
					"indexed": false,
					"internalType": "bool",
					"name": "userPresent",
					"type": "bool"
				},
				{
					"indexed": false,
					"internalType": "int256",
					"name": "userIndex",
					"type": "int256"
				},
				{
					"indexed": false,
					"internalType": "address[]",
					"name": "borrowers",
					"type": "address[]"
				},
				{
					"indexed": false,
					"internalType": "uint256",
					"name": "currentUserTokenBorrowedAmount",
					"type": "uint256"
				}
			],
			"name": "Borrow",
			"type": "event"
		},
		{
			"anonymous": false,
			"inputs": [
				{
					"indexed": false,
					"internalType": "address",
					"name": "sender",
					"type": "address"
				},
				{
					"indexed": false,
					"internalType": "uint256",
					"name": "amountInDollars",
					"type": "uint256"
				},
				{
					"indexed": false,
					"internalType": "uint256",
					"name": "totalAmountAvailableForBorrowInDollars",
					"type": "uint256"
				}
			],
			"name": "BorrowTesting1",
			"type": "event"
		},
		{
			"anonymous": false,
			"inputs": [
				{
					"indexed": false,
					"internalType": "address",
					"name": "sender",
					"type": "address"
				},
				{
					"indexed": false,
					"internalType": "uint256",
					"name": "balance",
					"type": "uint256"
				},
				{
					"indexed": false,
					"internalType": "uint256",
					"name": "amount",
					"type": "uint256"
				}
			],
			"name": "BorrowTesting2",
			"type": "event"
		},
		{
			"anonymous": false,
			"inputs": [
				{
					"indexed": true,
					"internalType": "address",
					"name": "previousOwner",
					"type": "address"
				},
				{
					"indexed": true,
					"internalType": "address",
					"name": "newOwner",
					"type": "address"
				}
			],
			"name": "OwnershipTransferred",
			"type": "event"
		},
		{
			"anonymous": false,
			"inputs": [
				{
					"indexed": false,
					"internalType": "address",
					"name": "sender",
					"type": "address"
				},
				{
					"indexed": false,
					"internalType": "int256",
					"name": "index",
					"type": "int256"
				},
				{
					"indexed": false,
					"internalType": "uint256",
					"name": "tokenAmountBorrowed",
					"type": "uint256"
				},
				{
					"indexed": false,
					"internalType": "uint256",
					"name": "totalTokenAmountToCollectFromUser",
					"type": "uint256"
				},
				{
					"indexed": false,
					"internalType": "address[]",
					"name": "borrowers",
					"type": "address[]"
				}
			],
			"name": "PayDebt",
			"type": "event"
		},
		{
			"anonymous": false,
			"inputs": [
				{
					"indexed": false,
					"internalType": "address",
					"name": "sender",
					"type": "address"
				},
				{
					"indexed": false,
					"internalType": "int256",
					"name": "index",
					"type": "int256"
				}
			],
			"name": "RepayTesting1",
			"type": "event"
		},
		{
			"anonymous": false,
			"inputs": [
				{
					"indexed": false,
					"internalType": "address",
					"name": "sender",
					"type": "address"
				},
				{
					"indexed": false,
					"internalType": "uint256",
					"name": "tokenBorrowed",
					"type": "uint256"
				}
			],
			"name": "RepayTesting2",
			"type": "event"
		},
		{
			"anonymous": false,
			"inputs": [
				{
					"indexed": false,
					"internalType": "address",
					"name": "sender",
					"type": "address"
				},
				{
					"indexed": false,
					"internalType": "address[]",
					"name": "lenders",
					"type": "address[]"
				},
				{
					"indexed": false,
					"internalType": "uint256",
					"name": "currentUserTokenLentAmount",
					"type": "uint256"
				}
			],
			"name": "Supply",
			"type": "event"
		},
		{
			"anonymous": false,
			"inputs": [
				{
					"indexed": false,
					"internalType": "address",
					"name": "sender",
					"type": "address"
				},
				{
					"indexed": false,
					"internalType": "uint256",
					"name": "amount",
					"type": "uint256"
				},
				{
					"indexed": false,
					"internalType": "uint256",
					"name": "tokenToWithdrawInDollars",
					"type": "uint256"
				},
				{
					"indexed": false,
					"internalType": "uint256",
					"name": "availableToWithdraw",
					"type": "uint256"
				},
				{
					"indexed": false,
					"internalType": "uint256",
					"name": "totalAmountLentInDollars",
					"type": "uint256"
				},
				{
					"indexed": false,
					"internalType": "uint256",
					"name": "larTokenToRemove",
					"type": "uint256"
				}
			],
			"name": "Withdraw",
			"type": "event"
		},
		{
			"anonymous": false,
			"inputs": [
				{
					"indexed": false,
					"internalType": "address",
					"name": "sender",
					"type": "address"
				},
				{
					"indexed": false,
					"internalType": "uint256",
					"name": "tokentoWithdrawInDollars",
					"type": "uint256"
				},
				{
					"indexed": false,
					"internalType": "uint256",
					"name": "availableToWithdraw",
					"type": "uint256"
				}
			],
			"name": "WithdrawTesting",
			"type": "event"
		},
		{
			"inputs": [
				{
					"internalType": "address",
					"name": "tokenAddress",
					"type": "address"
				},
				{
					"internalType": "address",
					"name": "tokenToUsdPriceFeed",
					"type": "address"
				}
			],
			"name": "addTokenToPriceFeedMapping",
			"outputs": [],
			"stateMutability": "nonpayable",
			"type": "function"
		},
		{
			"inputs": [
				{
					"internalType": "string",
					"name": "name",
					"type": "string"
				},
				{
					"internalType": "address",
					"name": "tokenAddress",
					"type": "address"
				},
				{
					"internalType": "uint256",
					"name": "LTV",
					"type": "uint256"
				},
				{
					"internalType": "uint256",
					"name": "borrowStableRate",
					"type": "uint256"
				}
			],
			"name": "addTokensForBorrowing",
			"outputs": [],
			"stateMutability": "nonpayable",
			"type": "function"
		},
		{
			"inputs": [
				{
					"internalType": "string",
					"name": "name",
					"type": "string"
				},
				{
					"internalType": "address",
					"name": "tokenAddress",
					"type": "address"
				},
				{
					"internalType": "uint256",
					"name": "LTV",
					"type": "uint256"
				},
				{
					"internalType": "uint256",
					"name": "borrowStableRate",
					"type": "uint256"
				}
			],
			"name": "addTokensForLending",
			"outputs": [],
			"stateMutability": "nonpayable",
			"type": "function"
		},
		{
			"inputs": [
				{
					"internalType": "uint256",
					"name": "amount",
					"type": "uint256"
				},
				{
					"internalType": "address",
					"name": "tokenAddress",
					"type": "address"
				}
			],
			"name": "borrow",
			"outputs": [],
			"stateMutability": "nonpayable",
			"type": "function"
		},
		{
			"inputs": [
				{
					"internalType": "uint256",
					"name": "",
					"type": "uint256"
				}
			],
			"name": "borrowers",
			"outputs": [
				{
					"internalType": "address",
					"name": "",
					"type": "address"
				}
			],
			"stateMutability": "view",
			"type": "function"
		},
		{
			"inputs": [
				{
					"internalType": "uint256",
					"name": "amount",
					"type": "uint256"
				},
				{
					"internalType": "address",
					"name": "tokenAddress",
					"type": "address"
				}
			],
			"name": "getAmountInDollars",
			"outputs": [
				{
					"internalType": "uint256",
					"name": "",
					"type": "uint256"
				}
			],
			"stateMutability": "view",
			"type": "function"
		},
		{
			"inputs": [],
			"name": "getBorrowersArray",
			"outputs": [
				{
					"internalType": "address[]",
					"name": "",
					"type": "address[]"
				}
			],
			"stateMutability": "view",
			"type": "function"
		},
		{
			"inputs": [],
			"name": "getLendersArray",
			"outputs": [
				{
					"internalType": "address[]",
					"name": "",
					"type": "address[]"
				}
			],
			"stateMutability": "view",
			"type": "function"
		},
		{
			"inputs": [
				{
					"internalType": "address",
					"name": "user",
					"type": "address"
				}
			],
			"name": "getRemainingCollateral",
			"outputs": [
				{
					"internalType": "uint256",
					"name": "",
					"type": "uint256"
				}
			],
			"stateMutability": "view",
			"type": "function"
		},
		{
			"inputs": [
				{
					"internalType": "address",
					"name": "user",
					"type": "address"
				}
			],
			"name": "getTokenAvailableToWithdraw",
			"outputs": [
				{
					"internalType": "uint256",
					"name": "",
					"type": "uint256"
				}
			],
			"stateMutability": "view",
			"type": "function"
		},
		{
			"inputs": [
				{
					"internalType": "address",
					"name": "tokenAddress",
					"type": "address"
				}
			],
			"name": "getTokenFrom",
			"outputs": [
				{
					"components": [
						{
							"internalType": "address",
							"name": "tokenAddress",
							"type": "address"
						},
						{
							"internalType": "uint256",
							"name": "LTV",
							"type": "uint256"
						},
						{
							"internalType": "uint256",
							"name": "stableRate",
							"type": "uint256"
						},
						{
							"internalType": "string",
							"name": "name",
							"type": "string"
						}
					],
					"internalType": "struct LendingAndBorrowing.Token",
					"name": "",
					"type": "tuple"
				}
			],
			"stateMutability": "view",
			"type": "function"
		},
		{
			"inputs": [],
			"name": "getTokensForBorrowingArray",
			"outputs": [
				{
					"components": [
						{
							"internalType": "address",
							"name": "tokenAddress",
							"type": "address"
						},
						{
							"internalType": "uint256",
							"name": "LTV",
							"type": "uint256"
						},
						{
							"internalType": "uint256",
							"name": "stableRate",
							"type": "uint256"
						},
						{
							"internalType": "string",
							"name": "name",
							"type": "string"
						}
					],
					"internalType": "struct LendingAndBorrowing.Token[]",
					"name": "",
					"type": "tuple[]"
				}
			],
			"stateMutability": "view",
			"type": "function"
		},
		{
			"inputs": [],
			"name": "getTokensForLendingArray",
			"outputs": [
				{
					"components": [
						{
							"internalType": "address",
							"name": "tokenAddress",
							"type": "address"
						},
						{
							"internalType": "uint256",
							"name": "LTV",
							"type": "uint256"
						},
						{
							"internalType": "uint256",
							"name": "stableRate",
							"type": "uint256"
						},
						{
							"internalType": "string",
							"name": "name",
							"type": "string"
						}
					],
					"internalType": "struct LendingAndBorrowing.Token[]",
					"name": "",
					"type": "tuple[]"
				}
			],
			"stateMutability": "view",
			"type": "function"
		},
		{
			"inputs": [
				{
					"internalType": "address",
					"name": "user",
					"type": "address"
				}
			],
			"name": "getTotalAmountBorrowedInDollars",
			"outputs": [
				{
					"internalType": "uint256",
					"name": "",
					"type": "uint256"
				}
			],
			"stateMutability": "view",
			"type": "function"
		},
		{
			"inputs": [
				{
					"internalType": "address",
					"name": "user",
					"type": "address"
				}
			],
			"name": "getTotalAmountLentInDollars",
			"outputs": [
				{
					"internalType": "uint256",
					"name": "",
					"type": "uint256"
				}
			],
			"stateMutability": "view",
			"type": "function"
		},
		{
			"inputs": [
				{
					"internalType": "address",
					"name": "tokenAddress",
					"type": "address"
				}
			],
			"name": "getTotalTokenBorrowed",
			"outputs": [
				{
					"internalType": "uint256",
					"name": "",
					"type": "uint256"
				}
			],
			"stateMutability": "view",
			"type": "function"
		},
		{
			"inputs": [
				{
					"internalType": "address",
					"name": "tokenAddres",
					"type": "address"
				}
			],
			"name": "getTotalTokenSupplied",
			"outputs": [
				{
					"internalType": "uint256",
					"name": "",
					"type": "uint256"
				}
			],
			"stateMutability": "view",
			"type": "function"
		},
		{
			"inputs": [
				{
					"internalType": "address",
					"name": "user",
					"type": "address"
				}
			],
			"name": "getUserTotalAmountAvailableForBorrowInDollars",
			"outputs": [
				{
					"internalType": "uint256",
					"name": "",
					"type": "uint256"
				}
			],
			"stateMutability": "view",
			"type": "function"
		},
		{
			"inputs": [
				{
					"internalType": "address",
					"name": "currentUser",
					"type": "address"
				},
				{
					"internalType": "address",
					"name": "tokenAddress",
					"type": "address"
				},
				{
					"internalType": "uint256",
					"name": "noOfTokenslentOrBorrowed",
					"type": "uint256"
				},
				{
					"internalType": "string",
					"name": "_tokensLentOrBorrowed",
					"type": "string"
				}
			],
			"name": "hasLentOrBorrowedToken",
			"outputs": [
				{
					"internalType": "bool",
					"name": "",
					"type": "bool"
				}
			],
			"stateMutability": "view",
			"type": "function"
		},
		{
			"inputs": [
				{
					"internalType": "address",
					"name": "tokenAddress",
					"type": "address"
				},
				{
					"internalType": "uint256",
					"name": "tokenBorrowed",
					"type": "uint256"
				}
			],
			"name": "interest",
			"outputs": [
				{
					"internalType": "uint256",
					"name": "",
					"type": "uint256"
				}
			],
			"stateMutability": "view",
			"type": "function"
		},
		{
			"inputs": [],
			"name": "larToken",
			"outputs": [
				{
					"internalType": "contract IERC20",
					"name": "",
					"type": "address"
				}
			],
			"stateMutability": "view",
			"type": "function"
		},
		{
			"inputs": [
				{
					"internalType": "address",
					"name": "tokenAddress",
					"type": "address"
				},
				{
					"internalType": "uint256",
					"name": "amount",
					"type": "uint256"
				}
			],
			"name": "lend",
			"outputs": [],
			"stateMutability": "payable",
			"type": "function"
		},
		{
			"inputs": [
				{
					"internalType": "uint256",
					"name": "",
					"type": "uint256"
				}
			],
			"name": "lenders",
			"outputs": [
				{
					"internalType": "address",
					"name": "",
					"type": "address"
				}
			],
			"stateMutability": "view",
			"type": "function"
		},
		{
			"inputs": [],
			"name": "noOfTokensBorrowed",
			"outputs": [
				{
					"internalType": "uint256",
					"name": "",
					"type": "uint256"
				}
			],
			"stateMutability": "view",
			"type": "function"
		},
		{
			"inputs": [],
			"name": "noOfTokensLent",
			"outputs": [
				{
					"internalType": "uint256",
					"name": "",
					"type": "uint256"
				}
			],
			"stateMutability": "view",
			"type": "function"
		},
		{
			"inputs": [
				{
					"internalType": "address",
					"name": "tokenAddress",
					"type": "address"
				}
			],
			"name": "oneTokenEqualsHowManyDollars",
			"outputs": [
				{
					"internalType": "uint256",
					"name": "",
					"type": "uint256"
				},
				{
					"internalType": "uint256",
					"name": "",
					"type": "uint256"
				}
			],
			"stateMutability": "view",
			"type": "function"
		},
		{
			"inputs": [],
			"name": "owner",
			"outputs": [
				{
					"internalType": "address",
					"name": "",
					"type": "address"
				}
			],
			"stateMutability": "view",
			"type": "function"
		},
		{
			"inputs": [
				{
					"internalType": "address",
					"name": "tokenAddress",
					"type": "address"
				},
				{
					"internalType": "uint256",
					"name": "amount",
					"type": "uint256"
				}
			],
			"name": "payDebt",
			"outputs": [],
			"stateMutability": "nonpayable",
			"type": "function"
		},
		{
			"inputs": [],
			"name": "renounceOwnership",
			"outputs": [],
			"stateMutability": "nonpayable",
			"type": "function"
		},
		{
			"inputs": [
				{
					"internalType": "address",
					"name": "",
					"type": "address"
				}
			],
			"name": "tokenToPriceFeed",
			"outputs": [
				{
					"internalType": "address",
					"name": "",
					"type": "address"
				}
			],
			"stateMutability": "view",
			"type": "function"
		},
		{
			"inputs": [
				{
					"internalType": "uint256",
					"name": "",
					"type": "uint256"
				},
				{
					"internalType": "address",
					"name": "",
					"type": "address"
				}
			],
			"name": "tokensBorrowed",
			"outputs": [
				{
					"internalType": "address",
					"name": "",
					"type": "address"
				}
			],
			"stateMutability": "view",
			"type": "function"
		},
		{
			"inputs": [
				{
					"internalType": "address",
					"name": "",
					"type": "address"
				},
				{
					"internalType": "address",
					"name": "",
					"type": "address"
				}
			],
			"name": "tokensBorrowedAmount",
			"outputs": [
				{
					"internalType": "uint256",
					"name": "",
					"type": "uint256"
				}
			],
			"stateMutability": "view",
			"type": "function"
		},
		{
			"inputs": [
				{
					"internalType": "uint256",
					"name": "",
					"type": "uint256"
				}
			],
			"name": "tokensForBorrowing",
			"outputs": [
				{
					"internalType": "address",
					"name": "tokenAddress",
					"type": "address"
				},
				{
					"internalType": "uint256",
					"name": "LTV",
					"type": "uint256"
				},
				{
					"internalType": "uint256",
					"name": "stableRate",
					"type": "uint256"
				},
				{
					"internalType": "string",
					"name": "name",
					"type": "string"
				}
			],
			"stateMutability": "view",
			"type": "function"
		},
		{
			"inputs": [
				{
					"internalType": "uint256",
					"name": "",
					"type": "uint256"
				}
			],
			"name": "tokensForLending",
			"outputs": [
				{
					"internalType": "address",
					"name": "tokenAddress",
					"type": "address"
				},
				{
					"internalType": "uint256",
					"name": "LTV",
					"type": "uint256"
				},
				{
					"internalType": "uint256",
					"name": "stableRate",
					"type": "uint256"
				},
				{
					"internalType": "string",
					"name": "name",
					"type": "string"
				}
			],
			"stateMutability": "view",
			"type": "function"
		},
		{
			"inputs": [
				{
					"internalType": "uint256",
					"name": "",
					"type": "uint256"
				},
				{
					"internalType": "address",
					"name": "",
					"type": "address"
				}
			],
			"name": "tokensLent",
			"outputs": [
				{
					"internalType": "address",
					"name": "",
					"type": "address"
				}
			],
			"stateMutability": "view",
			"type": "function"
		},
		{
			"inputs": [
				{
					"internalType": "address",
					"name": "",
					"type": "address"
				},
				{
					"internalType": "address",
					"name": "",
					"type": "address"
				}
			],
			"name": "tokensLentAmount",
			"outputs": [
				{
					"internalType": "uint256",
					"name": "",
					"type": "uint256"
				}
			],
			"stateMutability": "view",
			"type": "function"
		},
		{
			"inputs": [
				{
					"internalType": "address",
					"name": "newOwner",
					"type": "address"
				}
			],
			"name": "transferOwnership",
			"outputs": [],
			"stateMutability": "nonpayable",
			"type": "function"
		},
		{
			"inputs": [
				{
					"internalType": "address",
					"name": "tokenAddress",
					"type": "address"
				},
				{
					"internalType": "uint256",
					"name": "amount",
					"type": "uint256"
				}
			],
			"name": "withdraw",
			"outputs": [],
			"stateMutability": "nonpayable",
			"type": "function"
		}
	]
}